{
  "abi": [
    {
      "inputs": [
        {
          "internalType": "bytes32",
          "name": "websiteNamehash",
          "type": "bytes32"
        },
        {
          "internalType": "bytes32",
          "name": "authorityNamehash",
          "type": "bytes32"
        },
        {
          "internalType": "bytes32",
          "name": "authorityCertId",
          "type": "bytes32"
        }
      ],
      "payable": false,
      "stateMutability": "nonpayable",
      "type": "constructor"
    },
    {
      "constant": true,
      "inputs": [
        {
          "internalType": "bytes32",
          "name": "",
          "type": "bytes32"
        }
      ],
      "name": "certs",
      "outputs": [
        {
          "internalType": "address",
          "name": "owner",
          "type": "address"
        },
        {
          "internalType": "bytes32",
          "name": "parentId",
          "type": "bytes32"
        },
        {
          "internalType": "uint256",
          "name": "serialNumber",
          "type": "uint256"
        },
        {
          "internalType": "uint40",
          "name": "validNotBefore",
          "type": "uint40"
        },
        {
          "internalType": "uint40",
          "name": "validNotAfter",
          "type": "uint40"
        },
        {
          "internalType": "bool",
          "name": "sxg",
          "type": "bool"
        },
        {
          "internalType": "uint40",
          "name": "timestamp",
          "type": "uint40"
        },
        {
          "internalType": "bool",
          "name": "keyUsagePresent",
          "type": "bool"
        },
        {
          "internalType": "uint16",
          "name": "keyUsage",
          "type": "uint16"
        }
      ],
      "payable": false,
      "stateMutability": "view",
      "type": "function"
    },
    {
      "constant": true,
      "inputs": [
        {
          "internalType": "bytes32",
          "name": "certId",
          "type": "bytes32"
        }
      ],
      "name": "extKeyUsageCritical",
      "outputs": [
        {
          "internalType": "bool",
          "name": "",
          "type": "bool"
        }
      ],
      "payable": false,
      "stateMutability": "view",
      "type": "function"
    },
    {
      "constant": true,
      "inputs": [
        {
          "internalType": "bytes32",
          "name": "certId",
          "type": "bytes32"
        }
      ],
      "name": "keyUsage",
      "outputs": [
        {
          "internalType": "bool",
          "name": "",
          "type": "bool"
        },
        {
          "internalType": "bool[9]",
          "name": "",
          "type": "bool[9]"
        }
      ],
      "payable": false,
      "stateMutability": "view",
      "type": "function"
    },
    {
      "constant": true,
      "inputs": [
        {
          "internalType": "bytes32",
          "name": "certId",
          "type": "bytes32"
        }
      ],
      "name": "owner",
      "outputs": [
        {
          "internalType": "address",
          "name": "",
          "type": "address"
        }
      ],
      "payable": false,
      "stateMutability": "view",
      "type": "function"
    },
    {
      "constant": true,
      "inputs": [
        {
          "internalType": "bytes32",
          "name": "certId",
          "type": "bytes32"
        }
      ],
      "name": "parentId",
      "outputs": [
        {
          "internalType": "bytes32",
          "name": "",
          "type": "bytes32"
        }
      ],
      "payable": false,
      "stateMutability": "view",
      "type": "function"
    },
    {
      "constant": true,
      "inputs": [
        {
          "internalType": "bytes32",
          "name": "certId",
          "type": "bytes32"
        }
      ],
      "name": "rootOf",
      "outputs": [
        {
          "internalType": "bytes32",
          "name": "",
          "type": "bytes32"
        }
      ],
      "payable": false,
      "stateMutability": "view",
      "type": "function"
    },
    {
      "constant": true,
      "inputs": [
        {
          "internalType": "bytes32",
          "name": "certId",
          "type": "bytes32"
        }
      ],
      "name": "serialNumber",
      "outputs": [
        {
          "internalType": "uint256",
          "name": "",
          "type": "uint256"
        }
      ],
      "payable": false,
      "stateMutability": "view",
      "type": "function"
    },
    {
      "constant": true,
      "inputs": [
        {
          "internalType": "bytes32",
          "name": "certId",
          "type": "bytes32"
        }
      ],
      "name": "sxg",
      "outputs": [
        {
          "internalType": "bool",
          "name": "",
          "type": "bool"
        }
      ],
      "payable": false,
      "stateMutability": "view",
      "type": "function"
    },
    {
      "constant": true,
      "inputs": [
        {
          "internalType": "bytes32",
          "name": "certId",
          "type": "bytes32"
        }
      ],
      "name": "timestamp",
      "outputs": [
        {
          "internalType": "uint40",
          "name": "",
          "type": "uint40"
        }
      ],
      "payable": false,
      "stateMutability": "view",
      "type": "function"
    },
    {
      "constant": true,
      "inputs": [
        {
          "internalType": "bytes32",
          "name": "",
          "type": "bytes32"
        },
        {
          "internalType": "uint256",
          "name": "",
          "type": "uint256"
        }
      ],
      "name": "toCertIds",
      "outputs": [
        {
          "internalType": "bytes32",
          "name": "",
          "type": "bytes32"
        }
      ],
      "payable": false,
      "stateMutability": "view",
      "type": "function"
    },
    {
      "constant": true,
      "inputs": [
        {
          "internalType": "bytes32",
          "name": "commonNameHash",
          "type": "bytes32"
        }
      ],
      "name": "toCertIdsLength",
      "outputs": [
        {
          "internalType": "uint256",
          "name": "",
          "type": "uint256"
        }
      ],
      "payable": false,
      "stateMutability": "view",
      "type": "function"
    },
    {
      "constant": true,
      "inputs": [
        {
          "internalType": "bytes32",
          "name": "certId",
          "type": "bytes32"
        }
      ],
      "name": "unparsedCriticalExtensionPresent",
      "outputs": [
        {
          "internalType": "bool",
          "name": "",
          "type": "bool"
        }
      ],
      "payable": false,
      "stateMutability": "view",
      "type": "function"
    },
    {
      "constant": true,
      "inputs": [
        {
          "internalType": "bytes32",
          "name": "certId",
          "type": "bytes32"
        }
      ],
      "name": "validNotAfter",
      "outputs": [
        {
          "internalType": "uint40",
          "name": "",
          "type": "uint40"
        }
      ],
      "payable": false,
      "stateMutability": "view",
      "type": "function"
    },
    {
      "constant": true,
      "inputs": [
        {
          "internalType": "bytes32",
          "name": "certId",
          "type": "bytes32"
        }
      ],
      "name": "validNotBefore",
      "outputs": [
        {
          "internalType": "uint40",
          "name": "",
          "type": "uint40"
        }
      ],
      "payable": false,
      "stateMutability": "view",
      "type": "function"
    }
  ],
  "bytecode": {
    "object": "0x608060405234801561001057600080fd5b50604051610f21380380610f218339818101604052606081101561003357600080fd5b810190808051906020019092919080519060200190929190805190602001909291905050506040518061012001604052807311111111111111111111111111111111111111116001600160a01b0316815260200182815260200160018152602001627bed00420364ffffffffff16815260200164012a05f20064ffffffffff168152602001600015158152602001627a9b80420364ffffffffff168152602001600115158152602001601861ffff1681525060008083815260200190815260200160002060008201518160000160006101000a8154816001600160a01b0302191690836001600160a01b03160217905550602082015181600101556040820151816002015560608201518160030160006101000a81548164ffffffffff021916908364ffffffffff16021790555060808201518160030160056101000a81548164ffffffffff021916908364ffffffffff16021790555060a082015181600301600a6101000a81548160ff02191690831515021790555060c082015181600301600b6101000a81548164ffffffffff021916908364ffffffffff16021790555060e08201518160030160106101000a81548160ff0219169083151502179055506101008201518160030160116101000a81548161ffff021916908361ffff160217905550905050600160008381526020019081526020016000208190806001815401808255809150509060018203906000526020600020016000909192909190915055506040518061012001604052807355555555555555555555555555555555555555556001600160a01b0316815260200182815260200160038152602001627bed00420364ffffffffff16815260200164012a05f20064ffffffffff16815260200160001515815260200162794a00420364ffffffffff16815260200160011515815260200161014061ffff16815250600080604051808062dddddd60e81b81525060030190506040518091039020815260200190815260200160002060008201518160000160006101000a8154816001600160a01b0302191690836001600160a01b03160217905550602082015181600101556040820151816002015560608201518160030160006101000a81548164ffffffffff021916908364ffffffffff16021790555060808201518160030160056101000a81548164ffffffffff021916908364ffffffffff16021790555060a082015181600301600a6101000a81548160ff02191690831515021790555060c082015181600301600b6101000a81548164ffffffffff021916908364ffffffffff16021790555060e08201518160030160106101000a81548160ff0219169083151502179055506101008201518160030160116101000a81548161ffff021916908361ffff16021790555090505060016000848152602001908152602001600020604051808062dddddd60e81b815250600301905060405180910390209080600181540180825580915050906001820390600052602060002001600090919290919091505550604051806101200160405280336001600160a01b03168152602001828152602001600281526020016201adb0420364ffffffffff16815260200164012a05f20064ffffffffff168152602001600015158152602001620186a0420364ffffffffff16815260200160011515815260200161014061ffff16815250600080604051808062bbbbbb60e81b81525060030190506040518091039020815260200190815260200160002060008201518160000160006101000a8154816001600160a01b0302191690836001600160a01b03160217905550602082015181600101556040820151816002015560608201518160030160006101000a81548164ffffffffff021916908364ffffffffff16021790555060808201518160030160056101000a81548164ffffffffff021916908364ffffffffff16021790555060a082015181600301600a6101000a81548160ff02191690831515021790555060c082015181600301600b6101000a81548164ffffffffff021916908364ffffffffff16021790555060e08201518160030160106101000a81548160ff0219169083151502179055506101008201518160030160116101000a81548161ffff021916908361ffff16021790555090505060016000848152602001908152602001600020604051808062bbbbbb60e81b8152506003019050604051809103902090806001815401808255809150509060018203906000526020600020016000909192909190915055506040518061012001604052807355555555555555555555555555555555555555556001600160a01b0316815260200160405180806233333360ea1b815250600301905060405180910390208152602001600381526020016201adb0420364ffffffffff16815260200164012a05f20064ffffffffff168152602001600015158152602001620186a0420364ffffffffff16815260200160011515815260200161014061ffff1681525060008060405180806233333360ea1b81525060030190506040518091039020815260200190815260200160002060008201518160000160006101000a8154816001600160a01b0302191690836001600160a01b03160217905550602082015181600101556040820151816002015560608201518160030160006101000a81548164ffffffffff021916908364ffffffffff16021790555060808201518160030160056101000a81548164ffffffffff021916908364ffffffffff16021790555060a082015181600301600a6101000a81548160ff02191690831515021790555060c082015181600301600b6101000a81548164ffffffffff021916908364ffffffffff16021790555060e08201518160030160106101000a81548160ff0219169083151502179055506101008201518160030160116101000a81548161ffff021916908361ffff1602179055509050506001600084815260200190815260200160002060405180806233333360ea1b81525060030190506040518091039020908060018154018082558091505090600182039060005260206000200160009091929091909150555050505061060f806109126000396000f3fe608060405234801561001057600080fd5b50600436106100ea5760003560e01c80636d6f398e1161008c578063b841f2b211610066578063b841f2b2146102d6578063bd29dec0146102f3578063d6be188c146102b9578063f6cc681514610310576100ea565b80636d6f398e1461026b5780636eaba09e14610288578063885ffae1146102b9576100ea565b806317932046116100c8578063179320461461017a5780631fbfd9fe146101b15780634063d812146101ce5780634d0030701461024e576100ea565b80630196d78d146100ef57806302571be31461012457806303ea6ef71461015d575b600080fd5b6101126004803603604081101561010557600080fd5b508035906020013561036f565b60408051918252519081900360200190f35b6101416004803603602081101561013a57600080fd5b503561039d565b604080516001600160a01b039092168252519081900360200190f35b6101126004803603602081101561017357600080fd5b50356103b8565b6101976004803603602081101561019057600080fd5b50356103cd565b6040805164ffffffffff9092168252519081900360200190f35b610112600480360360208110156101c757600080fd5b50356103e9565b6101eb600480360360208110156101e457600080fd5b50356103fe565b604080516001600160a01b03909a168a5260208a01989098528888019690965264ffffffffff9485166060890152928416608088015290151560a087015290911660c0850152151560e084015261ffff1661010083015251908190036101200190f35b6101976004803603602081101561026457600080fd5b5035610473565b6101126004803603602081101561028157600080fd5b5035610496565b6102a56004803603602081101561029e57600080fd5b50356104cf565b604080519115158252519081900360200190f35b6102a5600480360360208110156102cf57600080fd5b50356104ee565b610197600480360360208110156102ec57600080fd5b50356104f4565b6101126004803603602081101561030957600080fd5b5035610519565b61032d6004803603602081101561032657600080fd5b503561052b565b6040518215158152602081018261012080838360005b8381101561035b578181015183820152602001610343565b505050509050019250505060405180910390f35b6001602052816000526040600020818154811061038857fe5b90600052602060002001600091509150505481565b6000908152602081905260409020546001600160a01b031690565b60009081526020819052604090206001015490565b60009081526020819052604090206003015464ffffffffff1690565b60009081526020819052604090206002015490565b60006020819052908152604090208054600182015460028301546003909301546001600160a01b0390921692909164ffffffffff8082169165010000000000810482169160ff600160501b8304811692600160581b810490921691600160801b81049091169061ffff600160881b9091041689565b600090815260208190526040902060030154600160581b900464ffffffffff1690565b6000815b60008181526020819052604090206001015481146104c95760009081526020819052604090206001015461049a565b92915050565b600090815260208190526040902060030154600160501b900460ff1690565b50600090565b60009081526020819052604090206003015465010000000000900464ffffffffff1690565b60009081526001602052604090205490565b60006105356105bb565b6101006105406105bb565b600085815260208190526040902060030154600160881b810461ffff1690600160801b900460ff1680156105af5760005b60098110156105ad578461ffff1685841661ffff161484826009811061059357fe5b91151560209092020152600194851c617fff169401610571565b505b94509092505050915091565b604051806101200160405280600990602082028038833950919291505056fea265627a7a72315820acaa4b528eebe5e1632a93468aec4c3fd797717d8db6c209ae14f3832f78ad0864736f6c63430005110032",
    "linkReferences": {}
  },
  "methodIdentifiers": {
    "certs(bytes32)": "4063d812",
    "extKeyUsageCritical(bytes32)": "885ffae1",
    "keyUsage(bytes32)": "f6cc6815",
    "owner(bytes32)": "02571be3",
    "parentId(bytes32)": "03ea6ef7",
    "rootOf(bytes32)": "6d6f398e",
    "serialNumber(bytes32)": "1fbfd9fe",
    "sxg(bytes32)": "6eaba09e",
    "timestamp(bytes32)": "4d003070",
    "toCertIds(bytes32,uint256)": "0196d78d",
    "toCertIdsLength(bytes32)": "bd29dec0",
    "unparsedCriticalExtensionPresent(bytes32)": "d6be188c",
    "validNotAfter(bytes32)": "b841f2b2",
    "validNotBefore(bytes32)": "17932046"
  },
  "id": 15
}