{
  "abi": [
    {
      "inputs": [
        {
          "internalType": "bytes32",
          "name": "_rootNode",
          "type": "bytes32"
        },
        {
          "internalType": "address",
          "name": "_ens",
          "type": "address"
        },
        {
          "internalType": "address",
          "name": "_x509",
          "type": "address"
        },
        {
          "internalType": "uint40",
          "name": "_maxCertAge",
          "type": "uint40"
        },
        {
          "internalType": "uint40",
          "name": "_minNumCerts",
          "type": "uint40"
        }
      ],
      "payable": false,
      "stateMutability": "nonpayable",
      "type": "constructor"
    },
    {
      "anonymous": false,
      "inputs": [
        {
          "indexed": false,
          "internalType": "bytes32",
          "name": "",
          "type": "bytes32"
        },
        {
          "indexed": false,
          "internalType": "address",
          "name": "",
          "type": "address"
        }
      ],
      "name": "DomainRegistered",
      "type": "event"
    },
    {
      "anonymous": false,
      "inputs": [
        {
          "indexed": false,
          "internalType": "uint40",
          "name": "",
          "type": "uint40"
        }
      ],
      "name": "MaxCertAgeSet",
      "type": "event"
    },
    {
      "anonymous": false,
      "inputs": [
        {
          "indexed": false,
          "internalType": "uint40",
          "name": "",
          "type": "uint40"
        }
      ],
      "name": "MinNumCertsSet",
      "type": "event"
    },
    {
      "anonymous": false,
      "inputs": [
        {
          "indexed": false,
          "internalType": "bytes32",
          "name": "",
          "type": "bytes32"
        }
      ],
      "name": "TrustAnchorAdded",
      "type": "event"
    },
    {
      "anonymous": false,
      "inputs": [
        {
          "indexed": false,
          "internalType": "bytes32",
          "name": "",
          "type": "bytes32"
        }
      ],
      "name": "TrustAnchorRemoved",
      "type": "event"
    },
    {
      "constant": false,
      "inputs": [
        {
          "internalType": "bytes32",
          "name": "certId",
          "type": "bytes32"
        }
      ],
      "name": "addTrustAnchor",
      "outputs": [],
      "payable": false,
      "stateMutability": "nonpayable",
      "type": "function"
    },
    {
      "constant": true,
      "inputs": [
        {
          "internalType": "bytes32",
          "name": "node",
          "type": "bytes32"
        },
        {
          "internalType": "address",
          "name": "account",
          "type": "address"
        }
      ],
      "name": "isDomainOwner",
      "outputs": [
        {
          "internalType": "bool",
          "name": "",
          "type": "bool"
        }
      ],
      "payable": false,
      "stateMutability": "view",
      "type": "function"
    },
    {
      "constant": false,
      "inputs": [
        {
          "internalType": "bytes32",
          "name": "tld",
          "type": "bytes32"
        },
        {
          "internalType": "bytes32",
          "name": "domain",
          "type": "bytes32"
        },
        {
          "internalType": "address",
          "name": "owner",
          "type": "address"
        }
      ],
      "name": "register",
      "outputs": [],
      "payable": false,
      "stateMutability": "nonpayable",
      "type": "function"
    },
    {
      "constant": false,
      "inputs": [
        {
          "internalType": "bytes32",
          "name": "certId",
          "type": "bytes32"
        }
      ],
      "name": "removeTrustAnchor",
      "outputs": [],
      "payable": false,
      "stateMutability": "nonpayable",
      "type": "function"
    },
    {
      "constant": false,
      "inputs": [
        {
          "internalType": "uint40",
          "name": "_maxCertAge",
          "type": "uint40"
        }
      ],
      "name": "setMaxCertAge",
      "outputs": [],
      "payable": false,
      "stateMutability": "nonpayable",
      "type": "function"
    },
    {
      "constant": false,
      "inputs": [
        {
          "internalType": "uint40",
          "name": "_minNumCerts",
          "type": "uint40"
        }
      ],
      "name": "setMinNumCerts",
      "outputs": [],
      "payable": false,
      "stateMutability": "nonpayable",
      "type": "function"
    }
  ],
  "bytecode": {
    "object": "0x608060405234801561001057600080fd5b506040516113be3803806113be833981810160405260a081101561003357600080fd5b508051602082015160408301516060840151608090940151600193909355600080546001600160a01b039384166001600160a01b031991821617909155600280549390921692169190911790556004805464ffffffffff928316650100000000000264ffffffffff60281b199390941664ffffffffff1990911617919091169190911790556112f7806100c76000396000f3fe608060405234801561001057600080fd5b50600436106100625760003560e01c806315d7bf44146100675780635fe89f691461009b5780638023597e146100bf5780638e737f99146100ff578063d631e01614610123578063e90fded514610140575b600080fd5b6100996004803603606081101561007d57600080fd5b50803590602081013590604001356001600160a01b031661015d565b005b610099600480360360208110156100b157600080fd5b503564ffffffffff16610530565b6100eb600480360360408110156100d557600080fd5b50803590602001356001600160a01b0316610662565b604080519115158252519081900360200190f35b6100996004803603602081101561011557600080fd5b503564ffffffffff16610a99565b6100996004803603602081101561013957600080fd5b5035610bbd565b6100996004803603602081101561015657600080fd5b5035610cd4565b604080516000602080830191909152818301869052825180830384018152606083018452805190820120608083015260a08083018690528351808403909101815260c09092019092528051910120839083906101b98133610662565b6101fe576040805162461bcd60e51b815260206004820152601160248201527027b7363c903237b6b0b4b71037bbb732b960791b604482015290519081900360640190fd5b600154604080516020808201939093528082018990528151808203830181526060820183528051908401206080820181905260a08083018a90528351808403909101815260c08301808552815191909501209093526001600160a01b03871660e082015290517f36b4ddcd936bde36e8dfe4d8502a76b6b97563bf30625db151f073e341731285918190036101000190a1600054600154604080516302571be360e01b81526004810192909252516001600160a01b03909216916302571be391602480820192602092909190829003018186803b1580156102de57600080fd5b505afa1580156102f2573d6000803e3d6000fd5b505050506040513d602081101561030857600080fd5b5051600054604080516302571be360e01b81526004810185905290516001600160a01b0393841693909216916302571be391602480820192602092909190829003018186803b15801561035a57600080fd5b505afa15801561036e573d6000803e3d6000fd5b505050506040513d602081101561038457600080fd5b50516001600160a01b03161461049b57600054600154604080516302571be360e01b81526004810183905290516001600160a01b03909316926306ab592392918b9185916302571be3916024808301926020929190829003018186803b1580156103ed57600080fd5b505afa158015610401573d6000803e3d6000fd5b505050506040513d602081101561041757600080fd5b5051604080516001600160e01b031960e087901b168152600481019490945260248401929092526001600160a01b031660448301525160648083019260209291908290030181600087803b15801561046e57600080fd5b505af1158015610482573d6000803e3d6000fd5b505050506040513d602081101561049857600080fd5b50505b60008054604080516306ab592360e01b815260048101859052602481018a90526001600160a01b038981166044830152915191909216926306ab592392606480820193602093909283900390910190829087803b1580156104fb57600080fd5b505af115801561050f573d6000803e3d6000fd5b505050506040513d602081101561052557600080fd5b505050505050505050565b600054600154604080516302571be360e01b815260048101929092525133926001600160a01b0316916302571be3916024808301926020929190829003018186803b15801561057e57600080fd5b505afa158015610592573d6000803e3d6000fd5b505050506040513d60208110156105a857600080fd5b50516001600160a01b0316146105fc576040805162461bcd60e51b815260206004820152601460248201527327b7363c903937b7ba103737b2329037bbb732b960611b604482015290519081900360640190fd5b6040805164ffffffffff8316815290517fe5f9b2e32eb87a02ecd34abab2dd1ad3d7ec588114a9eeb40664948040e0bb579181900360200190a16004805464ffffffffff909216650100000000000269ffffffffff000000000019909216919091179055565b60008060008060006060600460059054906101000a900464ffffffffff1664ffffffffff166040519080825280602002602001820160405280156106b0578160200160208202803883390190505b50600254604080516302f4a77b60e61b8152600481018c9052905192935060009283926001600160a01b03169163bd29dec0916024808301926020929190829003018186803b15801561070257600080fd5b505afa158015610716573d6000803e3d6000fd5b505050506040513d602081101561072c57600080fd5b505190506000805b828263ffffffff161015610a565760025460408051630196d78d60e01b8152600481018f905260001963ffffffff8616870301602482015290516001600160a01b0390921691630196d78d91604480820192602092909190829003018186803b1580156107a057600080fd5b505afa1580156107b4573d6000803e3d6000fd5b505050506040513d60208110156107ca57600080fd5b505160048054600254604080516304d0030760e41b815293840185905251939b5064ffffffffff909116926001600160a01b0390911691634d003070916024808301926020929190829003018186803b15801561082657600080fd5b505afa15801561083a573d6000803e3d6000fd5b505050506040513d602081101561085057600080fd5b505164ffffffffff164203111561086657610a56565b61086f88610dee565b61087857610a4b565b600254604080516336b79cc760e11b8152600481018b905290516001600160a01b0390921691636d6f398e91602480820192602092909190829003018186803b1580156108c457600080fd5b505afa1580156108d8573d6000803e3d6000fd5b505050506040513d60208110156108ee57600080fd5b505160008181526003602052604090205490975060ff1661090e57610a4b565b600254604080516302571be360e01b8152600481018b905290516001600160a01b03909216916302571be391602480820192602092909190829003018186803b15801561095a57600080fd5b505afa15801561096e573d6000803e3d6000fd5b505050506040513d602081101561098457600080fd5b505198506001600160a01b03808a16908c161415610a2a5784518461ffff161015610a25575060009450845b8360010161ffff168163ffffffff161080156109ca575085155b156109fd5786858263ffffffff16815181106109e257fe5b602002602001015114156109f557600195505b6001016109b0565b85610a255786858561ffff1681518110610a1357fe5b60209081029190910101526001909301925b610a4b565b6001600160a01b03891615610a4b5760009950505050505050505050610a93565b600190910190610734565b60045465010000000000900464ffffffffff1661ffff851610610a855760019950505050505050505050610a93565b600099505050505050505050505b92915050565b600054600154604080516302571be360e01b815260048101929092525133926001600160a01b0316916302571be3916024808301926020929190829003018186803b158015610ae757600080fd5b505afa158015610afb573d6000803e3d6000fd5b505050506040513d6020811015610b1157600080fd5b50516001600160a01b031614610b65576040805162461bcd60e51b815260206004820152601460248201527327b7363c903937b7ba103737b2329037bbb732b960611b604482015290519081900360640190fd5b6040805164ffffffffff8316815290517f6e449c03a73dd1e735628b38561c8188af5f25c2ee595e7a8fff2c1205b7288f9181900360200190a16004805464ffffffffff191664ffffffffff92909216919091179055565b600054600154604080516302571be360e01b815260048101929092525133926001600160a01b0316916302571be3916024808301926020929190829003018186803b158015610c0b57600080fd5b505afa158015610c1f573d6000803e3d6000fd5b505050506040513d6020811015610c3557600080fd5b50516001600160a01b031614610c89576040805162461bcd60e51b815260206004820152601460248201527327b7363c903937b7ba103737b2329037bbb732b960611b604482015290519081900360640190fd5b6040805182815290517f605240421d81df87774330aa7cdf00a0fec56b9d5fcebb6e4a8b6b16b47bed619181900360200190a16000908152600360205260409020805460ff19169055565b600054600154604080516302571be360e01b815260048101929092525133926001600160a01b0316916302571be3916024808301926020929190829003018186803b158015610d2257600080fd5b505afa158015610d36573d6000803e3d6000fd5b505050506040513d6020811015610d4c57600080fd5b50516001600160a01b031614610da0576040805162461bcd60e51b815260206004820152601460248201527327b7363c903937b7ba103737b2329037bbb732b960611b604482015290519081900360640190fd5b6040805182815290517f4f0d6f35a89a102a4be09df1c7bd77857a876691898505835bc8791e414149439181900360200190a16000908152600360205260409020805460ff19166001179055565b600080610df96112a3565b60025460408051635c20f95960e11b815260048101879052905186926000926001600160a01b039091169163b841f2b291602480820192602092909190829003018186803b158015610e4a57600080fd5b505afa158015610e5e573d6000803e3d6000fd5b505050506040513d6020811015610e7457600080fd5b505164ffffffffff16421115610e9157600094505050505061129e565b6004805460025460408051630bc9902360e11b81529384018690525164ffffffffff909216926001600160a01b0390911691631793204691602480820192602092909190829003018186803b158015610ee957600080fd5b505afa158015610efd573d6000803e3d6000fd5b505050506040513d6020811015610f1357600080fd5b505164ffffffffff1642031115610f3157600094505050505061129e565b6002546040805163f6cc681560e01b81526004810185905290516001600160a01b039092169163f6cc68159160248082019261014092909190829003018186803b158015610f7e57600080fd5b505afa158015610f92573d6000803e3d6000fd5b505050506040513d601f19601f82011682018060405250610140811015610fb857600080fd5b50805194506020019250838015610fcd575082515b8015610fda575060408301515b610feb57600094505050505061129e565b6002546040805163885ffae160e01b81526004810185905290516001600160a01b039092169163885ffae191602480820192602092909190829003018186803b15801561103757600080fd5b505afa15801561104b573d6000803e3d6000fd5b505050506040513d602081101561106157600080fd5b50511561107557600094505050505061129e565b600254604080516335af862360e21b81526004810185905290516001600160a01b039092169163d6be188c91602480820192602092909190829003018186803b1580156110c157600080fd5b505afa1580156110d5573d6000803e3d6000fd5b505050506040513d60208110156110eb57600080fd5b5051156110ff57600094505050505061129e565b600254604080516303ea6ef760e01b81526004810185905290516001600160a01b03909216916303ea6ef791602480820192602092909190829003018186803b15801561114b57600080fd5b505afa15801561115f573d6000803e3d6000fd5b505050506040513d602081101561117557600080fd5b505190505b600254604080516303ea6ef760e01b815260048101849052905192935083926001600160a01b03909216916303ea6ef791602480820192602092909190829003018186803b1580156111cb57600080fd5b505afa1580156111df573d6000803e3d6000fd5b505050506040513d60208110156111f557600080fd5b505160025460408051635c20f95960e11b81526004810186905290519293506001600160a01b039091169163b841f2b291602480820192602092909190829003018186803b15801561124657600080fd5b505afa15801561125a573d6000803e3d6000fd5b505050506040513d602081101561127057600080fd5b505164ffffffffff1642111561128d57600094505050505061129e565b8082141561117a5760019450505050505b919050565b604051806101200160405280600990602082028038833950919291505056fea265627a7a72315820b7d834ba8c501351a3514c2d52c4ff2c25a1dbb1493a0cd17032d8bf25c8eb6164736f6c63430005110032",
    "linkReferences": {}
  },
  "methodIdentifiers": {
    "addTrustAnchor(bytes32)": "e90fded5",
    "isDomainOwner(bytes32,address)": "8023597e",
    "register(bytes32,bytes32,address)": "15d7bf44",
    "removeTrustAnchor(bytes32)": "d631e016",
    "setMaxCertAge(uint40)": "8e737f99",
    "setMinNumCerts(uint40)": "5fe89f69"
  },
  "id": 0
}