{
  "contractName": "DNSRegistrar",
  "abi": [
    {
      "inputs": [
        {
          "name": "_rootNode",
          "type": "bytes32"
        },
        {
          "name": "_ens",
          "type": "address"
        },
        {
          "name": "_x509",
          "type": "address"
        }
      ],
      "payable": false,
      "stateMutability": "nonpayable",
      "type": "constructor",
      "signature": "constructor"
    },
    {
      "anonymous": false,
      "inputs": [
        {
          "indexed": false,
          "name": "",
          "type": "bytes32"
        }
      ],
      "name": "TrustAnchorAdded",
      "type": "event",
      "signature": "0x4f0d6f35a89a102a4be09df1c7bd77857a876691898505835bc8791e41414943"
    },
    {
      "anonymous": false,
      "inputs": [
        {
          "indexed": false,
          "name": "",
          "type": "bytes32"
        }
      ],
      "name": "TrustAnchorRemoved",
      "type": "event",
      "signature": "0x605240421d81df87774330aa7cdf00a0fec56b9d5fcebb6e4a8b6b16b47bed61"
    },
    {
      "constant": false,
      "inputs": [
        {
          "name": "tld",
          "type": "bytes32"
        },
        {
          "name": "domain",
          "type": "bytes32"
        },
        {
          "name": "owner",
          "type": "address"
        }
      ],
      "name": "register",
      "outputs": [],
      "payable": false,
      "stateMutability": "nonpayable",
      "type": "function",
      "signature": "0x15d7bf44"
    },
    {
      "constant": true,
      "inputs": [],
      "name": "x509ForestOfTrustAddr",
      "outputs": [
        {
          "name": "",
          "type": "address"
        }
      ],
      "payable": false,
      "stateMutability": "view",
      "type": "function",
      "signature": "0xd95892a7"
    },
    {
      "constant": false,
      "inputs": [
        {
          "name": "certId",
          "type": "bytes32"
        }
      ],
      "name": "addTrustAnchor",
      "outputs": [],
      "payable": false,
      "stateMutability": "nonpayable",
      "type": "function",
      "signature": "0xe90fded5"
    },
    {
      "constant": false,
      "inputs": [
        {
          "name": "certId",
          "type": "bytes32"
        }
      ],
      "name": "removeTrustAnchor",
      "outputs": [],
      "payable": false,
      "stateMutability": "nonpayable",
      "type": "function",
      "signature": "0xd631e016"
    },
    {
      "constant": false,
      "inputs": [
        {
          "name": "newOwner",
          "type": "address"
        }
      ],
      "name": "setRootNodeOwner",
      "outputs": [],
      "payable": false,
      "stateMutability": "nonpayable",
      "type": "function",
      "signature": "0xc0dbd6a1"
    }
  ],
  "bytecode": "0x608060405234801561001057600080fd5b5060405160608061098d8339810180604052606081101561003057600080fd5b508051602082015160409092015160019190915560008054600160a060020a03938416600160a060020a031991821617909155600380549390921692811692909217905560028054909116331790556108ff8061008e6000396000f3fe608060405234801561001057600080fd5b5060043610610073577c0100000000000000000000000000000000000000000000000000000000600035046315d7bf448114610078578063c0dbd6a1146100ac578063d631e016146100d2578063d95892a7146100ef578063e90fded514610113575b600080fd5b6100aa6004803603606081101561008e57600080fd5b5080359060208101359060400135600160a060020a0316610130565b005b6100aa600480360360208110156100c257600080fd5b5035600160a060020a0316610386565b6100aa600480360360208110156100e857600080fd5b5035610424565b6100f7610486565b60408051600160a060020a039092168252519081900360200190f35b6100aa6004803603602081101561012957600080fd5b5035610495565b604080516000602080830191909152818301869052825180830384018152606083018452805190820120608083015260a08083018690528351808403909101815260c09092019092528051910120839083903361018c826104fa565b600160a060020a03161461019f57600080fd5b60015460408051602080820193909352808201899052815180820383018152606082018084528151918501919091206000547f02571be30000000000000000000000000000000000000000000000000000000090925260648301819052925192933093600160a060020a03909216926302571be39260848083019392829003018186803b15801561022f57600080fd5b505afa158015610243573d6000803e3d6000fd5b505050506040513d602081101561025957600080fd5b5051600160a060020a0316146102f35760008054600154604080517f06ab59230000000000000000000000000000000000000000000000000000000081526004810192909252602482018b905230604483015251600160a060020a03909216926306ab59239260648084019382900301818387803b1580156102da57600080fd5b505af11580156102ee573d6000803e3d6000fd5b505050505b60008054604080517f06ab592300000000000000000000000000000000000000000000000000000000815260048101859052602481018a9052600160a060020a038981166044830152915191909216926306ab5923926064808201939182900301818387803b15801561036557600080fd5b505af1158015610379573d6000803e3d6000fd5b5050505050505050505050565b600254600160a060020a0316331461039d57600080fd5b60008054600154604080517f5b0fc9c30000000000000000000000000000000000000000000000000000000081526004810192909252600160a060020a0385811660248401529051921692635b0fc9c39260448084019382900301818387803b15801561040957600080fd5b505af115801561041d573d6000803e3d6000fd5b5050505050565b600254600160a060020a0316331461043b57600080fd5b6040805182815290517f605240421d81df87774330aa7cdf00a0fec56b9d5fcebb6e4a8b6b16b47bed619181900360200190a16000908152600460205260409020805460ff19169055565b600354600160a060020a031690565b600254600160a060020a031633146104ac57600080fd5b6040805182815290517f4f0d6f35a89a102a4be09df1c7bd77857a876691898505835bc8791e414149439181900360200190a16000908152600460205260409020805460ff19166001179055565b600354604080517fbd29dec00000000000000000000000000000000000000000000000000000000081526004810184905290516000928392600160a060020a039091169163bd29dec091602480820192602092909190829003018186803b15801561056457600080fd5b505afa158015610578573d6000803e3d6000fd5b505050506040513d602081101561058e57600080fd5b50519050600080805b838110156108c557600354604080517f0196d78d000000000000000000000000000000000000000000000000000000008152600481018990526000198488030160248201529051600160a060020a0390921691630196d78d91604480820192602092909190829003018186803b15801561061057600080fd5b505afa158015610624573d6000803e3d6000fd5b505050506040513d602081101561063a57600080fd5b5051600354604080517f6d6f398e000000000000000000000000000000000000000000000000000000008152600481018490529051929550600160a060020a0390911691636d6f398e91602480820192602092909190829003018186803b1580156106a457600080fd5b505afa1580156106b8573d6000803e3d6000fd5b505050506040513d60208110156106ce57600080fd5b505160008181526004602052604090205490925060ff1680156107805750600354604080517fb841f2b2000000000000000000000000000000000000000000000000000000008152600481018590529051600160a060020a039092169163b841f2b291602480820192602092909190829003018186803b15801561075157600080fd5b505afa158015610765573d6000803e3d6000fd5b505050506040513d602081101561077b57600080fd5b505142105b801561081b5750600354604080517fb841f2b2000000000000000000000000000000000000000000000000000000008152600481018690529051600160a060020a039092169163b841f2b291602480820192602092909190829003018186803b1580156107ec57600080fd5b505afa158015610800573d6000803e3d6000fd5b505050506040513d602081101561081657600080fd5b505142105b156108bd57600354604080517f02571be3000000000000000000000000000000000000000000000000000000008152600481018690529051600160a060020a03909216916302571be391602480820192602092909190829003018186803b15801561088557600080fd5b505afa158015610899573d6000803e3d6000fd5b505050506040513d60208110156108af57600080fd5b505194506108ce9350505050565b600101610597565b50600093505050505b91905056fea165627a7a72305820c9c83a590535153740f959b41d7a17ca9934fc817ab9ae475d16a9307ea22df60029",
  "source": "pragma solidity ^0.5.2;\n\nimport \"./IDNSRegistrar.sol\";\nimport \"@ensdomains/ens/contracts/ENS.sol\";\nimport \"x509-forest-of-trust/contracts/X509ForestOfTrust.sol\";\n\n/**\n * @title A registrar that allocates subdomains to their DNS owners.\n * @author Jonah Groendal\n */\ncontract DNSRegistrar is IDNSRegistrar {\n    ENS ens;\n    bytes32 rootNode;\n    address admin;\n    X509ForestOfTrust x509;\n    // certId => isTrusted\n    mapping(bytes32 => bool) isTrustedCert;\n\n    modifier only_cert_owner(bytes32 tld, bytes32 domain) {\n        // namehash of domain.tld\n        bytes32 node = keccak256(abi.encodePacked(keccak256(abi.encodePacked(bytes32(0), tld)), domain));\n        require(certOwner(node) == msg.sender);\n        _;\n    }\n    modifier only_admin() {\n        require(admin == msg.sender);\n        _;\n    }\n\n    /**\n     * Constructor.\n     * @param _ens The address of the ENS registry.\n     * @param _rootNode The node that this registrar administers.\n     * @param _x509 The address of X509ForestOfTrust, a data structre of validated certs.\n     */\n    constructor(bytes32 _rootNode, address _ens, address _x509) public {\n        rootNode = _rootNode;\n        ens = ENS(_ens);\n        x509 = X509ForestOfTrust(_x509);\n        admin = msg.sender;\n    }\n\n    /**\n     * @dev Register a web2 domain that you have proven ownership of in X509ForestOfTrust.\n     * @param tld The hash of the top-level label of the domain (e.g. \"org\").\n     * @param domain The hash of the second-level label of the domain (e.g. \"wikipedia\")\n     * @param owner The address of the new owner.\n     */\n    function register(bytes32 tld, bytes32 domain, address owner) external only_cert_owner(tld, domain) {\n        bytes32 tldNode = keccak256(abi.encodePacked(rootNode, tld));\n        if (ens.owner(tldNode) != address(this))\n          ens.setSubnodeOwner(rootNode, tld, address(this));\n        ens.setSubnodeOwner(tldNode, domain, owner);\n    }\n\n    /**\n     * @return The address of the X509ForestOfTrust contract\n     */\n    function x509ForestOfTrustAddr() external view returns (address) {\n      return address(x509);\n    }\n\n    /**\n     * @dev Gets the owner of the most recently added valid cert that's signed\n     * @dev by a trusted and valid root or intermediate cert.\n     * @param node The namehash of a DNS domain name\n     */\n    function certOwner(bytes32 node) internal view returns (address) {\n        uint len = x509.toCertIdsLength(node);\n        bytes32 certId; bytes32 rootId;\n        for (uint i; i<len; i++) {\n            certId = x509.toCertIds(node, len-i-1);\n            rootId = x509.rootOf(certId);\n            if (isTrustedCert[rootId]\n                && now < x509.validNotAfter(rootId)\n                && now < x509.validNotAfter(certId))\n            {\n                return x509.owner(certId);\n            }\n        }\n        return address(0);\n    }\n\n    /**\n     * @dev Add a trusted root cert (from a trustworthy certificate authority)\n     * @param certId The keccak256 hash of the cert's public key\n     */\n    function addTrustAnchor(bytes32 certId) external only_admin {\n        emit TrustAnchorAdded(certId);\n        isTrustedCert[certId] = true;\n    }\n\n    /**\n     * @dev Remove a trusted root cert\n     * @param certId The keccak256 hash of the cert's public key\n     */\n    function removeTrustAnchor(bytes32 certId) external only_admin {\n        emit TrustAnchorRemoved(certId);\n        isTrustedCert[certId] = false;\n    }\n\n    /**\n     * @dev End this contract's ownership of rootNode\n     * @param newOwner The address to transfer ownership to\n     */\n    function setRootNodeOwner(address newOwner) external only_admin {\n        ens.setOwner(rootNode, newOwner);\n    }\n}\n",
  "sourcePath": "/home/jonah/dns-on-ens/contracts/DNSRegistrar.sol",
  "compiler": {
    "name": "solc",
    "version": "0.5.2+commit.1df8f40c.Emscripten.clang"
  },
  "schemaVersion": "3.0.6",
  "updatedAt": "2019-05-06T01:42:17.261Z",
  "devdoc": {
    "author": "Jonah Groendal",
    "methods": {
      "addTrustAnchor(bytes32)": {
        "details": "Add a trusted root cert (from a trustworthy certificate authority)",
        "params": {
          "certId": "The keccak256 hash of the cert's public key"
        }
      },
      "constructor": {
        "params": {
          "_ens": "The address of the ENS registry.",
          "_rootNode": "The node that this registrar administers.",
          "_x509": "The address of X509ForestOfTrust, a data structre of validated certs."
        }
      },
      "register(bytes32,bytes32,address)": {
        "details": "Register a web2 domain that you have proven ownership of in X509ForestOfTrust.",
        "params": {
          "domain": "The hash of the second-level label of the domain (e.g. \"wikipedia\")",
          "owner": "The address of the new owner.",
          "tld": "The hash of the top-level label of the domain (e.g. \"org\")."
        }
      },
      "removeTrustAnchor(bytes32)": {
        "details": "Remove a trusted root cert",
        "params": {
          "certId": "The keccak256 hash of the cert's public key"
        }
      },
      "setRootNodeOwner(address)": {
        "details": "End this contract's ownership of rootNode",
        "params": {
          "newOwner": "The address to transfer ownership to"
        }
      },
      "x509ForestOfTrustAddr()": {
        "return": "The address of the X509ForestOfTrust contract"
      }
    },
    "title": "A registrar that allocates subdomains to their DNS owners."
  },
  "userdoc": {
    "methods": {
      "constructor": "Constructor."
    }
  }
}