{
  "contractName": "DNSRegistrar",
  "abi": [
    {
      "inputs": [
        {
          "name": "_ens",
          "type": "address"
        },
        {
          "name": "_rootNode",
          "type": "bytes32"
        },
        {
          "name": "_x509",
          "type": "address"
        }
      ],
      "payable": false,
      "stateMutability": "nonpayable",
      "type": "constructor"
    },
    {
      "anonymous": false,
      "inputs": [
        {
          "indexed": false,
          "name": "",
          "type": "bytes32"
        }
      ],
      "name": "TrustAnchorAdded",
      "type": "event"
    },
    {
      "anonymous": false,
      "inputs": [
        {
          "indexed": false,
          "name": "",
          "type": "bytes32"
        }
      ],
      "name": "TrustAnchorRemoved",
      "type": "event"
    },
    {
      "constant": false,
      "inputs": [
        {
          "name": "tld",
          "type": "bytes32"
        },
        {
          "name": "domain",
          "type": "bytes32"
        },
        {
          "name": "owner",
          "type": "address"
        }
      ],
      "name": "register",
      "outputs": [],
      "payable": false,
      "stateMutability": "nonpayable",
      "type": "function"
    },
    {
      "constant": true,
      "inputs": [],
      "name": "x509ForestOfTrustAddr",
      "outputs": [
        {
          "name": "",
          "type": "address"
        }
      ],
      "payable": false,
      "stateMutability": "view",
      "type": "function"
    },
    {
      "constant": false,
      "inputs": [
        {
          "name": "certId",
          "type": "bytes32"
        }
      ],
      "name": "addTrustAnchor",
      "outputs": [],
      "payable": false,
      "stateMutability": "nonpayable",
      "type": "function"
    },
    {
      "constant": false,
      "inputs": [
        {
          "name": "certId",
          "type": "bytes32"
        }
      ],
      "name": "removeTrustAnchor",
      "outputs": [],
      "payable": false,
      "stateMutability": "nonpayable",
      "type": "function"
    },
    {
      "constant": false,
      "inputs": [
        {
          "name": "newOwner",
          "type": "address"
        }
      ],
      "name": "setRootNodeOwner",
      "outputs": [],
      "payable": false,
      "stateMutability": "nonpayable",
      "type": "function"
    }
  ],
  "bytecode": "0x608060405234801561001057600080fd5b506040516060806109738339810180604052606081101561003057600080fd5b508051602082015160409092015160008054600160a060020a03938416600160a060020a031991821617909155600380549390921692811692909217905560019190915560028054909116331790556108e58061008e6000396000f3fe608060405234801561001057600080fd5b5060043610610073577c0100000000000000000000000000000000000000000000000000000000600035046315d7bf448114610078578063c0dbd6a1146100ac578063d631e016146100d2578063d95892a7146100ef578063e90fded514610113575b600080fd5b6100aa6004803603606081101561008e57600080fd5b5080359060208101359060400135600160a060020a0316610130565b005b6100aa600480360360208110156100c257600080fd5b5035600160a060020a031661036c565b6100aa600480360360208110156100e857600080fd5b503561040a565b6100f761046c565b60408051600160a060020a039092168252519081900360200190f35b6100aa6004803603602081101561012957600080fd5b503561047b565b828233600160a060020a031661017383836040516020018083815260200182815260200192505050604051602081830303815290604052805190602001206104e0565b600160a060020a03161461018657600080fd5b60015460408051602080820193909352808201889052815180820383018152606082018084528151918501919091206000547f02571be30000000000000000000000000000000000000000000000000000000090925260648301819052925192933093600160a060020a03909216926302571be39260848083019392829003018186803b15801561021657600080fd5b505afa15801561022a573d6000803e3d6000fd5b505050506040513d602081101561024057600080fd5b5051600160a060020a0316146102da5760008054600154604080517f06ab59230000000000000000000000000000000000000000000000000000000081526004810192909252602482018a905230604483015251600160a060020a03909216926306ab59239260648084019382900301818387803b1580156102c157600080fd5b505af11580156102d5573d6000803e3d6000fd5b505050505b60008054604080517f06ab59230000000000000000000000000000000000000000000000000000000081526004810185905260248101899052600160a060020a038881166044830152915191909216926306ab5923926064808201939182900301818387803b15801561034c57600080fd5b505af1158015610360573d6000803e3d6000fd5b50505050505050505050565b600254600160a060020a0316331461038357600080fd5b60008054600154604080517f5b0fc9c30000000000000000000000000000000000000000000000000000000081526004810192909252600160a060020a0385811660248401529051921692635b0fc9c39260448084019382900301818387803b1580156103ef57600080fd5b505af1158015610403573d6000803e3d6000fd5b5050505050565b600254600160a060020a0316331461042157600080fd5b6040805182815290517f605240421d81df87774330aa7cdf00a0fec56b9d5fcebb6e4a8b6b16b47bed619181900360200190a16000908152600460205260409020805460ff19169055565b600354600160a060020a031690565b600254600160a060020a0316331461049257600080fd5b6040805182815290517f4f0d6f35a89a102a4be09df1c7bd77857a876691898505835bc8791e414149439181900360200190a16000908152600460205260409020805460ff19166001179055565b600354604080517fbd29dec00000000000000000000000000000000000000000000000000000000081526004810184905290516000928392600160a060020a039091169163bd29dec091602480820192602092909190829003018186803b15801561054a57600080fd5b505afa15801561055e573d6000803e3d6000fd5b505050506040513d602081101561057457600080fd5b50519050600080805b838110156108ab57600354604080517f0196d78d000000000000000000000000000000000000000000000000000000008152600481018990526000198488030160248201529051600160a060020a0390921691630196d78d91604480820192602092909190829003018186803b1580156105f657600080fd5b505afa15801561060a573d6000803e3d6000fd5b505050506040513d602081101561062057600080fd5b5051600354604080517f6d6f398e000000000000000000000000000000000000000000000000000000008152600481018490529051929550600160a060020a0390911691636d6f398e91602480820192602092909190829003018186803b15801561068a57600080fd5b505afa15801561069e573d6000803e3d6000fd5b505050506040513d60208110156106b457600080fd5b505160008181526004602052604090205490925060ff1680156107665750600354604080517fb841f2b2000000000000000000000000000000000000000000000000000000008152600481018590529051600160a060020a039092169163b841f2b291602480820192602092909190829003018186803b15801561073757600080fd5b505afa15801561074b573d6000803e3d6000fd5b505050506040513d602081101561076157600080fd5b505142105b80156108015750600354604080517fb841f2b2000000000000000000000000000000000000000000000000000000008152600481018690529051600160a060020a039092169163b841f2b291602480820192602092909190829003018186803b1580156107d257600080fd5b505afa1580156107e6573d6000803e3d6000fd5b505050506040513d60208110156107fc57600080fd5b505142105b156108a357600354604080517f02571be3000000000000000000000000000000000000000000000000000000008152600481018690529051600160a060020a03909216916302571be391602480820192602092909190829003018186803b15801561086b57600080fd5b505afa15801561087f573d6000803e3d6000fd5b505050506040513d602081101561089557600080fd5b505194506108b49350505050565b60010161057d565b50600093505050505b91905056fea165627a7a72305820c7434fe99603052c098a92cc7dde551848d5a0781310c2def95464d525ccff9e0029",
  "source": "pragma solidity ^0.5.2;\n\nimport \"./IDNSRegistrar.sol\";\nimport \"@ensdomains/ens/contracts/ENS.sol\";\nimport \"x509-forest-of-trust/contracts/X509ForestOfTrust.sol\";\n\n/**\n * @title A registrar that allocates subdomains to their DNS owners.\n * @author Jonah Groendal\n */\ncontract DNSRegistrar is IDNSRegistrar{\n    ENS ens;\n    bytes32 rootNode;\n    address admin;\n    X509ForestOfTrust x509;\n    // certId => isTrusted\n    mapping(bytes32 => bool) isTrustedCert;\n\n    modifier only_cert_owner(bytes32 tld, bytes32 domain) {\n        require(certOwner(keccak256(abi.encodePacked(tld, domain))) == msg.sender);\n        _;\n    }\n    modifier only_admin() {\n        require(admin == msg.sender);\n        _;\n    }\n\n    /**\n     * Constructor.\n     * @param _ens The address of the ENS registry.\n     * @param _rootNode The node that this registrar administers.\n     * @param _x509 The address of X509ForestOfTrust, a data structre of validated certs.\n     */\n    constructor(address _ens, bytes32 _rootNode, address _x509) public {\n        ens = ENS(_ens);\n        x509 = X509ForestOfTrust(_x509);\n        rootNode = _rootNode;\n        admin = msg.sender;\n    }\n\n    /**\n     * @dev Register a web2 domain that you have proven ownership of in X509ForestOfTrust.\n     * @param tld The hash of the top-level label of the domain (e.g. \"org\").\n     * @param domain The hash of the second-level label of the domain (e.g. \"wikipedia\")\n     * @param owner The address of the new owner.\n     */\n    function register(bytes32 tld, bytes32 domain, address owner) external only_cert_owner(tld, domain) {\n        bytes32 tldNode = keccak256(abi.encodePacked(rootNode, tld));\n        if (ens.owner(tldNode) != address(this))\n          ens.setSubnodeOwner(rootNode, tld, address(this));\n        ens.setSubnodeOwner(tldNode, domain, owner);\n    }\n\n    /**\n     * @return The address of the X509ForestOfTrust contract\n     */\n    function x509ForestOfTrustAddr() external view returns (address) {\n      return address(x509);\n    }\n\n    /**\n     * @dev Gets the owner of the most recently added valid cert that's signed\n     * @dev by a trusted and valid root or intermediate cert.\n     * @param node The namehash of a DNS domain name\n     */\n    function certOwner(bytes32 node) internal view returns (address) {\n        uint len = x509.toCertIdsLength(node);\n        bytes32 certId; bytes32 rootId;\n        for (uint i; i<len; i++) {\n            certId = x509.toCertIds(node, len-i-1);\n            rootId = x509.rootOf(certId);\n            if (isTrustedCert[rootId]\n                && now < x509.validNotAfter(rootId)\n                && now < x509.validNotAfter(certId))\n            {\n                return x509.owner(certId);\n            }\n        }\n        return address(0);\n    }\n\n    /**\n     * @dev Add a trusted root cert (from a trustworthy certificate authority)\n     * @param certId The keccak256 hash of the cert's public key\n     */\n    function addTrustAnchor(bytes32 certId) external only_admin {\n        emit TrustAnchorAdded(certId);\n        isTrustedCert[certId] = true;\n    }\n\n    /**\n     * @dev Remove a trusted root cert\n     * @param certId The keccak256 hash of the cert's public key\n     */\n    function removeTrustAnchor(bytes32 certId) external only_admin {\n        emit TrustAnchorRemoved(certId);\n        isTrustedCert[certId] = false;\n    }\n\n    /**\n     * @dev End this contract's ownership of rootNode\n     * @param newOwner The address to transfer ownership to\n     */\n    function setRootNodeOwner(address newOwner) external only_admin {\n        ens.setOwner(rootNode, newOwner);\n    }\n}\n",
  "sourcePath": "/home/jonah/dns-on-ens/contracts/DNSRegistrar.sol",
  "compiler": {
    "name": "solc",
    "version": "0.5.2+commit.1df8f40c.Emscripten.clang"
  },
  "schemaVersion": "3.0.6",
  "updatedAt": "2019-04-22T20:10:24.819Z",
  "devdoc": {
    "author": "Jonah Groendal",
    "methods": {
      "addTrustAnchor(bytes32)": {
        "details": "Add a trusted root cert (from a trustworthy certificate authority)",
        "params": {
          "certId": "The keccak256 hash of the cert's public key"
        }
      },
      "constructor": {
        "params": {
          "_ens": "The address of the ENS registry.",
          "_rootNode": "The node that this registrar administers.",
          "_x509": "The address of X509ForestOfTrust, a data structre of validated certs."
        }
      },
      "register(bytes32,bytes32,address)": {
        "details": "Register a web2 domain that you have proven ownership of in X509ForestOfTrust.",
        "params": {
          "domain": "The hash of the second-level label of the domain (e.g. \"wikipedia\")",
          "owner": "The address of the new owner.",
          "tld": "The hash of the top-level label of the domain (e.g. \"org\")."
        }
      },
      "removeTrustAnchor(bytes32)": {
        "details": "Remove a trusted root cert",
        "params": {
          "certId": "The keccak256 hash of the cert's public key"
        }
      },
      "setRootNodeOwner(address)": {
        "details": "End this contract's ownership of rootNode",
        "params": {
          "newOwner": "The address to transfer ownership to"
        }
      },
      "x509ForestOfTrustAddr()": {
        "return": "The address of the X509ForestOfTrust contract"
      }
    },
    "title": "A registrar that allocates subdomains to their DNS owners."
  },
  "userdoc": {
    "methods": {
      "constructor": "Constructor."
    }
  }
}