{
  "contractName": "DNSRegistrar",
  "abi": [
    {
      "inputs": [
        {
          "name": "_rootNode",
          "type": "bytes32"
        },
        {
          "name": "_ens",
          "type": "address"
        },
        {
          "name": "_x509",
          "type": "address"
        },
        {
          "name": "_maxCertAge",
          "type": "uint40"
        },
        {
          "name": "_minNumCerts",
          "type": "uint40"
        }
      ],
      "payable": false,
      "stateMutability": "nonpayable",
      "type": "constructor"
    },
    {
      "anonymous": false,
      "inputs": [
        {
          "indexed": false,
          "name": "",
          "type": "bytes32"
        },
        {
          "indexed": false,
          "name": "",
          "type": "address"
        }
      ],
      "name": "DomainRegistered",
      "type": "event"
    },
    {
      "anonymous": false,
      "inputs": [
        {
          "indexed": false,
          "name": "",
          "type": "bytes32"
        }
      ],
      "name": "TrustAnchorAdded",
      "type": "event"
    },
    {
      "anonymous": false,
      "inputs": [
        {
          "indexed": false,
          "name": "",
          "type": "bytes32"
        }
      ],
      "name": "TrustAnchorRemoved",
      "type": "event"
    },
    {
      "anonymous": false,
      "inputs": [
        {
          "indexed": false,
          "name": "",
          "type": "uint40"
        }
      ],
      "name": "MaxCertAgeSet",
      "type": "event"
    },
    {
      "anonymous": false,
      "inputs": [
        {
          "indexed": false,
          "name": "",
          "type": "uint40"
        }
      ],
      "name": "MinNumCertsSet",
      "type": "event"
    },
    {
      "constant": false,
      "inputs": [
        {
          "name": "tld",
          "type": "bytes32"
        },
        {
          "name": "domain",
          "type": "bytes32"
        },
        {
          "name": "owner",
          "type": "address"
        }
      ],
      "name": "register",
      "outputs": [],
      "payable": false,
      "stateMutability": "nonpayable",
      "type": "function"
    },
    {
      "constant": true,
      "inputs": [
        {
          "name": "node",
          "type": "bytes32"
        },
        {
          "name": "account",
          "type": "address"
        }
      ],
      "name": "isDomainOwner",
      "outputs": [
        {
          "name": "",
          "type": "bool"
        }
      ],
      "payable": false,
      "stateMutability": "view",
      "type": "function"
    },
    {
      "constant": false,
      "inputs": [
        {
          "name": "certId",
          "type": "bytes32"
        }
      ],
      "name": "addTrustAnchor",
      "outputs": [],
      "payable": false,
      "stateMutability": "nonpayable",
      "type": "function"
    },
    {
      "constant": false,
      "inputs": [
        {
          "name": "certId",
          "type": "bytes32"
        }
      ],
      "name": "removeTrustAnchor",
      "outputs": [],
      "payable": false,
      "stateMutability": "nonpayable",
      "type": "function"
    },
    {
      "constant": false,
      "inputs": [
        {
          "name": "_maxCertAge",
          "type": "uint40"
        }
      ],
      "name": "setMaxCertAge",
      "outputs": [],
      "payable": false,
      "stateMutability": "nonpayable",
      "type": "function"
    },
    {
      "constant": false,
      "inputs": [
        {
          "name": "_minNumCerts",
          "type": "uint40"
        }
      ],
      "name": "setMinNumCerts",
      "outputs": [],
      "payable": false,
      "stateMutability": "nonpayable",
      "type": "function"
    },
    {
      "constant": false,
      "inputs": [
        {
          "name": "newOwner",
          "type": "address"
        }
      ],
      "name": "setRootNodeOwner",
      "outputs": [],
      "payable": false,
      "stateMutability": "nonpayable",
      "type": "function"
    }
  ],
  "bytecode": "0x608060405234801561001057600080fd5b5060405160a0806111a6833981018060405260a081101561003057600080fd5b50805160208201516040830151606084015160809094015160019390935560008054600160a060020a03938416600160a060020a031991821617909155600380549390921692811692909217905560028054909116331790556005805464ffffffffff928316650100000000000269ffffffffff0000000000199390941664ffffffffff1990911617919091169190911790556110d4806100d26000396000f3fe608060405234801561001057600080fd5b506004361061009a576000357c0100000000000000000000000000000000000000000000000000000000900480638e737f99116100785780638e737f9914610137578063c0dbd6a11461015b578063d631e01614610181578063e90fded51461019e5761009a565b806315d7bf441461009f5780635fe89f69146100d35780638023597e146100f7575b600080fd5b6100d1600480360360608110156100b557600080fd5b5080359060208101359060400135600160a060020a03166101bb565b005b6100d1600480360360208110156100e957600080fd5b503564ffffffffff166104b9565b6101236004803603604081101561010d57600080fd5b5080359060200135600160a060020a031661056f565b604080519115158252519081900360200190f35b6100d16004803603602081101561014d57600080fd5b503564ffffffffff16610a22565b6100d16004803603602081101561017157600080fd5b5035600160a060020a0316610aca565b6100d16004803603602081101561019757600080fd5b5035610ba1565b6100d1600480360360208110156101b457600080fd5b5035610c3c565b604080516000602080830191909152818301869052825180830384018152606083018452805190820120608083015260a08083018690528351808403909101815260c0909201909252805191012083908390610217813361056f565b151561026d576040805160e560020a62461bcd02815260206004820152601160248201527f4f6e6c7920646f6d61696e206f776e6572000000000000000000000000000000604482015290519081900360640190fd5b600154604080516020808201939093528082018990528151808203830181526060820183528051908401206080820181905260a08083018a90528351808403909101815260c0830180855281519190950120909352600160a060020a03871660e082015290517f36b4ddcd936bde36e8dfe4d8502a76b6b97563bf30625db151f073e341731285918190036101000190a1600054604080517f02571be30000000000000000000000000000000000000000000000000000000081526004810184905290513092600160a060020a0316916302571be3916024808301926020929190829003018186803b15801561036257600080fd5b505afa158015610376573d6000803e3d6000fd5b505050506040513d602081101561038c57600080fd5b5051600160a060020a0316146104265760008054600154604080517f06ab59230000000000000000000000000000000000000000000000000000000081526004810192909252602482018b905230604483015251600160a060020a03909216926306ab59239260648084019382900301818387803b15801561040d57600080fd5b505af1158015610421573d6000803e3d6000fd5b505050505b60008054604080517f06ab592300000000000000000000000000000000000000000000000000000000815260048101859052602481018a9052600160a060020a038981166044830152915191909216926306ab5923926064808201939182900301818387803b15801561049857600080fd5b505af11580156104ac573d6000803e3d6000fd5b5050505050505050505050565b600254600160a060020a03163314610509576040805160e560020a62461bcd02815260206004820152600a6024820152600080516020611089833981519152604482015290519081900360640190fd5b6040805164ffffffffff8316815290517fe5f9b2e32eb87a02ecd34abab2dd1ad3d7ec588114a9eeb40664948040e0bb579181900360200190a16005805464ffffffffff909216650100000000000269ffffffffff000000000019909216919091179055565b600080600080600060606005809054906101000a900464ffffffffff1664ffffffffff166040519080825280602002602001820160405280156105bc578160200160208202803883390190505b50600354604080517fbd29dec0000000000000000000000000000000000000000000000000000000008152600481018c905290519293506000928392600160a060020a03169163bd29dec0916024808301926020929190829003018186803b15801561062757600080fd5b505afa15801561063b573d6000803e3d6000fd5b505050506040513d602081101561065157600080fd5b505190506000805b828263ffffffff1610156109df57600354604080517f0196d78d000000000000000000000000000000000000000000000000000000008152600481018f905260001963ffffffff861687030160248201529051600160a060020a0390921691630196d78d91604480820192602092909190829003018186803b1580156106de57600080fd5b505afa1580156106f2573d6000803e3d6000fd5b505050506040513d602081101561070857600080fd5b5051600554600354604080517f4d003070000000000000000000000000000000000000000000000000000000008152600481018590529051939b5064ffffffffff90921692600160a060020a0390911691634d003070916024808301926020929190829003018186803b15801561077e57600080fd5b505afa158015610792573d6000803e3d6000fd5b505050506040513d60208110156107a857600080fd5b505164ffffffffff16420311156107be576109df565b6107c788610cda565b156109d457600354604080517f6d6f398e000000000000000000000000000000000000000000000000000000008152600481018b90529051600160a060020a0390921691636d6f398e91602480820192602092909190829003018186803b15801561083157600080fd5b505afa158015610845573d6000803e3d6000fd5b505050506040513d602081101561085b57600080fd5b505160008181526004602052604090205490975060ff16156109d457600354604080517f02571be3000000000000000000000000000000000000000000000000000000008152600481018b90529051600160a060020a03909216916302571be391602480820192602092909190829003018186803b1580156108dc57600080fd5b505afa1580156108f0573d6000803e3d6000fd5b505050506040513d602081101561090657600080fd5b50519850600160a060020a03808a16908c1614156109b35784518461ffff1610156109ae575060009450845b8360010161ffff168163ffffffff1610801561094c575085155b156109835786858263ffffffff1681518110151561096657fe5b90602001906020020151141561097b57600195505b600101610932565b8515156109ae5786858561ffff1681518110151561099d57fe5b602090810290910101526001909301925b6109d4565b600160a060020a038916156109d45760009950505050505050505050610a1c565b600190910190610659565b60055465010000000000900464ffffffffff1661ffff851610610a0e5760019950505050505050505050610a1c565b600099505050505050505050505b92915050565b600254600160a060020a03163314610a72576040805160e560020a62461bcd02815260206004820152600a6024820152600080516020611089833981519152604482015290519081900360640190fd5b6040805164ffffffffff8316815290517f6e449c03a73dd1e735628b38561c8188af5f25c2ee595e7a8fff2c1205b7288f9181900360200190a16005805464ffffffffff191664ffffffffff92909216919091179055565b600254600160a060020a03163314610b1a576040805160e560020a62461bcd02815260206004820152600a6024820152600080516020611089833981519152604482015290519081900360640190fd5b60008054600154604080517f5b0fc9c30000000000000000000000000000000000000000000000000000000081526004810192909252600160a060020a0385811660248401529051921692635b0fc9c39260448084019382900301818387803b158015610b8657600080fd5b505af1158015610b9a573d6000803e3d6000fd5b5050505050565b600254600160a060020a03163314610bf1576040805160e560020a62461bcd02815260206004820152600a6024820152600080516020611089833981519152604482015290519081900360640190fd5b6040805182815290517f605240421d81df87774330aa7cdf00a0fec56b9d5fcebb6e4a8b6b16b47bed619181900360200190a16000908152600460205260409020805460ff19169055565b600254600160a060020a03163314610c8c576040805160e560020a62461bcd02815260206004820152600a6024820152600080516020611089833981519152604482015290519081900360640190fd5b6040805182815290517f4f0d6f35a89a102a4be09df1c7bd77857a876691898505835bc8791e414149439181900360200190a16000908152600460205260409020805460ff19166001179055565b600080610ce5611068565b600354604080517fb841f2b2000000000000000000000000000000000000000000000000000000008152600481018790529051600160a060020a039092169163b841f2b291602480820192602092909190829003018186803b158015610d4a57600080fd5b505afa158015610d5e573d6000803e3d6000fd5b505050506040513d6020811015610d7457600080fd5b505164ffffffffff16421115610d8f57600092505050611063565b600554600354604080517f1793204600000000000000000000000000000000000000000000000000000000815260048101889052905164ffffffffff90931692600160a060020a0390921691631793204691602480820192602092909190829003018186803b158015610e0157600080fd5b505afa158015610e15573d6000803e3d6000fd5b505050506040513d6020811015610e2b57600080fd5b505164ffffffffff1642031115610e4757600092505050611063565b600354604080517ff6cc6815000000000000000000000000000000000000000000000000000000008152600481018790529051600160a060020a039092169163f6cc68159160248082019261014092909190829003018186803b158015610ead57600080fd5b505afa158015610ec1573d6000803e3d6000fd5b505050506040513d601f19601f82011682018060405250610140811015610ee757600080fd5b50805192506020019050818015610efc575080515b8015610f09575060408101515b1515610f1a57600092505050611063565b600354604080517f885ffae1000000000000000000000000000000000000000000000000000000008152600481018790529051600160a060020a039092169163885ffae191602480820192602092909190829003018186803b158015610f7f57600080fd5b505afa158015610f93573d6000803e3d6000fd5b505050506040513d6020811015610fa957600080fd5b505115610fbb57600092505050611063565b600354604080517fd6be188c000000000000000000000000000000000000000000000000000000008152600481018790529051600160a060020a039092169163d6be188c91602480820192602092909190829003018186803b15801561102057600080fd5b505afa158015611034573d6000803e3d6000fd5b505050506040513d602081101561104a57600080fd5b50511561105c57600092505050611063565b6001925050505b919050565b61012060405190810160405280600990602082028038833950919291505056fe4f6e6c792061646d696e00000000000000000000000000000000000000000000a165627a7a7230582033c3bfbec98698915a47b53f301d2b15dd96dd93ad4adff923a25e25d271e3fa0029",
  "source": "pragma solidity ^0.5.2;\n\nimport \"./IDNSRegistrar.sol\";\nimport \"@ensdomains/ens/contracts/ENSRegistry.sol\";\nimport \"x509-forest-of-trust/contracts/X509ForestOfTrust.sol\";\n\n/**\n * @title A registrar that allocates subdomains to their DNS owners.\n * @author Jonah Groendal\n */\ncontract DNSRegistrar is IDNSRegistrar {\n    ENSRegistry ens;\n    bytes32 rootNode;\n    address admin;\n    X509ForestOfTrust x509;\n    // certId => isTrusted\n    mapping(bytes32 => bool) isTrustedCert;\n    // A leaf cert must not have been issued more than this number of seconds ago\n    uint40 maxCertAge;\n    // The Minimum number of certificates an account must hold to be the owner of a domain\n    // This is used to decentralize trust and protect against rogue CAs\n    // Each cert must be signed by a unique authority\n    uint40 minNumCerts;\n\n    modifier only_domain_owner(bytes32 tld, bytes32 domain) {\n        // namehash of domain.tld\n        bytes32 node = keccak256(abi.encodePacked(keccak256(abi.encodePacked(bytes32(0), tld)), domain));\n        require(isDomainOwner(node, msg.sender), \"Only domain owner\");\n        _;\n    }\n    modifier only_admin() {\n        require(admin == msg.sender, \"Only admin\");\n        _;\n    }\n\n    /**\n     * Constructor.\n     * @param _ens The address of the ENS registry.\n     * @param _rootNode The node that this registrar administers.\n     * @param _x509 The address of X509ForestOfTrust, a data structre of validated certs.\n     */\n    constructor(bytes32 _rootNode, address _ens, address _x509, uint40 _maxCertAge, uint40 _minNumCerts) public {\n        rootNode = _rootNode;\n        ens = ENSRegistry(_ens);\n        x509 = X509ForestOfTrust(_x509);\n        admin = msg.sender;\n        maxCertAge = _maxCertAge;\n        minNumCerts = _minNumCerts;\n    }\n\n    /**\n     * @dev Register a web2 domain that you have proven ownership of in X509ForestOfTrust.\n     * @param tld The hash of the top-level label of the domain (e.g. \"org\").\n     * @param domain The hash of the second-level label of the domain (e.g. \"wikipedia\")\n     * @param owner The address of the new owner.\n     */\n    function register(bytes32 tld, bytes32 domain, address owner) external only_domain_owner(tld, domain) {\n      bytes32 tldNode = keccak256(abi.encodePacked(rootNode, tld));\n      emit DomainRegistered(keccak256(abi.encodePacked(tldNode, domain)), owner);\n      if (ens.owner(tldNode) != address(this))\n        ens.setSubnodeOwner(rootNode, tld, address(this));\n      ens.setSubnodeOwner(tldNode, domain, owner);\n    }\n\n    /**\n     * @param node The ENS namehash of the domain in question. (i.e. namehash(\"domain.tld\"))\n     * @param account The address that we are verifying is the domain owner.\n     * @return True iff enough certificates for this domain are owned by `account`\n     *          and none are owned by any other non-zero address.\n     */\n    function isDomainOwner(bytes32 node, address account) public view returns (bool) {\n      address certOwner;\n      bytes32 certId;\n      bytes32 rootId;\n      bool alreadyCounted;\n      bytes32[] memory rootIds = new bytes32[](minNumCerts);\n      uint16 rootIdsIndex;\n      uint len = x509.toCertIdsLength(node);\n      uint32 i;\n      uint32 j;\n      // Look through all certificates that were added less than maxCertAge seconds ago\n      for (; i<len; i++) {\n        certId = x509.toCertIds(node, len-i-1);\n        if (block.timestamp - x509.timestamp(certId) > maxCertAge)\n          break;\n        if (isValidCert(certId)) {\n          rootId = x509.rootOf(certId);\n          if (isTrustedCert[rootId]) {\n            certOwner = x509.owner(certId);\n            if (certOwner == account) {\n              if (rootIdsIndex < rootIds.length) {\n                // A root cert must not be counted more than once\n                alreadyCounted = false;\n                for (j=0; j<rootIdsIndex+1 && !alreadyCounted; j++) {\n                  if (rootIds[j] == rootId)\n                    alreadyCounted = true;\n                }\n                if (!alreadyCounted) {\n                  rootIds[rootIdsIndex] = rootId;\n                  rootIdsIndex++;\n                }\n              }\n            }\n            // A different account owns a certificate for this domain\n            else if (certOwner != address(0)) {\n              return false;\n            }\n          }\n        }\n      }\n\n      if (rootIdsIndex >= minNumCerts)\n        return true;\n      return false;\n    }\n\n    /**\n     * @param certId The keccack256 hash of a certificate's DER-encoded public key\n     * @return True iff the certificate is valid\n     */\n    function isValidCert(bytes32 certId) internal view returns (bool) {\n      bool keyUsagePresent;\n      bool[9] memory keyUsageFlags;\n      // Must not be expired\n      if (!(block.timestamp <= x509.validNotAfter(certId)))\n        return false;\n      // Must not be older than maxCertAge\n      if(!(block.timestamp - x509.validNotBefore(certId) <= maxCertAge))\n        return false;\n      (keyUsagePresent, keyUsageFlags) = x509.keyUsage(certId);\n       // Digital Signature and Key Encipherment required\n      if (!(keyUsagePresent && keyUsageFlags[0] && keyUsageFlags[2]))\n        return false;\n      // extKeyUsage must not be critical\n      if (!(!x509.extKeyUsageCritical(certId)))\n        return false;\n      // There must be no unparsed critical extensions\n      if (!(!x509.unparsedCriticalExtensionPresent(certId)))\n        return false;\n\n      return true;\n    }\n\n    /**\n     * @dev Add a trusted root cert (from a trustworthy certificate authority)\n     * @param certId The keccak256 hash of the cert's public key\n     */\n    function addTrustAnchor(bytes32 certId) external only_admin {\n        emit TrustAnchorAdded(certId);\n        isTrustedCert[certId] = true;\n    }\n\n    /**\n     * @dev Remove a trusted root cert\n     * @param certId The keccak256 hash of the cert's public key\n     */\n    function removeTrustAnchor(bytes32 certId) external only_admin {\n        emit TrustAnchorRemoved(certId);\n        isTrustedCert[certId] = false;\n    }\n\n    function setMaxCertAge(uint40 _maxCertAge) external only_admin {\n      emit MaxCertAgeSet(_maxCertAge);\n      maxCertAge = _maxCertAge;\n    }\n\n    function setMinNumCerts(uint40 _minNumCerts) external only_admin {\n      emit MinNumCertsSet(_minNumCerts);\n      minNumCerts = _minNumCerts;\n    }\n\n    /**\n     * @dev End this contract's ownership of rootNode\n     * @param newOwner The address to transfer ownership to\n     */\n    function setRootNodeOwner(address newOwner) external only_admin {\n        ens.setOwner(rootNode, newOwner);\n    }\n}\n",
  "sourcePath": "/home/jonah/dns-on-ens/contracts/DNSRegistrar.sol",
  "compiler": {
    "name": "solc",
    "version": "0.5.2+commit.1df8f40c.Emscripten.clang"
  },
  "schemaVersion": "3.0.9",
  "updatedAt": "2019-06-17T01:50:56.846Z",
  "devdoc": {
    "author": "Jonah Groendal",
    "methods": {
      "addTrustAnchor(bytes32)": {
        "details": "Add a trusted root cert (from a trustworthy certificate authority)",
        "params": {
          "certId": "The keccak256 hash of the cert's public key"
        }
      },
      "constructor": {
        "params": {
          "_ens": "The address of the ENS registry.",
          "_rootNode": "The node that this registrar administers.",
          "_x509": "The address of X509ForestOfTrust, a data structre of validated certs."
        }
      },
      "isDomainOwner(bytes32,address)": {
        "params": {
          "account": "The address that we are verifying is the domain owner.",
          "node": "The ENS namehash of the domain in question. (i.e. namehash(\"domain.tld\"))"
        },
        "return": "True iff enough certificates for this domain are owned by `account`         and none are owned by any other non-zero address."
      },
      "register(bytes32,bytes32,address)": {
        "details": "Register a web2 domain that you have proven ownership of in X509ForestOfTrust.",
        "params": {
          "domain": "The hash of the second-level label of the domain (e.g. \"wikipedia\")",
          "owner": "The address of the new owner.",
          "tld": "The hash of the top-level label of the domain (e.g. \"org\")."
        }
      },
      "removeTrustAnchor(bytes32)": {
        "details": "Remove a trusted root cert",
        "params": {
          "certId": "The keccak256 hash of the cert's public key"
        }
      },
      "setRootNodeOwner(address)": {
        "details": "End this contract's ownership of rootNode",
        "params": {
          "newOwner": "The address to transfer ownership to"
        }
      }
    },
    "title": "A registrar that allocates subdomains to their DNS owners."
  },
  "userdoc": {
    "methods": {
      "constructor": "Constructor."
    }
  }
}