{
  "contractName": "DNSRegistrar",
  "abi": [
    {
      "inputs": [
        {
          "name": "_rootNode",
          "type": "bytes32"
        },
        {
          "name": "_ens",
          "type": "address"
        },
        {
          "name": "_x509",
          "type": "address"
        },
        {
          "name": "_maxCertAge",
          "type": "uint40"
        },
        {
          "name": "_minNumCerts",
          "type": "uint40"
        }
      ],
      "payable": false,
      "stateMutability": "nonpayable",
      "type": "constructor"
    },
    {
      "anonymous": false,
      "inputs": [
        {
          "indexed": false,
          "name": "",
          "type": "bytes32"
        },
        {
          "indexed": false,
          "name": "",
          "type": "address"
        }
      ],
      "name": "DomainRegistered",
      "type": "event"
    },
    {
      "anonymous": false,
      "inputs": [
        {
          "indexed": false,
          "name": "",
          "type": "bytes32"
        }
      ],
      "name": "TrustAnchorAdded",
      "type": "event"
    },
    {
      "anonymous": false,
      "inputs": [
        {
          "indexed": false,
          "name": "",
          "type": "bytes32"
        }
      ],
      "name": "TrustAnchorRemoved",
      "type": "event"
    },
    {
      "anonymous": false,
      "inputs": [
        {
          "indexed": false,
          "name": "",
          "type": "uint40"
        }
      ],
      "name": "MaxCertAgeSet",
      "type": "event"
    },
    {
      "anonymous": false,
      "inputs": [
        {
          "indexed": false,
          "name": "",
          "type": "uint40"
        }
      ],
      "name": "MinNumCertsSet",
      "type": "event"
    },
    {
      "constant": false,
      "inputs": [
        {
          "name": "tld",
          "type": "bytes32"
        },
        {
          "name": "domain",
          "type": "bytes32"
        },
        {
          "name": "owner",
          "type": "address"
        }
      ],
      "name": "register",
      "outputs": [],
      "payable": false,
      "stateMutability": "nonpayable",
      "type": "function"
    },
    {
      "constant": true,
      "inputs": [
        {
          "name": "node",
          "type": "bytes32"
        },
        {
          "name": "account",
          "type": "address"
        }
      ],
      "name": "isDomainOwner",
      "outputs": [
        {
          "name": "",
          "type": "bool"
        }
      ],
      "payable": false,
      "stateMutability": "view",
      "type": "function"
    },
    {
      "constant": false,
      "inputs": [
        {
          "name": "certId",
          "type": "bytes32"
        }
      ],
      "name": "addTrustAnchor",
      "outputs": [],
      "payable": false,
      "stateMutability": "nonpayable",
      "type": "function"
    },
    {
      "constant": false,
      "inputs": [
        {
          "name": "certId",
          "type": "bytes32"
        }
      ],
      "name": "removeTrustAnchor",
      "outputs": [],
      "payable": false,
      "stateMutability": "nonpayable",
      "type": "function"
    },
    {
      "constant": false,
      "inputs": [
        {
          "name": "_maxCertAge",
          "type": "uint40"
        }
      ],
      "name": "setMaxCertAge",
      "outputs": [],
      "payable": false,
      "stateMutability": "nonpayable",
      "type": "function"
    },
    {
      "constant": false,
      "inputs": [
        {
          "name": "_minNumCerts",
          "type": "uint40"
        }
      ],
      "name": "setMinNumCerts",
      "outputs": [],
      "payable": false,
      "stateMutability": "nonpayable",
      "type": "function"
    }
  ],
  "bytecode": "0x608060405234801561001057600080fd5b5060405160a08061156b833981018060405260a081101561003057600080fd5b50805160208201516040830151606084015160809094015160019390935560008054600160a060020a03938416600160a060020a031991821617909155600280549390921692169190911790556004805464ffffffffff928316650100000000000269ffffffffff0000000000199390941664ffffffffff1990911617919091169190911790556114a5806100c66000396000f3fe608060405234801561001057600080fd5b506004361061007e577c0100000000000000000000000000000000000000000000000000000000600035046315d7bf4481146100835780635fe89f69146100b75780638023597e146100db5780638e737f991461011b578063d631e0161461013f578063e90fded51461015c575b600080fd5b6100b56004803603606081101561009957600080fd5b5080359060208101359060400135600160a060020a0316610179565b005b6100b5600480360360208110156100cd57600080fd5b503564ffffffffff16610596565b610107600480360360408110156100f157600080fd5b5080359060200135600160a060020a03166106c5565b604080519115158252519081900360200190f35b6100b56004803603602081101561013157600080fd5b503564ffffffffff16610b6e565b6100b56004803603602081101561015557600080fd5b5035610c8f565b6100b56004803603602081101561017257600080fd5b5035610da3565b604080516000602080830191909152818301869052825180830384018152606083018452805190820120608083015260a08083018690528351808403909101815260c09092019092528051910120839083906101d581336106c5565b151561022b576040805160e560020a62461bcd02815260206004820152601160248201527f4f6e6c7920646f6d61696e206f776e6572000000000000000000000000000000604482015290519081900360640190fd5b600154604080516020808201939093528082018990528151808203830181526060820183528051908401206080820181905260a08083018a90528351808403909101815260c0830180855281519190950120909352600160a060020a03871660e082015290517f36b4ddcd936bde36e8dfe4d8502a76b6b97563bf30625db151f073e341731285918190036101000190a16000546001546040805160e060020a6302571be3028152600481019290925251600160a060020a03909216916302571be391602480820192602092909190829003018186803b15801561030e57600080fd5b505afa158015610322573d6000803e3d6000fd5b505050506040513d602081101561033857600080fd5b50516000546040805160e060020a6302571be3028152600481018590529051600160a060020a0393841693909216916302571be391602480820192602092909190829003018186803b15801561038d57600080fd5b505afa1580156103a1573d6000803e3d6000fd5b505050506040513d60208110156103b757600080fd5b5051600160a060020a0316146104e8576000546001546040805160e060020a6302571be3028152600481018390529051600160a060020a03909316926306ab592392918b9185916302571be3916024808301926020929190829003018186803b15801561042357600080fd5b505afa158015610437573d6000803e3d6000fd5b505050506040513d602081101561044d57600080fd5b5051604080517c010000000000000000000000000000000000000000000000000000000063ffffffff871602815260048101949094526024840192909252600160a060020a031660448301525160648083019260209291908290030181600087803b1580156104bb57600080fd5b505af11580156104cf573d6000803e3d6000fd5b505050506040513d60208110156104e557600080fd5b50505b60008054604080517f06ab592300000000000000000000000000000000000000000000000000000000815260048101859052602481018a9052600160a060020a038981166044830152915191909216926306ab592392606480820193602093909283900390910190829087803b15801561056157600080fd5b505af1158015610575573d6000803e3d6000fd5b505050506040513d602081101561058b57600080fd5b505050505050505050565b6000546001546040805160e060020a6302571be30281526004810192909252513392600160a060020a0316916302571be3916024808301926020929190829003018186803b1580156105e757600080fd5b505afa1580156105fb573d6000803e3d6000fd5b505050506040513d602081101561061157600080fd5b5051600160a060020a03161461065f576040805160e560020a62461bcd028152602060048201526014602482015260008051602061145a833981519152604482015290519081900360640190fd5b6040805164ffffffffff8316815290517fe5f9b2e32eb87a02ecd34abab2dd1ad3d7ec588114a9eeb40664948040e0bb579181900360200190a16004805464ffffffffff909216650100000000000269ffffffffff000000000019909216919091179055565b60008060008060006060600460059054906101000a900464ffffffffff1664ffffffffff16604051908082528060200260200182016040528015610713578160200160208202803883390190505b50600254604080517fbd29dec0000000000000000000000000000000000000000000000000000000008152600481018c905290519293506000928392600160a060020a03169163bd29dec0916024808301926020929190829003018186803b15801561077e57600080fd5b505afa158015610792573d6000803e3d6000fd5b505050506040513d60208110156107a857600080fd5b505190506000805b828263ffffffff161015610b2b57600254604080517f0196d78d000000000000000000000000000000000000000000000000000000008152600481018f905260001963ffffffff861687030160248201529051600160a060020a0390921691630196d78d91604480820192602092909190829003018186803b15801561083557600080fd5b505afa158015610849573d6000803e3d6000fd5b505050506040513d602081101561085f57600080fd5b505160048054600254604080517f4d00307000000000000000000000000000000000000000000000000000000000815293840185905251939b5064ffffffffff90911692600160a060020a0390911691634d003070916024808301926020929190829003018186803b1580156108d457600080fd5b505afa1580156108e8573d6000803e3d6000fd5b505050506040513d60208110156108fe57600080fd5b505164ffffffffff164203111561091457610b2b565b61091d88610eba565b151561092857610b20565b600254604080517f6d6f398e000000000000000000000000000000000000000000000000000000008152600481018b90529051600160a060020a0390921691636d6f398e91602480820192602092909190829003018186803b15801561098d57600080fd5b505afa1580156109a1573d6000803e3d6000fd5b505050506040513d60208110156109b757600080fd5b505160008181526003602052604090205490975060ff1615156109d957610b20565b6002546040805160e060020a6302571be3028152600481018b90529051600160a060020a03909216916302571be391602480820192602092909190829003018186803b158015610a2857600080fd5b505afa158015610a3c573d6000803e3d6000fd5b505050506040513d6020811015610a5257600080fd5b50519850600160a060020a03808a16908c161415610aff5784518461ffff161015610afa575060009450845b8360010161ffff168163ffffffff16108015610a98575085155b15610acf5786858263ffffffff16815181101515610ab257fe5b906020019060200201511415610ac757600195505b600101610a7e565b851515610afa5786858561ffff16815181101515610ae957fe5b602090810290910101526001909301925b610b20565b600160a060020a03891615610b205760009950505050505050505050610b68565b6001909101906107b0565b60045465010000000000900464ffffffffff1661ffff851610610b5a5760019950505050505050505050610b68565b600099505050505050505050505b92915050565b6000546001546040805160e060020a6302571be30281526004810192909252513392600160a060020a0316916302571be3916024808301926020929190829003018186803b158015610bbf57600080fd5b505afa158015610bd3573d6000803e3d6000fd5b505050506040513d6020811015610be957600080fd5b5051600160a060020a031614610c37576040805160e560020a62461bcd028152602060048201526014602482015260008051602061145a833981519152604482015290519081900360640190fd5b6040805164ffffffffff8316815290517f6e449c03a73dd1e735628b38561c8188af5f25c2ee595e7a8fff2c1205b7288f9181900360200190a16004805464ffffffffff191664ffffffffff92909216919091179055565b6000546001546040805160e060020a6302571be30281526004810192909252513392600160a060020a0316916302571be3916024808301926020929190829003018186803b158015610ce057600080fd5b505afa158015610cf4573d6000803e3d6000fd5b505050506040513d6020811015610d0a57600080fd5b5051600160a060020a031614610d58576040805160e560020a62461bcd028152602060048201526014602482015260008051602061145a833981519152604482015290519081900360640190fd5b6040805182815290517f605240421d81df87774330aa7cdf00a0fec56b9d5fcebb6e4a8b6b16b47bed619181900360200190a16000908152600360205260409020805460ff19169055565b6000546001546040805160e060020a6302571be30281526004810192909252513392600160a060020a0316916302571be3916024808301926020929190829003018186803b158015610df457600080fd5b505afa158015610e08573d6000803e3d6000fd5b505050506040513d6020811015610e1e57600080fd5b5051600160a060020a031614610e6c576040805160e560020a62461bcd028152602060048201526014602482015260008051602061145a833981519152604482015290519081900360640190fd5b6040805182815290517f4f0d6f35a89a102a4be09df1c7bd77857a876691898505835bc8791e414149439181900360200190a16000908152600360205260409020805460ff19166001179055565b600080610ec5611439565b600254604080517fb841f2b20000000000000000000000000000000000000000000000000000000081526004810187905290518692600092600160a060020a039091169163b841f2b291602480820192602092909190829003018186803b158015610f2f57600080fd5b505afa158015610f43573d6000803e3d6000fd5b505050506040513d6020811015610f5957600080fd5b505164ffffffffff16421115610f76576000945050505050611434565b60048054600254604080517f179320460000000000000000000000000000000000000000000000000000000081529384018690525164ffffffffff90921692600160a060020a0390911691631793204691602480820192602092909190829003018186803b158015610fe757600080fd5b505afa158015610ffb573d6000803e3d6000fd5b505050506040513d602081101561101157600080fd5b505164ffffffffff164203111561102f576000945050505050611434565b600254604080517ff6cc6815000000000000000000000000000000000000000000000000000000008152600481018590529051600160a060020a039092169163f6cc68159160248082019261014092909190829003018186803b15801561109557600080fd5b505afa1580156110a9573d6000803e3d6000fd5b505050506040513d601f19601f820116820180604052506101408110156110cf57600080fd5b508051945060200192508380156110e4575082515b80156110f1575060408301515b1515611104576000945050505050611434565b600254604080517f885ffae1000000000000000000000000000000000000000000000000000000008152600481018590529051600160a060020a039092169163885ffae191602480820192602092909190829003018186803b15801561116957600080fd5b505afa15801561117d573d6000803e3d6000fd5b505050506040513d602081101561119357600080fd5b5051156111a7576000945050505050611434565b600254604080517fd6be188c000000000000000000000000000000000000000000000000000000008152600481018590529051600160a060020a039092169163d6be188c91602480820192602092909190829003018186803b15801561120c57600080fd5b505afa158015611220573d6000803e3d6000fd5b505050506040513d602081101561123657600080fd5b50511561124a576000945050505050611434565b600254604080517f03ea6ef7000000000000000000000000000000000000000000000000000000008152600481018590529051600160a060020a03909216916303ea6ef791602480820192602092909190829003018186803b1580156112af57600080fd5b505afa1580156112c3573d6000803e3d6000fd5b505050506040513d60208110156112d957600080fd5b505190505b600254604080517f03ea6ef70000000000000000000000000000000000000000000000000000000081526004810184905290519293508392600160a060020a03909216916303ea6ef791602480820192602092909190829003018186803b15801561134857600080fd5b505afa15801561135c573d6000803e3d6000fd5b505050506040513d602081101561137257600080fd5b5051600254604080517fb841f2b2000000000000000000000000000000000000000000000000000000008152600481018690529051929350600160a060020a039091169163b841f2b291602480820192602092909190829003018186803b1580156113dc57600080fd5b505afa1580156113f0573d6000803e3d6000fd5b505050506040513d602081101561140657600080fd5b505164ffffffffff16421115611423576000945050505050611434565b818114156112de5760019450505050505b919050565b61012060405190810160405280600990602082028038833950919291505056fe4f6e6c7920726f6f74206e6f6465206f776e6572000000000000000000000000a165627a7a72305820700a104f9f032be8b009270cef6f69308502de51173c9f420cd78fef24ba8a860029",
  "source": "pragma solidity ^0.5.2;\n\nimport \"./IDNSRegistrar.sol\";\nimport \"@ensdomains/ens/contracts/ENSRegistry.sol\";\nimport \"x509-forest-of-trust/contracts/X509ForestOfTrust.sol\";\n\n/**\n * @title A registrar that allocates subdomains to their DNS owners.\n * @author Jonah Groendal\n */\ncontract DNSRegistrar is IDNSRegistrar {\n    ENSRegistry ens;\n    bytes32 rootNode;\n    X509ForestOfTrust x509;\n    // certId => isTrusted\n    mapping(bytes32 => bool) isTrustedCert;\n    // A leaf cert must not have been issued more than this number of seconds ago\n    uint40 maxCertAge;\n    // The Minimum number of certificates an account must hold to be the owner of a domain\n    // This is used to decentralize trust and protect against rogue CAs\n    // Each cert must be signed by a unique authority\n    uint40 minNumCerts;\n\n    modifier only_domain_owner(bytes32 tld, bytes32 domain) {\n        // namehash of domain.tld\n        bytes32 node = keccak256(abi.encodePacked(keccak256(abi.encodePacked(bytes32(0), tld)), domain));\n        require(isDomainOwner(node, msg.sender), \"Only domain owner\");\n        _;\n    }\n    modifier only_root_node_owner() {\n        require(ens.owner(rootNode) == msg.sender, \"Only root node owner\");\n        _;\n    }\n\n    /**\n     * Constructor.\n     * @param _ens The address of the ENS registry.\n     * @param _rootNode The node that this registrar administers.\n     * @param _x509 The address of X509ForestOfTrust, a data structre of validated certs.\n     * @param _maxCertAge The max age a valid leaf cert is allowed to be.\n     * @param _minNumCerts The min number of certificate authorities.\n     */\n    constructor(bytes32 _rootNode, address _ens, address _x509, uint40 _maxCertAge, uint40 _minNumCerts) public {\n        rootNode = _rootNode;\n        ens = ENSRegistry(_ens);\n        x509 = X509ForestOfTrust(_x509);\n        maxCertAge = _maxCertAge;\n        minNumCerts = _minNumCerts;\n    }\n\n    /**\n     * @dev Register a web2 domain that you have proven ownership of in X509ForestOfTrust.\n     * @param tld The hash of the top-level label of the domain (e.g. \"org\").\n     * @param domain The hash of the second-level label of the domain (e.g. \"wikipedia\")\n     * @param owner The address of the new owner.\n     */\n    function register(bytes32 tld, bytes32 domain, address owner) external only_domain_owner(tld, domain) {\n      bytes32 tldNode = keccak256(abi.encodePacked(rootNode, tld));\n      emit DomainRegistered(keccak256(abi.encodePacked(tldNode, domain)), owner);\n      if (ens.owner(tldNode) != ens.owner(rootNode))\n        ens.setSubnodeOwner(rootNode, tld, ens.owner(rootNode));\n      ens.setSubnodeOwner(tldNode, domain, owner);\n    }\n\n    /**\n     * @param node The ENS namehash of the domain in question. (i.e. namehash(\"domain.tld\"))\n     * @param account The address that we are verifying is the domain owner.\n     * @return True iff enough certificates for this domain are owned by `account`\n     *          and none are owned by any other non-zero address.\n     */\n    function isDomainOwner(bytes32 node, address account) public view returns (bool) {\n      address certOwner;\n      bytes32 certId;\n      bytes32 rootId;\n      bool alreadyCounted;\n      bytes32[] memory rootIds = new bytes32[](minNumCerts);\n      uint16 rootIdsIndex;\n      uint len = x509.toCertIdsLength(node);\n      uint32 i;\n      uint32 j;\n      // Loop through all certificates starting with the most recently added.\n      for (; i<len; i++) {\n        certId = x509.toCertIds(node, len-i-1);\n        // Stop if this cert was added longer ago than the maximum allowed certificate age\n        if (block.timestamp - x509.timestamp(certId) > maxCertAge)\n          break;\n        if (!isValidCert(certId))\n          continue;\n        rootId = x509.rootOf(certId);\n        if (!isTrustedCert[rootId])\n          continue;\n        certOwner = x509.owner(certId);\n        if (certOwner == account) {\n          if (rootIdsIndex < rootIds.length) {\n            // Certs with the same root cert are only counted once\n            alreadyCounted = false;\n            for (j=0; j<rootIdsIndex+1 && !alreadyCounted; j++) {\n              if (rootIds[j] == rootId)\n                alreadyCounted = true;\n            }\n            // Increment certificate count and save its root's id so it doesn't\n            // get re-counted.\n            if (!alreadyCounted) {\n              rootIds[rootIdsIndex] = rootId;\n              rootIdsIndex++;\n            }\n          }\n        }\n        else if (certOwner != address(0)) {\n          // There must be no conflicting certificate owners for a given domain\n          return false;\n        }\n      }\n\n      if (rootIdsIndex >= minNumCerts)\n        return true;\n      return false;\n    }\n\n    /**\n     * @param certId The keccack256 hash of a certificate's DER-encoded public key\n     * @return True iff the certificate is valid\n     */\n    function isValidCert(bytes32 certId) internal view returns (bool) {\n      bool keyUsagePresent;\n      bool[9] memory keyUsageFlags;\n      bytes32 id = certId;\n      bytes32 parentId;\n      // Must not be expired\n      if (!(block.timestamp <= x509.validNotAfter(id)))\n        return false;\n      // Must not be older than maxCertAge\n      if(!(block.timestamp - x509.validNotBefore(id) <= maxCertAge))\n        return false;\n      (keyUsagePresent, keyUsageFlags) = x509.keyUsage(id);\n       // Digital Signature and Key Encipherment required\n      if (!(keyUsagePresent && keyUsageFlags[0] && keyUsageFlags[2]))\n        return false;\n      // extKeyUsage must not be critical\n      if (!(!x509.extKeyUsageCritical(id)))\n        return false;\n      // There must be no unparsed critical extensions\n      if (!(!x509.unparsedCriticalExtensionPresent(id)))\n        return false;\n      // There must be no expired certificates in chain above\n      parentId = x509.parentId(id);\n      do {\n        id = parentId;\n        parentId = x509.parentId(id);\n        if (!(block.timestamp <= x509.validNotAfter(id)))\n          return false;\n      } while (id != parentId);\n\n      return true;\n    }\n\n    /**\n     * @dev Add a trusted root cert (from a trustworthy certificate authority)\n     * @param certId The keccak256 hash of the cert's public key\n     */\n    function addTrustAnchor(bytes32 certId) external only_root_node_owner {\n        emit TrustAnchorAdded(certId);\n        isTrustedCert[certId] = true;\n    }\n\n    /**\n     * @dev Remove a trusted root cert\n     * @param certId The keccak256 hash of the cert's public key\n     */\n    function removeTrustAnchor(bytes32 certId) external only_root_node_owner {\n        emit TrustAnchorRemoved(certId);\n        isTrustedCert[certId] = false;\n    }\n\n    function setMaxCertAge(uint40 _maxCertAge) external only_root_node_owner {\n      emit MaxCertAgeSet(_maxCertAge);\n      maxCertAge = _maxCertAge;\n    }\n\n    function setMinNumCerts(uint40 _minNumCerts) external only_root_node_owner {\n      emit MinNumCertsSet(_minNumCerts);\n      minNumCerts = _minNumCerts;\n    }\n}\n",
  "sourcePath": "/home/jonah/dns-over-ens/contracts/DNSRegistrar.sol",
  "compiler": {
    "name": "solc",
    "version": "0.5.2+commit.1df8f40c.Emscripten.clang"
  },
  "schemaVersion": "3.3.2",
  "updatedAt": "2020-11-25T03:47:44.784Z",
  "networkType": "ethereum",
  "devdoc": {
    "author": "Jonah Groendal",
    "methods": {
      "addTrustAnchor(bytes32)": {
        "details": "Add a trusted root cert (from a trustworthy certificate authority)",
        "params": {
          "certId": "The keccak256 hash of the cert's public key"
        }
      },
      "constructor": {
        "params": {
          "_ens": "The address of the ENS registry.",
          "_maxCertAge": "The max age a valid leaf cert is allowed to be.",
          "_minNumCerts": "The min number of certificate authorities.",
          "_rootNode": "The node that this registrar administers.",
          "_x509": "The address of X509ForestOfTrust, a data structre of validated certs."
        }
      },
      "isDomainOwner(bytes32,address)": {
        "params": {
          "account": "The address that we are verifying is the domain owner.",
          "node": "The ENS namehash of the domain in question. (i.e. namehash(\"domain.tld\"))"
        },
        "return": "True iff enough certificates for this domain are owned by `account`         and none are owned by any other non-zero address."
      },
      "register(bytes32,bytes32,address)": {
        "details": "Register a web2 domain that you have proven ownership of in X509ForestOfTrust.",
        "params": {
          "domain": "The hash of the second-level label of the domain (e.g. \"wikipedia\")",
          "owner": "The address of the new owner.",
          "tld": "The hash of the top-level label of the domain (e.g. \"org\")."
        }
      },
      "removeTrustAnchor(bytes32)": {
        "details": "Remove a trusted root cert",
        "params": {
          "certId": "The keccak256 hash of the cert's public key"
        }
      }
    },
    "title": "A registrar that allocates subdomains to their DNS owners."
  },
  "userdoc": {
    "methods": {
      "constructor": "Constructor."
    }
  }
}