{
  "contractName": "ENSNamehash",
  "abi": [
    {
      "constant": true,
      "inputs": [
        {
          "name": "domain",
          "type": "bytes"
        }
      ],
      "name": "namehash",
      "outputs": [
        {
          "name": "",
          "type": "bytes32"
        }
      ],
      "payable": false,
      "stateMutability": "pure",
      "type": "function"
    }
  ],
  "bytecode": "0x61024c610030600b82828239805160001a6073146000811461002057610022565bfe5b5030600052607381538281f3fe7300000000000000000000000000000000000000003014608060405260043610610051577c010000000000000000000000000000000000000000000000000000000060003504630e0fb9248114610056575b600080fd5b6100c66004803603602081101561006c57600080fd5b81019060208101813564010000000081111561008757600080fd5b82018360208201111561009957600080fd5b803590602001918460018302840111640100000000831117156100bb57600080fd5b5090925090506100d8565b60408051918252519081900360200190f35b600061011983838080601f01602080910402602001604051908101604052809392919081815260200183838082843760009201829052509250610122915050565b90505b92915050565b60008183511115156101365750600061011c565b60006101428484610194565b905061015384828501600101610122565b61015e858584610203565b60405160200180838152602001828152602001925050506040516020818303038152906040528051906020012091505092915050565b6000805b8351818401141580156101f65750838184018151811015156101b657fe5b90602001015160f860020a900460f860020a027effffffffffffffffffffffffffffffffffffffffffffffffffffffffffffff1916602e60f860020a0214155b1561011957600101610198565b8251600090838301111561021657600080fd5b509101602001209056fea165627a7a72305820bb0ac0a7bfb0c9c790d1fb778e8cace5c4a3cef3b6c594afe5a20250fb9fd6cb0029",
  "source": "pragma solidity ^0.5.2;\n\n/*\n * @dev Solidity implementation of the ENS namehash algorithm.\n *\n * Warning! Does not normalize or validate names before hashing.\n */\nlibrary ENSNamehash {\n\n  function namehash(bytes calldata domain) external pure returns (bytes32) {\n    return namehash(domain, 0);\n  }\n\n  function namehash(bytes memory domain, uint i) internal pure returns (bytes32) {\n    if (domain.length <= i)\n      return 0x0000000000000000000000000000000000000000000000000000000000000000;\n\n    uint len = LabelLength(domain, i);\n\n    return keccak256(abi.encodePacked(namehash(domain, i+len+1), keccak(domain, i, len)));\n  }\n\n  function LabelLength(bytes memory domain, uint i) private pure returns (uint) {\n    uint len;\n    while (i+len != domain.length && domain[i+len] != 0x2e) {\n      len++;\n    }\n    return len;\n  }\n\n  function keccak(bytes memory data, uint offset, uint len) private pure returns (bytes32 ret) {\n    require(offset + len <= data.length);\n    assembly {\n      ret := keccak256(add(add(data, 32), offset), len)\n    }\n  }\n}\n",
  "sourcePath": "ens-namehash/contracts/ENSNamehash.sol",
  "compiler": {
    "name": "solc",
    "version": "0.5.2+commit.1df8f40c.Emscripten.clang"
  },
  "schemaVersion": "3.0.6",
  "updatedAt": "2019-04-21T23:43:46.516Z",
  "devdoc": {
    "methods": {}
  },
  "userdoc": {
    "methods": {}
  }
}