{
  "contractName": "ENSRegistry",
  "abi": [
    {
      "inputs": [],
      "payable": false,
      "stateMutability": "nonpayable",
      "type": "constructor"
    },
    {
      "anonymous": false,
      "inputs": [
        {
          "indexed": true,
          "name": "node",
          "type": "bytes32"
        },
        {
          "indexed": true,
          "name": "label",
          "type": "bytes32"
        },
        {
          "indexed": false,
          "name": "owner",
          "type": "address"
        }
      ],
      "name": "NewOwner",
      "type": "event"
    },
    {
      "anonymous": false,
      "inputs": [
        {
          "indexed": true,
          "name": "node",
          "type": "bytes32"
        },
        {
          "indexed": false,
          "name": "owner",
          "type": "address"
        }
      ],
      "name": "Transfer",
      "type": "event"
    },
    {
      "anonymous": false,
      "inputs": [
        {
          "indexed": true,
          "name": "node",
          "type": "bytes32"
        },
        {
          "indexed": false,
          "name": "resolver",
          "type": "address"
        }
      ],
      "name": "NewResolver",
      "type": "event"
    },
    {
      "anonymous": false,
      "inputs": [
        {
          "indexed": true,
          "name": "node",
          "type": "bytes32"
        },
        {
          "indexed": false,
          "name": "ttl",
          "type": "uint64"
        }
      ],
      "name": "NewTTL",
      "type": "event"
    },
    {
      "anonymous": false,
      "inputs": [
        {
          "indexed": true,
          "name": "owner",
          "type": "address"
        },
        {
          "indexed": true,
          "name": "operator",
          "type": "address"
        },
        {
          "indexed": false,
          "name": "approved",
          "type": "bool"
        }
      ],
      "name": "ApprovalForAll",
      "type": "event"
    },
    {
      "constant": false,
      "inputs": [
        {
          "name": "node",
          "type": "bytes32"
        },
        {
          "name": "owner",
          "type": "address"
        },
        {
          "name": "resolver",
          "type": "address"
        },
        {
          "name": "ttl",
          "type": "uint64"
        }
      ],
      "name": "setRecord",
      "outputs": [],
      "payable": false,
      "stateMutability": "nonpayable",
      "type": "function"
    },
    {
      "constant": false,
      "inputs": [
        {
          "name": "node",
          "type": "bytes32"
        },
        {
          "name": "label",
          "type": "bytes32"
        },
        {
          "name": "owner",
          "type": "address"
        },
        {
          "name": "resolver",
          "type": "address"
        },
        {
          "name": "ttl",
          "type": "uint64"
        }
      ],
      "name": "setSubnodeRecord",
      "outputs": [],
      "payable": false,
      "stateMutability": "nonpayable",
      "type": "function"
    },
    {
      "constant": false,
      "inputs": [
        {
          "name": "node",
          "type": "bytes32"
        },
        {
          "name": "owner",
          "type": "address"
        }
      ],
      "name": "setOwner",
      "outputs": [],
      "payable": false,
      "stateMutability": "nonpayable",
      "type": "function"
    },
    {
      "constant": false,
      "inputs": [
        {
          "name": "node",
          "type": "bytes32"
        },
        {
          "name": "label",
          "type": "bytes32"
        },
        {
          "name": "owner",
          "type": "address"
        }
      ],
      "name": "setSubnodeOwner",
      "outputs": [
        {
          "name": "",
          "type": "bytes32"
        }
      ],
      "payable": false,
      "stateMutability": "nonpayable",
      "type": "function"
    },
    {
      "constant": false,
      "inputs": [
        {
          "name": "node",
          "type": "bytes32"
        },
        {
          "name": "resolver",
          "type": "address"
        }
      ],
      "name": "setResolver",
      "outputs": [],
      "payable": false,
      "stateMutability": "nonpayable",
      "type": "function"
    },
    {
      "constant": false,
      "inputs": [
        {
          "name": "node",
          "type": "bytes32"
        },
        {
          "name": "ttl",
          "type": "uint64"
        }
      ],
      "name": "setTTL",
      "outputs": [],
      "payable": false,
      "stateMutability": "nonpayable",
      "type": "function"
    },
    {
      "constant": false,
      "inputs": [
        {
          "name": "operator",
          "type": "address"
        },
        {
          "name": "approved",
          "type": "bool"
        }
      ],
      "name": "setApprovalForAll",
      "outputs": [],
      "payable": false,
      "stateMutability": "nonpayable",
      "type": "function"
    },
    {
      "constant": true,
      "inputs": [
        {
          "name": "node",
          "type": "bytes32"
        }
      ],
      "name": "owner",
      "outputs": [
        {
          "name": "",
          "type": "address"
        }
      ],
      "payable": false,
      "stateMutability": "view",
      "type": "function"
    },
    {
      "constant": true,
      "inputs": [
        {
          "name": "node",
          "type": "bytes32"
        }
      ],
      "name": "resolver",
      "outputs": [
        {
          "name": "",
          "type": "address"
        }
      ],
      "payable": false,
      "stateMutability": "view",
      "type": "function"
    },
    {
      "constant": true,
      "inputs": [
        {
          "name": "node",
          "type": "bytes32"
        }
      ],
      "name": "ttl",
      "outputs": [
        {
          "name": "",
          "type": "uint64"
        }
      ],
      "payable": false,
      "stateMutability": "view",
      "type": "function"
    },
    {
      "constant": true,
      "inputs": [
        {
          "name": "node",
          "type": "bytes32"
        }
      ],
      "name": "recordExists",
      "outputs": [
        {
          "name": "",
          "type": "bool"
        }
      ],
      "payable": false,
      "stateMutability": "view",
      "type": "function"
    },
    {
      "constant": true,
      "inputs": [
        {
          "name": "owner",
          "type": "address"
        },
        {
          "name": "operator",
          "type": "address"
        }
      ],
      "name": "isApprovedForAll",
      "outputs": [
        {
          "name": "",
          "type": "bool"
        }
      ],
      "payable": false,
      "stateMutability": "view",
      "type": "function"
    }
  ],
  "bytecode": "0x608060405234801561001057600080fd5b5060008080526020527fad3228b676f7d3cd4284a5443f17f1962b36e491b30a40b2405849e597ba5fb58054600160a060020a031916331790556109e2806100596000396000f3fe608060405234801561001057600080fd5b50600436106100d1576000357c0100000000000000000000000000000000000000000000000000000000900480635b0fc9c31161008e5780635b0fc9c3146102055780635ef2c7f014610231578063a22cb4651461027e578063cf408823146102ac578063e985e9c5146102f3578063f79fe53814610335576100d1565b80630178b8bf146100d657806302571be31461010f57806306ab59231461012c57806314ab90381461017057806316a25cbd1461019f5780631896f70a146101d9575b600080fd5b6100f3600480360360208110156100ec57600080fd5b5035610352565b60408051600160a060020a039092168252519081900360200190f35b6100f36004803603602081101561012557600080fd5b5035610373565b61015e6004803603606081101561014257600080fd5b5080359060208101359060400135600160a060020a03166103a3565b60408051918252519081900360200190f35b61019d6004803603604081101561018657600080fd5b508035906020013567ffffffffffffffff16610475565b005b6101bc600480360360208110156101b557600080fd5b503561056d565b6040805167ffffffffffffffff9092168252519081900360200190f35b61019d600480360360408110156101ef57600080fd5b5080359060200135600160a060020a03166105a4565b61019d6004803603604081101561021b57600080fd5b5080359060200135600160a060020a0316610679565b61019d600480360360a081101561024757600080fd5b508035906020810135906040810135600160a060020a03908116916060810135909116906080013567ffffffffffffffff1661071e565b61019d6004803603604081101561029457600080fd5b50600160a060020a0381351690602001351515610740565b61019d600480360360808110156102c257600080fd5b508035906020810135600160a060020a03908116916040810135909116906060013567ffffffffffffffff166107ae565b6103216004803603604081101561030957600080fd5b50600160a060020a03813581169160200135166107c9565b604080519115158252519081900360200190f35b6103216004803603602081101561034b57600080fd5b50356107f7565b600081815260208190526040902060010154600160a060020a03165b919050565b600081815260208190526040812054600160a060020a03163081141561039d57600091505061036e565b92915050565b6000838152602081905260408120548490600160a060020a0316338114806103ee5750600160a060020a038116600090815260016020908152604080832033845290915290205460ff165b15156103f957600080fd5b6040805160208082018990528183018890528251808303840181526060909201909252805191012061042b8186610814565b60408051600160a060020a03871681529051879189917fce0457fe73731f824cc272376169235128c118b49d344817417c6d108d155e829181900360200190a39695505050505050565b6000828152602081905260409020548290600160a060020a0316338114806104c05750600160a060020a038116600090815260016020908152604080832033845290915290205460ff165b15156104cb57600080fd5b6040805167ffffffffffffffff85168152905185917f1d4f9bbfc9cab89d66e1a1562f2233ccbf1308cb4f63de2ead5787adddb8fa68919081900360200190a25050600091825260208290526040909120600101805467ffffffffffffffff90921674010000000000000000000000000000000000000000027bffffffffffffffff000000000000000000000000000000000000000019909216919091179055565b60009081526020819052604090206001015474010000000000000000000000000000000000000000900467ffffffffffffffff1690565b6000828152602081905260409020548290600160a060020a0316338114806105ef5750600160a060020a038116600090815260016020908152604080832033845290915290205460ff165b15156105fa57600080fd5b60408051600160a060020a0385168152905185917f335721b01866dc23fbee8b6b2c7b1e14d6f05c28cd35a2c934239f94095602a0919081900360200190a25050600091825260208290526040909120600101805473ffffffffffffffffffffffffffffffffffffffff1916600160a060020a03909216919091179055565b6000828152602081905260409020548290600160a060020a0316338114806106c45750600160a060020a038116600090815260016020908152604080832033845290915290205460ff165b15156106cf57600080fd5b6106d98484610814565b60408051600160a060020a0385168152905185917fd4735d920b0f87494915f556dd9b54c8f309026070caea5c737245152564d266919081900360200190a250505050565b600061072b8686866103a3565b905061073881848461084f565b505050505050565b336000818152600160209081526040808320600160a060020a03871680855290835292819020805460ff1916861515908117909155815190815290519293927f17307eab39ab6107e8899845ad3d59bd9653f200f220920489ca2b5937696c31929181900390910190a35050565b6107b88484610679565b6107c384838361084f565b50505050565b600160a060020a03918216600090815260016020908152604080832093909416825291909152205460ff1690565b600090815260208190526040902054600160a060020a0316151590565b600091825260208290526040909120805473ffffffffffffffffffffffffffffffffffffffff1916600160a060020a03909216919091179055565b600083815260208190526040902060010154600160a060020a038381169116146108e25760008381526020818152604091829020600101805473ffffffffffffffffffffffffffffffffffffffff1916600160a060020a0386169081179091558251908152915185927f335721b01866dc23fbee8b6b2c7b1e14d6f05c28cd35a2c934239f94095602a092908290030190a25b60008381526020819052604090206001015467ffffffffffffffff8281167401000000000000000000000000000000000000000090920416146109b1576000838152602081815260409182902060010180547bffffffffffffffff000000000000000000000000000000000000000019167401000000000000000000000000000000000000000067ffffffffffffffff8616908102919091179091558251908152915185927f1d4f9bbfc9cab89d66e1a1562f2233ccbf1308cb4f63de2ead5787adddb8fa6892908290030190a25b50505056fea165627a7a723058201fb150227a68c5a8b34d2089e7d0271c1cd86a4e2a776ac8149a02ea577695df0029",
  "source": "pragma solidity ^0.5.0;\n\nimport \"./ENS.sol\";\n\n/**\n * The ENS registry contract.\n */\ncontract ENSRegistry is ENS {\n\n    struct Record {\n        address owner;\n        address resolver;\n        uint64 ttl;\n    }\n\n    mapping (bytes32 => Record) records;\n    mapping (address => mapping(address => bool)) operators;\n\n    // Permits modifications only by the owner of the specified node.\n    modifier authorised(bytes32 node) {\n        address owner = records[node].owner;\n        require(owner == msg.sender || operators[owner][msg.sender]);\n        _;\n    }\n\n    /**\n     * @dev Constructs a new ENS registrar.\n     */\n    constructor() public {\n        records[0x0].owner = msg.sender;\n    }\n\n    /**\n     * @dev Sets the record for a node.\n     * @param node The node to update.\n     * @param owner The address of the new owner.\n     * @param resolver The address of the resolver.\n     * @param ttl The TTL in seconds.\n     */\n    function setRecord(bytes32 node, address owner, address resolver, uint64 ttl) external {\n        setOwner(node, owner);\n        _setResolverAndTTL(node, resolver, ttl);\n    }\n\n    /**\n     * @dev Sets the record for a subnode.\n     * @param node The parent node.\n     * @param label The hash of the label specifying the subnode.\n     * @param owner The address of the new owner.\n     * @param resolver The address of the resolver.\n     * @param ttl The TTL in seconds.\n     */\n    function setSubnodeRecord(bytes32 node, bytes32 label, address owner, address resolver, uint64 ttl) external {\n        bytes32 subnode = setSubnodeOwner(node, label, owner);\n        _setResolverAndTTL(subnode, resolver, ttl);\n    }\n\n    /**\n     * @dev Transfers ownership of a node to a new address. May only be called by the current owner of the node.\n     * @param node The node to transfer ownership of.\n     * @param owner The address of the new owner.\n     */\n    function setOwner(bytes32 node, address owner) public authorised(node) {\n        _setOwner(node, owner);\n        emit Transfer(node, owner);\n    }\n\n    /**\n     * @dev Transfers ownership of a subnode keccak256(node, label) to a new address. May only be called by the owner of the parent node.\n     * @param node The parent node.\n     * @param label The hash of the label specifying the subnode.\n     * @param owner The address of the new owner.\n     */\n    function setSubnodeOwner(bytes32 node, bytes32 label, address owner) public authorised(node) returns(bytes32) {\n        bytes32 subnode = keccak256(abi.encodePacked(node, label));\n        _setOwner(subnode, owner);\n        emit NewOwner(node, label, owner);\n        return subnode;\n    }\n\n    /**\n     * @dev Sets the resolver address for the specified node.\n     * @param node The node to update.\n     * @param resolver The address of the resolver.\n     */\n    function setResolver(bytes32 node, address resolver) public authorised(node) {\n        emit NewResolver(node, resolver);\n        records[node].resolver = resolver;\n    }\n\n    /**\n     * @dev Sets the TTL for the specified node.\n     * @param node The node to update.\n     * @param ttl The TTL in seconds.\n     */\n    function setTTL(bytes32 node, uint64 ttl) public authorised(node) {\n        emit NewTTL(node, ttl);\n        records[node].ttl = ttl;\n    }\n\n    /**\n     * @dev Enable or disable approval for a third party (\"operator\") to manage\n     *  all of `msg.sender`'s ENS records. Emits the ApprovalForAll event.\n     * @param operator Address to add to the set of authorized operators.\n     * @param approved True if the operator is approved, false to revoke approval.\n     */\n    function setApprovalForAll(address operator, bool approved) external {\n        operators[msg.sender][operator] = approved;\n        emit ApprovalForAll(msg.sender, operator, approved);\n    }\n\n    /**\n     * @dev Returns the address that owns the specified node.\n     * @param node The specified node.\n     * @return address of the owner.\n     */\n    function owner(bytes32 node) public view returns (address) {\n        address addr = records[node].owner;\n        if (addr == address(this)) {\n            return address(0x0);\n        }\n\n        return addr;\n    }\n\n    /**\n     * @dev Returns the address of the resolver for the specified node.\n     * @param node The specified node.\n     * @return address of the resolver.\n     */\n    function resolver(bytes32 node) public view returns (address) {\n        return records[node].resolver;\n    }\n\n    /**\n     * @dev Returns the TTL of a node, and any records associated with it.\n     * @param node The specified node.\n     * @return ttl of the node.\n     */\n    function ttl(bytes32 node) public view returns (uint64) {\n        return records[node].ttl;\n    }\n\n    /**\n     * @dev Returns whether a record has been imported to the registry.\n     * @param node The specified node.\n     * @return Bool if record exists\n     */\n    function recordExists(bytes32 node) public view returns (bool) {\n        return records[node].owner != address(0x0);\n    }\n\n    /**\n     * @dev Query if an address is an authorized operator for another address.\n     * @param owner The address that owns the records.\n     * @param operator The address that acts on behalf of the owner.\n     * @return True if `operator` is an approved operator for `owner`, false otherwise.\n     */\n    function isApprovedForAll(address owner, address operator) external view returns (bool) {\n        return operators[owner][operator];\n    }\n\n    function _setOwner(bytes32 node, address owner) internal {\n        records[node].owner = owner;\n    }\n\n    function _setResolverAndTTL(bytes32 node, address resolver, uint64 ttl) internal {\n        if(resolver != records[node].resolver) {\n            records[node].resolver = resolver;\n            emit NewResolver(node, resolver);\n        }\n\n        if(ttl != records[node].ttl) {\n            records[node].ttl = ttl;\n            emit NewTTL(node, ttl);\n        }\n    }\n}\n",
  "sourcePath": "@ensdomains/ens/contracts/ENSRegistry.sol",
  "compiler": {
    "name": "solc",
    "version": "0.5.2+commit.1df8f40c.Emscripten.clang"
  },
  "schemaVersion": "3.4.10",
  "updatedAt": "2022-09-30T22:38:27.142Z",
  "devdoc": {
    "methods": {
      "constructor": {
        "details": "Constructs a new ENS registrar."
      },
      "isApprovedForAll(address,address)": {
        "details": "Query if an address is an authorized operator for another address.",
        "params": {
          "operator": "The address that acts on behalf of the owner.",
          "owner": "The address that owns the records."
        },
        "return": "True if `operator` is an approved operator for `owner`, false otherwise."
      },
      "owner(bytes32)": {
        "details": "Returns the address that owns the specified node.",
        "params": {
          "node": "The specified node."
        },
        "return": "address of the owner."
      },
      "recordExists(bytes32)": {
        "details": "Returns whether a record has been imported to the registry.",
        "params": {
          "node": "The specified node."
        },
        "return": "Bool if record exists"
      },
      "resolver(bytes32)": {
        "details": "Returns the address of the resolver for the specified node.",
        "params": {
          "node": "The specified node."
        },
        "return": "address of the resolver."
      },
      "setApprovalForAll(address,bool)": {
        "details": "Enable or disable approval for a third party (\"operator\") to manage all of `msg.sender`'s ENS records. Emits the ApprovalForAll event.",
        "params": {
          "approved": "True if the operator is approved, false to revoke approval.",
          "operator": "Address to add to the set of authorized operators."
        }
      },
      "setOwner(bytes32,address)": {
        "details": "Transfers ownership of a node to a new address. May only be called by the current owner of the node.",
        "params": {
          "node": "The node to transfer ownership of.",
          "owner": "The address of the new owner."
        }
      },
      "setRecord(bytes32,address,address,uint64)": {
        "details": "Sets the record for a node.",
        "params": {
          "node": "The node to update.",
          "owner": "The address of the new owner.",
          "resolver": "The address of the resolver.",
          "ttl": "The TTL in seconds."
        }
      },
      "setResolver(bytes32,address)": {
        "details": "Sets the resolver address for the specified node.",
        "params": {
          "node": "The node to update.",
          "resolver": "The address of the resolver."
        }
      },
      "setSubnodeOwner(bytes32,bytes32,address)": {
        "details": "Transfers ownership of a subnode keccak256(node, label) to a new address. May only be called by the owner of the parent node.",
        "params": {
          "label": "The hash of the label specifying the subnode.",
          "node": "The parent node.",
          "owner": "The address of the new owner."
        }
      },
      "setSubnodeRecord(bytes32,bytes32,address,address,uint64)": {
        "details": "Sets the record for a subnode.",
        "params": {
          "label": "The hash of the label specifying the subnode.",
          "node": "The parent node.",
          "owner": "The address of the new owner.",
          "resolver": "The address of the resolver.",
          "ttl": "The TTL in seconds."
        }
      },
      "setTTL(bytes32,uint64)": {
        "details": "Sets the TTL for the specified node.",
        "params": {
          "node": "The node to update.",
          "ttl": "The TTL in seconds."
        }
      },
      "ttl(bytes32)": {
        "details": "Returns the TTL of a node, and any records associated with it.",
        "params": {
          "node": "The specified node."
        },
        "return": "ttl of the node."
      }
    }
  },
  "userdoc": {
    "methods": {},
    "notice": "The ENS registry contract."
  }
}