{
  "contractName": "FIFSRegistrar",
  "abi": [
    {
      "inputs": [
        {
          "name": "ensAddr",
          "type": "address"
        },
        {
          "name": "node",
          "type": "bytes32"
        }
      ],
      "payable": false,
      "stateMutability": "nonpayable",
      "type": "constructor"
    },
    {
      "constant": false,
      "inputs": [
        {
          "name": "label",
          "type": "bytes32"
        },
        {
          "name": "owner",
          "type": "address"
        }
      ],
      "name": "register",
      "outputs": [],
      "payable": false,
      "stateMutability": "nonpayable",
      "type": "function"
    }
  ],
  "bytecode": "0x608060405234801561001057600080fd5b506040516040806102e18339810180604052604081101561003057600080fd5b50805160209091015160008054600160a060020a031916600160a060020a0390931692909217825560015561027690819061006b90396000f3fe608060405234801561001057600080fd5b5060043610610047577c01000000000000000000000000000000000000000000000000000000006000350463d22057a9811461004c575b600080fd5b6100856004803603604081101561006257600080fd5b508035906020013573ffffffffffffffffffffffffffffffffffffffff16610087565b005b6000805460015460408051602080820193909352808201879052815180820383018152606082018084528151918501919091207f02571be3000000000000000000000000000000000000000000000000000000009091526064820152905186949373ffffffffffffffffffffffffffffffffffffffff16926302571be39260848082019391829003018186803b15801561012057600080fd5b505afa158015610134573d6000803e3d6000fd5b505050506040513d602081101561014a57600080fd5b5051905073ffffffffffffffffffffffffffffffffffffffff81161580610186575073ffffffffffffffffffffffffffffffffffffffff811633145b151561019157600080fd5b60008054600154604080517f06ab592300000000000000000000000000000000000000000000000000000000815260048101929092526024820188905273ffffffffffffffffffffffffffffffffffffffff878116604484015290519216926306ab5923926064808401936020939083900390910190829087803b15801561021857600080fd5b505af115801561022c573d6000803e3d6000fd5b505050506040513d602081101561024257600080fd5b50505050505056fea165627a7a7230582091a75ce27071e298660f8a344197def05406426a1384866ac3653b7394e117120029",
  "source": "pragma solidity ^0.5.0;\n\nimport \"./ENS.sol\";\n\n/**\n * A registrar that allocates subdomains to the first person to claim them.\n */\ncontract FIFSRegistrar {\n    ENS ens;\n    bytes32 rootNode;\n\n    modifier only_owner(bytes32 label) {\n        address currentOwner = ens.owner(keccak256(abi.encodePacked(rootNode, label)));\n        require(currentOwner == address(0x0) || currentOwner == msg.sender);\n        _;\n    }\n\n    /**\n     * Constructor.\n     * @param ensAddr The address of the ENS registry.\n     * @param node The node that this registrar administers.\n     */\n    constructor(ENS ensAddr, bytes32 node) public {\n        ens = ensAddr;\n        rootNode = node;\n    }\n\n    /**\n     * Register a name, or change the owner of an existing registration.\n     * @param label The hash of the label to register.\n     * @param owner The address of the new owner.\n     */\n    function register(bytes32 label, address owner) public only_owner(label) {\n        ens.setSubnodeOwner(rootNode, label, owner);\n    }\n}\n",
  "sourcePath": "@ensdomains/ens/contracts/FIFSRegistrar.sol",
  "compiler": {
    "name": "solc",
    "version": "0.5.2+commit.1df8f40c.Emscripten.clang"
  },
  "schemaVersion": "3.3.2",
  "updatedAt": "2020-11-25T03:47:44.797Z",
  "networkType": "ethereum",
  "devdoc": {
    "methods": {
      "constructor": {
        "params": {
          "ensAddr": "The address of the ENS registry.",
          "node": "The node that this registrar administers."
        }
      },
      "register(bytes32,address)": {
        "params": {
          "label": "The hash of the label to register.",
          "owner": "The address of the new owner."
        }
      }
    }
  },
  "userdoc": {
    "methods": {
      "constructor": "Constructor.",
      "register(bytes32,address)": {
        "notice": "Register a name, or change the owner of an existing registration."
      }
    },
    "notice": "A registrar that allocates subdomains to the first person to claim them."
  }
}