{
  "contractName": "X509ForestOfTrust",
  "abi": [
    {
      "constant": true,
      "inputs": [
        {
          "name": "",
          "type": "bytes32"
        },
        {
          "name": "",
          "type": "uint256"
        }
      ],
      "name": "toCertIds",
      "outputs": [
        {
          "name": "",
          "type": "bytes32"
        }
      ],
      "payable": false,
      "stateMutability": "view",
      "type": "function"
    },
    {
      "constant": true,
      "inputs": [
        {
          "name": "",
          "type": "bytes32"
        }
      ],
      "name": "toCertId",
      "outputs": [
        {
          "name": "",
          "type": "bytes32"
        }
      ],
      "payable": false,
      "stateMutability": "view",
      "type": "function"
    },
    {
      "constant": true,
      "inputs": [
        {
          "name": "",
          "type": "bytes32"
        }
      ],
      "name": "certs",
      "outputs": [
        {
          "name": "owner",
          "type": "address"
        },
        {
          "name": "parentId",
          "type": "bytes32"
        },
        {
          "name": "pubKey",
          "type": "bytes"
        },
        {
          "name": "serialNumber",
          "type": "uint256"
        },
        {
          "name": "validNotAfter",
          "type": "uint256"
        },
        {
          "name": "cshx",
          "type": "bool"
        }
      ],
      "payable": false,
      "stateMutability": "view",
      "type": "function"
    },
    {
      "constant": false,
      "inputs": [
        {
          "name": "newOwner",
          "type": "address"
        }
      ],
      "name": "transferOwnership",
      "outputs": [],
      "payable": false,
      "stateMutability": "nonpayable",
      "type": "function"
    },
    {
      "inputs": [
        {
          "name": "sha256WithRSAEncryption",
          "type": "address"
        },
        {
          "name": "_dateTime",
          "type": "address"
        }
      ],
      "payable": false,
      "stateMutability": "nonpayable",
      "type": "constructor"
    },
    {
      "anonymous": false,
      "inputs": [
        {
          "indexed": false,
          "name": "",
          "type": "bytes32"
        }
      ],
      "name": "CertAdded",
      "type": "event"
    },
    {
      "anonymous": false,
      "inputs": [
        {
          "indexed": false,
          "name": "",
          "type": "bytes32"
        }
      ],
      "name": "CertClaimed",
      "type": "event"
    },
    {
      "anonymous": false,
      "inputs": [
        {
          "indexed": false,
          "name": "",
          "type": "bytes32"
        },
        {
          "indexed": false,
          "name": "",
          "type": "address"
        }
      ],
      "name": "AlgSet",
      "type": "event"
    },
    {
      "anonymous": false,
      "inputs": [
        {
          "indexed": false,
          "name": "",
          "type": "address"
        },
        {
          "indexed": false,
          "name": "",
          "type": "address"
        }
      ],
      "name": "ownershipTransferred",
      "type": "event"
    },
    {
      "constant": false,
      "inputs": [
        {
          "name": "cert",
          "type": "bytes"
        },
        {
          "name": "cshx",
          "type": "bool"
        }
      ],
      "name": "addRootCert",
      "outputs": [],
      "payable": false,
      "stateMutability": "nonpayable",
      "type": "function"
    },
    {
      "constant": false,
      "inputs": [
        {
          "name": "cert",
          "type": "bytes"
        },
        {
          "name": "parentId",
          "type": "bytes32"
        },
        {
          "name": "cshx",
          "type": "bool"
        }
      ],
      "name": "addCert",
      "outputs": [],
      "payable": false,
      "stateMutability": "nonpayable",
      "type": "function"
    },
    {
      "constant": true,
      "inputs": [],
      "name": "signThis",
      "outputs": [
        {
          "name": "",
          "type": "bytes"
        },
        {
          "name": "",
          "type": "uint256"
        }
      ],
      "payable": false,
      "stateMutability": "view",
      "type": "function"
    },
    {
      "constant": false,
      "inputs": [
        {
          "name": "certId",
          "type": "bytes32"
        },
        {
          "name": "signature",
          "type": "bytes"
        },
        {
          "name": "blockNumber",
          "type": "uint256"
        },
        {
          "name": "sigAlg",
          "type": "bytes32"
        }
      ],
      "name": "proveOwnership",
      "outputs": [
        {
          "name": "",
          "type": "bool"
        }
      ],
      "payable": false,
      "stateMutability": "nonpayable",
      "type": "function"
    },
    {
      "constant": true,
      "inputs": [
        {
          "name": "certId",
          "type": "bytes32"
        }
      ],
      "name": "rootOf",
      "outputs": [
        {
          "name": "",
          "type": "bytes32"
        }
      ],
      "payable": false,
      "stateMutability": "view",
      "type": "function"
    },
    {
      "constant": true,
      "inputs": [
        {
          "name": "certId",
          "type": "bytes32"
        }
      ],
      "name": "owner",
      "outputs": [
        {
          "name": "",
          "type": "address"
        }
      ],
      "payable": false,
      "stateMutability": "view",
      "type": "function"
    },
    {
      "constant": true,
      "inputs": [
        {
          "name": "certId",
          "type": "bytes32"
        }
      ],
      "name": "parentId",
      "outputs": [
        {
          "name": "",
          "type": "bytes32"
        }
      ],
      "payable": false,
      "stateMutability": "view",
      "type": "function"
    },
    {
      "constant": true,
      "inputs": [
        {
          "name": "certId",
          "type": "bytes32"
        }
      ],
      "name": "pubKey",
      "outputs": [
        {
          "name": "",
          "type": "bytes"
        }
      ],
      "payable": false,
      "stateMutability": "view",
      "type": "function"
    },
    {
      "constant": true,
      "inputs": [
        {
          "name": "certId",
          "type": "bytes32"
        }
      ],
      "name": "serialNumber",
      "outputs": [
        {
          "name": "",
          "type": "uint256"
        }
      ],
      "payable": false,
      "stateMutability": "view",
      "type": "function"
    },
    {
      "constant": true,
      "inputs": [
        {
          "name": "certId",
          "type": "bytes32"
        }
      ],
      "name": "validNotAfter",
      "outputs": [
        {
          "name": "",
          "type": "uint256"
        }
      ],
      "payable": false,
      "stateMutability": "view",
      "type": "function"
    },
    {
      "constant": true,
      "inputs": [
        {
          "name": "certId",
          "type": "bytes32"
        }
      ],
      "name": "cshx",
      "outputs": [
        {
          "name": "",
          "type": "bool"
        }
      ],
      "payable": false,
      "stateMutability": "view",
      "type": "function"
    },
    {
      "constant": true,
      "inputs": [
        {
          "name": "commonNameHash",
          "type": "bytes32"
        }
      ],
      "name": "toCertIdsLength",
      "outputs": [
        {
          "name": "",
          "type": "uint256"
        }
      ],
      "payable": false,
      "stateMutability": "view",
      "type": "function"
    },
    {
      "constant": false,
      "inputs": [
        {
          "name": "oid",
          "type": "bytes32"
        },
        {
          "name": "alg",
          "type": "address"
        }
      ],
      "name": "setAlg",
      "outputs": [],
      "payable": false,
      "stateMutability": "nonpayable",
      "type": "function"
    },
    {
      "constant": false,
      "inputs": [
        {
          "name": "_cshxOid",
          "type": "bytes32"
        }
      ],
      "name": "setCshxOid",
      "outputs": [],
      "payable": false,
      "stateMutability": "nonpayable",
      "type": "function"
    }
  ],
  "bytecode": "0x608060405234801561001057600080fd5b506040516040806126468339810180604052604081101561003057600080fd5b50805160209182015160008054600160a060020a0319908116331782557f2a864886f70d01010b000000000000000000000000000000000000000000000090915260059093527fd023811d84a5288e262cce8c09a69deafbfe5a0d34229f30bf1a47a2479509e88054600160a060020a039384169085161790556001805492909116919092161790557f551d13000000000000000000000000000000000000000000000000000000000060065561255a806100ec6000396000f3fe608060405234801561001057600080fd5b5060043610610132576000357c0100000000000000000000000000000000000000000000000000000000900480636d6f398e116100bf578063b841f2b21161008e578063b841f2b2146105a5578063bd29dec0146105c2578063c55dc2cc146105df578063dd9d24031461065c578063f2fde38b1461068857610132565b80636d6f398e1461043e57806373dc704e1461045b5780637c0656fd1461048c5780637e4961d81461051357610132565b80630f0e595e116101065780630f0e595e1461026c5780631c9168f3146102895780631fbfd9fe146102a657806337356fe2146102c35780634063d8121461037057610132565b806249c3f6146101375780630196d78d146101e157806302571be31461021657806303ea6ef71461024f575b600080fd5b6101df6004803603604081101561014d57600080fd5b81019060208101813564010000000081111561016857600080fd5b82018360208201111561017a57600080fd5b8035906020019184600183028401116401000000008311171561019c57600080fd5b91908080601f01602080910402602001604051908101604052809392919081815260200183838082843760009201919091525092955050505035151590506106ae565b005b610204600480360360408110156101f757600080fd5b50803590602001356107b3565b60408051918252519081900360200190f35b6102336004803603602081101561022c57600080fd5b50356107e3565b60408051600160a060020a039092168252519081900360200190f35b6102046004803603602081101561026557600080fd5b50356107fe565b6101df6004803603602081101561028257600080fd5b5035610813565b6102046004803603602081101561029f57600080fd5b503561082f565b610204600480360360208110156102bc57600080fd5b5035610841565b6101df600480360360608110156102d957600080fd5b8101906020810181356401000000008111156102f457600080fd5b82018360208201111561030657600080fd5b8035906020019184600183028401116401000000008311171561032857600080fd5b91908080601f01602080910402602001604051908101604052809392919081815260200183838082843760009201919091525092955050823593505050602001351515610856565b61038d6004803603602081101561038657600080fd5b503561132b565b6040518087600160a060020a0316600160a060020a031681526020018681526020018060200185815260200184815260200183151515158152602001828103825286818151815260200191508051906020019080838360005b838110156103fe5781810151838201526020016103e6565b50505050905090810190601f16801561042b5780820380516001836020036101000a031916815260200191505b5097505050505050505060405180910390f35b6102046004803603602081101561045457600080fd5b50356113f8565b6104786004803603602081101561047157600080fd5b5035611431565b604080519115158252519081900360200190f35b610494611449565b6040518080602001838152602001828103825284818151815260200191508051906020019080838360005b838110156104d75781810151838201526020016104bf565b50505050905090810190601f1680156105045780820380516001836020036101000a031916815260200191505b50935050505060405180910390f35b6105306004803603602081101561052957600080fd5b5035611487565b6040805160208082528351818301528351919283929083019185019080838360005b8381101561056a578181015183820152602001610552565b50505050905090810190601f1680156105975780820380516001836020036101000a031916815260200191505b509250505060405180910390f35b610204600480360360208110156105bb57600080fd5b5035611528565b610204600480360360208110156105d857600080fd5b503561153d565b610478600480360360808110156105f557600080fd5b8135919081019060408101602082013564010000000081111561061757600080fd5b82018360208201111561062957600080fd5b8035906020019184600183028401116401000000008311171561064b57600080fd5b91935091508035906020013561154f565b6101df6004803603604081101561067257600080fd5b5080359060200135600160a060020a03166117c6565b6101df6004803603602081101561069e57600080fd5b5035600160a060020a0316611852565b60006106b9836118e0565b90506106cb838263ffffffff6118ed16565b90506106dd838263ffffffff6118ed16565b90506106ef838263ffffffff6119a516565b9050610701838263ffffffff6119a516565b9050610713838263ffffffff6119a516565b9050610725838263ffffffff6119a516565b9050610737838263ffffffff6119a516565b9050610749838263ffffffff6119a516565b905061075b838263ffffffff6119bc16565b6002600061076f868563ffffffff6119ef16565b81526020019081526020016000206002019080519060200190610793929190612493565b506107ae836107a8818463ffffffff6119ef16565b84610856565b505050565b6003602052816000526040600020818154811015156107ce57fe5b90600052602060002001600091509150505481565b600090815260026020526040902054600160a060020a031690565b60009081526002602052604090206001015490565b600054600160a060020a0316331461082a57600080fd5b600655565b60046020526000908152604090205481565b60009081526002602052604090206003015490565b600080600080600080600061086a8a6118e0565b945061087c8a8663ffffffff6118ed16565b945061088e8a8663ffffffff6118ed16565b93506108a08a8563ffffffff6119a516565b93506108b28a8563ffffffff611a2216565b95506108c48a8563ffffffff6119a516565b93506108d68a8563ffffffff6118ed16565b93506108e88a8663ffffffff6119a516565b92506108fa8a8463ffffffff6119a516565b9250600560006109108c8763ffffffff611bb216565b815260208082019290925260409081016000908120548c8252600293849052919020600160a060020a039091169163de8f50a191016109558d8963ffffffff6119bc16565b6109658e8863ffffffff611be516565b6040517c010000000000000000000000000000000000000000000000000000000063ffffffff861602815260606004820190815284546002600019610100600184161502019091160460648301819052909182916024820191604481019160849091019088908015610a185780601f106109ed57610100808354040283529160200191610a18565b820191906000526020600020905b8154815290600101906020018083116109fb57829003601f168201915b5050848103835286518152865160209182019188019080838360005b83811015610a4c578181015183820152602001610a34565b50505050905090810190601f168015610a795780820380516001836020036101000a031916815260200191505b50848103825285518152855160209182019187019080838360005b83811015610aac578181015183820152602001610a94565b50505050905090810190601f168015610ad95780820380516001836020036101000a031916815260200191505b50965050505050505060206040518083038186803b158015610afa57600080fd5b505afa158015610b0e573d6000803e3d6000fd5b505050506040513d6020811015610b2457600080fd5b50511515610b7c576040805160e560020a62461bcd02815260206004820152601660248201527f5369676e617475726520646f65736e74206d6174636800000000000000000000604482015290519081900360640190fd5b610b8c8a8663ffffffff6118ed16565b9450610b9e8a8663ffffffff6119a516565b9450610bb08a8663ffffffff6119a516565b9450610bc28a8663ffffffff6119a516565b9450610bd48a8663ffffffff6119a516565b9450610be68a8663ffffffff6118ed16565b935042610c01610bfc8c8763ffffffff611be516565b611bfc565b1115610c57576040805160e560020a62461bcd02815260206004820152600c60248201527f496e76616c696420636572740000000000000000000000000000000000000000604482015290519081900360640190fd5b610c678a8563ffffffff6119a516565b9350610c7c610bfc8b8663ffffffff611be516565b905042811015610cd6576040805160e560020a62461bcd02815260206004820152600c60248201527f496e76616c696420636572740000000000000000000000000000000000000000604482015290519081900360640190fd5b610ce68a8663ffffffff6119a516565b9450610cf88a8663ffffffff6119a516565b9350610d0a8a8563ffffffff6119ef16565b9650888714610d4857610d238a8563ffffffff6119bc16565b60008881526002602081815260409092208351610d469491909201920190612493565b505b610d588a8663ffffffff6118ed16565b93505b610d65848661201b565b15610f2257610d7a8a8563ffffffff6118ed16565b9250610d8c8a8463ffffffff6118ed16565b9250610d9e8a8463ffffffff611bb216565b7f55040300000000000000000000000000000000000000000000000000000000001415610f0b57610dd58a8463ffffffff6119a516565b925060036000610deb8c8663ffffffff611be516565b6040517f0e0fb92400000000000000000000000000000000000000000000000000000000815260206004820181815283516024840152835173__ENSNamehash___________________________94630e0fb92494909383926044909201919085019080838360005b83811015610e6b578181015183820152602001610e53565b50505050905090810190601f168015610e985780820380516001836020036101000a031916815260200191505b509250505060206040518083038186803b158015610eb557600080fd5b505af4158015610ec9573d6000803e3d6000fd5b505050506040513d6020811015610edf57600080fd5b505181526020818101929092526040016000908120805460018101825590825291902001879055610f22565b610f1b8a8563ffffffff6119a516565b9350610d5b565b886002600089815260200190815260200160002060010181905550856002600089815260200190815260200160002060030181905550806002600089815260200190815260200160002060040181905550866004600060028d6040518082805190602001908083835b60208310610faa5780518252601f199092019160209182019101610f8b565b51815160209384036101000a60001901801990921691161790526040519190930194509192505080830381855afa158015610fe9573d6000803e3d6000fd5b5050506040513d6020811015610ffe57600080fd5b505181526020810191909152604001600020556110218a8663ffffffff6119a516565b94506110338a8663ffffffff6119a516565b94506110458a8663ffffffff6118ed16565b94506110578a8663ffffffff6118ed16565b93505b611064848661201b565b156112ec576110798a8563ffffffff6118ed16565b925087801561109857506006546110968b8563ffffffff611bb216565b145b156110c0576000878152600260205260408120600501805460ff1916600117905597506112d5565b6110d08a8463ffffffff611bb216565b7f551d11000000000000000000000000000000000000000000000000000000000014156112d5576111078a8463ffffffff6119a516565b92506111198a8463ffffffff61208916565b925061112b8a8463ffffffff6118ed16565b90505b611138818461201b565b156112c95761114d8a8263ffffffff611be516565b6040517f0e0fb92400000000000000000000000000000000000000000000000000000000815260206004820181815283516024840152835173__ENSNamehash___________________________94630e0fb92494909383926044909201919085019080838360005b838110156111cd5781810151838201526020016111b5565b50505050905090810190601f1680156111fa5780820380516001836020036101000a031916815260200191505b509250505060206040518083038186803b15801561121757600080fd5b505af415801561122b573d6000803e3d6000fd5b505050506040513d602081101561124157600080fd5b5051600081815260036020526040902054909250158061128b575060008281526003602052604090208054889190600019810190811061127d57fe5b906000526020600020015414155b156112b2576000828152600360209081526040822080546001810182559083529120018790555b6112c28a8263ffffffff6119a516565b905061112e565b8715156112d5576112ec565b6112e58a8563ffffffff6119a516565b935061105a565b6040805188815290517fa8bcd2c977618c00f7fed703adeb0977d9b57eb1f309214e668e87ca390c51379181900360200190a150505050505050505050565b600260208181526000928352604092839020805460018083015483860180548851601f60001995831615610100029590950190911697909704928301869004860287018601909752818652600160a060020a0390921695919492938301828280156113d75780601f106113ac576101008083540402835291602001916113d7565b820191906000526020600020905b8154815290600101906020018083116113ba57829003601f168201915b50505050600383015460048401546005909401549293909290915060ff1686565b6000815b600081815260026020526040902060010154811461142b576000908152600260205260409020600101546113fc565b92915050565b60009081526002602052604090206005015460ff1690565b604080516c01000000000000000000000000330260208201526000194301804060348084019190915283518084039091018152605490920190925291565b6000818152600260208181526040928390208201805484516001821615610100026000190190911693909304601f8101839004830284018301909452838352606093909183018282801561151c5780601f106114f15761010080835404028352916020019161151c565b820191906000526020600020905b8154815290600101906020018083116114ff57829003601f168201915b50505050509050919050565b60009081526002602052604090206004015490565b60009081526003602052604090205490565b60006060610100438590031061156457600080fd5b50604080516c01000000000000000000000000330260208083019190915285406034808401919091528351808403909101815260548301808552600087815260058452858120548c82526002948590529590207fde8f50a100000000000000000000000000000000000000000000000000000000909152606060588501908152908301805460001960018216156101000201169390930460b885018190529194600160a060020a03169363de8f50a1939286928c928c9282916078810191609882019160d801908990801561167a5780601f1061164f5761010080835404028352916020019161167a565b820191906000526020600020905b81548152906001019060200180831161165d57829003601f168201915b5050848103835287518152875160209182019189019080838360005b838110156116ae578181015183820152602001611696565b50505050905090810190601f1680156116db5780820380516001836020036101000a031916815260200191505b508481038252858152602001868680828437600081840152601f19601f82011690508083019250505097505050505050505060206040518083038186803b15801561172557600080fd5b505afa158015611739573d6000803e3d6000fd5b505050506040513d602081101561174f57600080fd5b5051151561175c57600080fd5b600087815260026020908152604091829020805473ffffffffffffffffffffffffffffffffffffffff191633179055815189815291517f5c088381a25fb06fe5d3936d0346b98d68146eea6dd3801386069db26fbac84f9281900390910190a15095945050505050565b600054600160a060020a031633146117dd57600080fd5b600082815260056020908152604091829020805473ffffffffffffffffffffffffffffffffffffffff1916600160a060020a03851690811790915582518581529182015281517f65146a769582c865299fe09a84142c84d0f1d4df1dbaaaf2301857e665beb2d7929181900390910190a15050565b600054600160a060020a0316331461186957600080fd5b60005460408051600160a060020a039283168152918316602083015280517f7699c77f2404f9b6bbd003861bb4af8ae70b205e19e73d7ec7fe4590db59a6b79281900390910190a16000805473ffffffffffffffffffffffffffffffffffffffff1916600160a060020a0392909216919091179055565b600061142b826000612133565b6000826118f9836122d8565b8151811061190357fe5b01602001517f200000000000000000000000000000000000000000000000000000000000000060f860020a9182900490910281161461198c576040805160e560020a62461bcd02815260206004820152601660248201527f4e6f74206120636f6e7374727563746564207479706500000000000000000000604482015290519081900360640190fd5b61199e83611999846122e7565b612133565b9392505050565b600061199e836119b484612304565b600101612133565b606061199e6119ca836122d8565b6119d3846122d8565b6119dc85612304565b869291900360010163ffffffff61232b16565b600061199e6119fd836122d8565b611a06846122d8565b611a0f85612304565b869291900360010163ffffffff61238e16565b600082611a2e836122d8565b81518110611a3857fe5b90602001015160f860020a900460f860020a027effffffffffffffffffffffffffffffffffffffffffffffffffffffffffffff1916600260f860020a02141515611acc576040805160e560020a62461bcd02815260206004820152601060248201527f4e6f74207479706520494e544547455200000000000000000000000000000000604482015290519081900360640190fd5b82611ad6836122e7565b81518110611ae057fe5b60209101015160f860020a90819004027f80000000000000000000000000000000000000000000000000000000000000001615611b67576040805160e560020a62461bcd02815260206004820152600c60248201527f4e6f7420706f7369746976650000000000000000000000000000000000000000604482015290519081900360640190fd5b6000611b72836122e7565b611b7b84612304565b60010103905080602003600802611ba2611b94856122e7565b86908463ffffffff6123ab16565b60029190910a9004949350505050565b600061199e611bc0836122e7565b611bc9846122e7565b611bd285612304565b869291900360010163ffffffff6123ab16565b606061199e611bf3836122e7565b6119d3846122e7565b6000806000806000806000808851600d1415611c6257600560308a6000815181101515611c2557fe5b90602001015160f860020a900460f860020a0260f860020a90040360ff161015611c55576107d087019650611c5d565b61076c870196505b611cd1565b6030896001815181101515611c7357fe5b90602001015160f860020a900460f860020a0260f860020a90040360640260ff1660308a6000815181101515611ca557fe5b90602001015160f860020a900460f860020a0260f860020a90040360ff166103e8020187019650600290505b6030898260010160ff16815181101515611ce757fe5b90602001015160f860020a900460f860020a0260f860020a900460308b8460000160ff16815181101515611d1757fe5b90602001015160f860020a900460f860020a0260f860020a900403600a02010360ff16870196506030898260030160ff16815181101515611d5457fe5b90602001015160f860020a900460f860020a0260f860020a900460308b8460020160ff16815181101515611d8457fe5b90602001015160f860020a900460f860020a0260f860020a900403600a02010395506030898260050160ff16815181101515611dbc57fe5b90602001015160f860020a900460f860020a0260f860020a900460308b8460040160ff16815181101515611dec57fe5b90602001015160f860020a900460f860020a0260f860020a900403600a020103850194506030898260070160ff16815181101515611e2657fe5b90602001015160f860020a900460f860020a0260f860020a900460308b8460060160ff16815181101515611e5657fe5b90602001015160f860020a900460f860020a0260f860020a900403600a020103840193506030898260090160ff16815181101515611e9057fe5b90602001015160f860020a900460f860020a0260f860020a900460308b8460080160ff16815181101515611ec057fe5b90602001015160f860020a900460f860020a0260f860020a900403600a0201038301925060308982600b0160ff16815181101515611efa57fe5b90602001015160f860020a900460f860020a0260f860020a900460308b84600a0160ff16815181101515611f2a57fe5b60209101810151600154604080517f9054bdec00000000000000000000000000000000000000000000000000000000815261ffff8f16600482015260ff8e811660248301528d811660448301528c811660648301528b8116608483015260f860020a9485900485029490940495909503600a0295909501959095039690960195861660a48301529151600160a060020a0390931692639054bdec9260c480840193919291829003018186803b158015611fe257600080fd5b505afa158015611ff6573d6000803e3d6000fd5b505050506040513d602081101561200c57600080fd5b50519998505050505050505050565b6000612026826122d8565b61202f846122e7565b1115801561204d575061204183612304565b61204a83612304565b11155b8061199e575061205c836122d8565b612065836122e7565b1115801561199e575061207782612304565b61208084612304565b11159392505050565b600082612095836122d8565b8151811061209f57fe5b90602001015160f860020a900460f860020a027effffffffffffffffffffffffffffffffffffffffffffffffffffffffffffff1916600460f860020a0214151561198c576040805160e560020a62461bcd02815260206004820152601560248201527f4e6f742074797065204f4354455420535452494e470000000000000000000000604482015290519081900360640190fd5b600080600080858560010181518110151561214a57fe5b60209101015160f860020a90819004027f80000000000000000000000000000000000000000000000000000000000000001615156121d157858560010181518110151561219357fe5b90602001015160f860020a900460f860020a0260f860020a900460ff1692508460020191506001838369ffffffffffffffffffff16010390506122ab565b600086866001018151811015156121e457fe5b90602001015160f860020a900460f860020a02607f60f860020a021660f860020a900490508060ff166001141561223257612228876002880163ffffffff6123e516565b60ff16935061228c565b8060ff166002141561225c57612251876002880163ffffffff61240516565b61ffff16935061228c565b8060200360080260ff16612281876002018360ff168a6123ab9092919063ffffffff16565b60029190910a900493505b60ff16850160020191505060001969ffffffffffffffffffff82168301015b6122ce858369ffffffffffffffffffff168369ffffffffffffffffffff16612426565b9695505050505050565b69ffffffffffffffffffff1690565b6a0100000000000000000000900469ffffffffffffffffffff1690565b74010000000000000000000000000000000000000000900469ffffffffffffffffffff1690565b8251606090838301111561233e57600080fd5b6060826040519080825280601f01601f19166020018201604052801561236b576020820181803883390190505b50905060208082019086860101612383828287612455565b509095945050505050565b825160009083830111156123a157600080fd5b5091016020012090565b600060208211156123bb57600080fd5b835183830111156123cb57600080fd5b506020919092018101519190036101000a60001901191690565b81516000906001830111156123f957600080fd5b50016001015160ff1690565b815160009060028301111561241957600080fd5b50016002015161ffff1690565b74010000000000000000000000000000000000000000026a010000000000000000000091909102919091171790565b5b60208110612475578151835260209283019290910190601f1901612456565b905182516020929092036101000a6000190180199091169116179052565b828054600181600116156101000203166002900490600052602060002090601f016020900481019282601f106124d457805160ff1916838001178555612501565b82800160010185558215612501579182015b828111156125015782518255916020019190600101906124e6565b5061250d929150612511565b5090565b61252b91905b8082111561250d5760008155600101612517565b9056fea165627a7a7230582036cdd4f455c018529c7fc2197340ada19dcb98243d278881c9fcbfa3f518a33e0029",
  "source": "pragma solidity  ^0.5.2;\r\n\r\nimport \"./Ownable.sol\";\r\nimport \"asn1-decode/contracts/Asn1Decode.sol\";\r\n//import \"solidity-bytes-utils/contracts/BytesUtils.sol\";\r\nimport \"sig-verify-algs/contracts/Algorithm.sol\";\r\nimport \"ens-namehash/contracts/ENSNamehash.sol\";\r\nimport \"ethereum-datetime/contracts/DateTime.sol\";\r\n\r\n/*\r\n * @dev Stores validated X.509 certificate chains in parent pointer trees.\r\n * @dev The root of each tree is a CA root certificate\r\n */\r\ncontract X509ForestOfTrust is Ownable {\r\n  using Asn1Decode for bytes;\r\n  using ENSNamehash for bytes;\r\n\r\n  constructor(address sha256WithRSAEncryption, address _dateTime) public {\r\n    bytes32 oid = 0x2a864886f70d01010b0000000000000000000000000000000000000000000000;\r\n    algs[oid] = Algorithm(sha256WithRSAEncryption);\r\n    dateTime = DateTime(_dateTime);\r\n    cshxOid = 0x551d130000000000000000000000000000000000000000000000000000000000; // change to actual oid of canSignHttpExchanges\r\n  }\r\n\r\n  DateTime dateTime;\r\n\r\n  struct Certificate {\r\n    address owner;\r\n    bytes32 parentId;\r\n    bytes pubKey;\r\n    uint serialNumber;\r\n    uint validNotAfter;\r\n    bool cshx; // canSignHttpExchanges\r\n  }\r\n  // certId => cert  (certId is keccak256(cert.pubKey))\r\n  mapping (bytes32 => Certificate) public certs;\r\n  // ensNamehash(commonName) => certId  OR  ensNamehash(subjectAltName) => certId\r\n  mapping (bytes32 => bytes32[]) public toCertIds;\r\n  // sha256Fingerprint => certId\r\n  mapping (bytes32 => bytes32) public toCertId;\r\n  // Signature verification contracts\r\n  mapping(bytes32 => Algorithm) private algs;\r\n  // OID of canSignHttpExchanges since spec may change\r\n  bytes32 private cshxOid;\r\n\r\n  event CertAdded(bytes32);\r\n  event CertClaimed(bytes32);\r\n  event AlgSet(bytes32, address);\r\n\r\n  /*\r\n   * @dev Add a self-signed X.509 certificate to the root of a new tree\r\n   * @param cert A DER-encoded self-signed X.509 certificate\r\n   * @param cshx Look for canSignHttpExchanges extension\r\n   */\r\n  function addRootCert(bytes memory cert, bool cshx)\r\n  public\r\n  {\r\n    uint node;\r\n    // Get pub key\r\n    node = cert.root();\r\n    node = cert.firstChildOf(node);\r\n    node = cert.firstChildOf(node);\r\n    node = cert.nextSiblingOf(node);\r\n    node = cert.nextSiblingOf(node);\r\n    node = cert.nextSiblingOf(node);\r\n    node = cert.nextSiblingOf(node);\r\n    node = cert.nextSiblingOf(node);\r\n    node = cert.nextSiblingOf(node);\r\n    // Set parent/self pub key\r\n    certs[cert.keccakOfAllBytesAt(node)].pubKey = cert.allBytesAt(node);\r\n    addCert(cert, cert.keccakOfAllBytesAt(node), cshx);\r\n  }\r\n\r\n  /*\r\n   * @dev Add a X.509 certificate to an existing tree/chain\r\n   * @param cert A DER-encoded X.509 certificate\r\n   * @param parentId The keccak256 hash of parent cert's public key\r\n   * @param cshx Look for canSignHttpExchanges extension\r\n   */\r\n  function addCert(bytes memory cert, bytes32 parentId, bool cshx)\r\n  public\r\n  {\r\n    bytes32 certId;\r\n    uint serialNumber;\r\n    uint node1;\r\n    uint node2;\r\n    uint node3;\r\n    bytes32 tempB;\r\n    uint tempU;\r\n\r\n    node1 = cert.root();\r\n    node1 = cert.firstChildOf(node1);\r\n    node2 = cert.firstChildOf(node1);\r\n    node2 = cert.nextSiblingOf(node2);\r\n    // Extract serial number\r\n    serialNumber = cert.uintAt(node2);\r\n\r\n    node2 = cert.nextSiblingOf(node2);\r\n    node2 = cert.firstChildOf(node2);\r\n    node3 = cert.nextSiblingOf(node1);\r\n    node3 = cert.nextSiblingOf(node3);\r\n    // Verify signature\r\n    require( algs[cert.bytes32At(node2)].verify(certs[parentId].pubKey, cert.allBytesAt(node1), cert.bytesAt(node3)), \"Signature doesnt match\");\r\n\r\n    node1 = cert.firstChildOf(node1);\r\n    node1 = cert.nextSiblingOf(node1);\r\n    node1 = cert.nextSiblingOf(node1);\r\n    node1 = cert.nextSiblingOf(node1);\r\n    node1 = cert.nextSiblingOf(node1);\r\n\r\n    node2 = cert.firstChildOf(node1);\r\n    // Check validNotBefore\r\n    require(toTimestamp(cert.bytesAt(node2)) <= now, \"Invalid cert\");\r\n    node2 = cert.nextSiblingOf(node2);\r\n    // Check validNotAfter\r\n    tempU = toTimestamp(cert.bytesAt(node2));\r\n    require(now <= tempU, \"Invalid cert\");\r\n\r\n    node1 = cert.nextSiblingOf(node1);\r\n    node2 = cert.nextSiblingOf(node1);\r\n    // Get public key and calculate certId from it\r\n    certId = cert.keccakOfAllBytesAt(node2);\r\n    if (certId != parentId)\r\n      certs[certId].pubKey = cert.allBytesAt(node2);\r\n\r\n    // Get commonName and add references from it\r\n    node2 = cert.firstChildOf(node1);\r\n    while (Asn1Decode.isChildOf(node2, node1)) {\r\n      node3 = cert.firstChildOf(node2);\r\n      node3 = cert.firstChildOf(node3);\r\n      if ( cert.bytes32At(node3) == 0x5504030000000000000000000000000000000000000000000000000000000000 ) {\r\n        node3 = cert.nextSiblingOf(node3);\r\n        toCertIds[cert.bytesAt(node3).namehash()].push(certId);\r\n        break;\r\n      }\r\n      node2 = cert.nextSiblingOf(node2);\r\n    }\r\n\r\n    certs[certId].parentId = parentId;\r\n    certs[certId].serialNumber = serialNumber;\r\n    certs[certId].validNotAfter = tempU;\r\n\r\n    // Add reference from sha256 fingerprint\r\n    toCertId[sha256(cert)] = certId;\r\n\r\n    node1 = cert.nextSiblingOf(node1);\r\n    node1 = cert.nextSiblingOf(node1);\r\n    node1 = cert.firstChildOf(node1);\r\n    node2 = cert.firstChildOf(node1);\r\n    while (Asn1Decode.isChildOf(node2, node1)) {\r\n      node3 = cert.firstChildOf(node2);\r\n      if (cshx && cert.bytes32At(node3) == cshxOid) {\r\n        certs[certId].cshx = true;\r\n        cshx = false;\r\n      }\r\n      // Subject Alternative Name\r\n      else if (cert.bytes32At(node3) == 0x551d110000000000000000000000000000000000000000000000000000000000 ) {\r\n        node3 = cert.nextSiblingOf(node3);\r\n        node3 = cert.rootOfOctetStringAt(node3);\r\n        tempU = cert.firstChildOf(node3);\r\n        while (Asn1Decode.isChildOf(tempU, node3)) {\r\n          tempB = cert.bytesAt(tempU).namehash();\r\n          if (toCertIds[tempB].length == 0 || toCertIds[tempB][toCertIds[tempB].length-1] != certId)\r\n            toCertIds[tempB].push(certId);\r\n          tempU = cert.nextSiblingOf(tempU);\r\n        }\r\n        if (!cshx) break;\r\n      }\r\n      node2 = cert.nextSiblingOf(node2);\r\n    }\r\n\r\n    // Fire event\r\n    emit CertAdded(certId);\r\n  }\r\n\r\n  /**\r\n   * @dev The return values of this function are used to proveOwnership() of a\r\n   *      certificate that exists in the certs mapping.\r\n   * @return Some unique bytes to be signed\r\n   * @return The block number used to create the first return value\r\n   */\r\n  function signThis()\r\n  external view returns (bytes memory, uint)\r\n  {\r\n    return ( abi.encodePacked(msg.sender, blockhash(block.number - 1)), block.number -1 );\r\n  }\r\n\r\n  /**\r\n   * @dev An account calls this method to prove ownership of a certificate.\r\n   *      If successful, certs[certId].owner will be set to caller's address.\r\n   * @param certId The keccak256 hash of target certificate's public key\r\n   * @param signature signThis()[0] signed with certificate's private key\r\n   * @param blockNumber The value of signThis()[1] (must be > block.number - 256)\r\n   * @param sigAlg The OID of the algorithm used to sign `signature`\r\n   */\r\n  function proveOwnership(bytes32 certId, bytes calldata signature, uint blockNumber, bytes32 sigAlg)\r\n  external returns (bool)\r\n  {\r\n    bytes memory message;\r\n    // Only accept proof if it's less than 256 blocks old\r\n    // This is the most time I can give since blockhash() can only return the 256 most recent\r\n    require( block.number - blockNumber < 256 );\r\n    // Verify signature, which proves ownership\r\n    message = abi.encodePacked(msg.sender, blockhash(blockNumber));\r\n    require( algs[sigAlg].verify(certs[certId].pubKey, message, signature) );\r\n\r\n    certs[certId].owner = msg.sender;\r\n\r\n    emit CertClaimed(certId);\r\n  }\r\n\r\n  function rootOf(bytes32 certId)\r\n  external view returns (bytes32)\r\n  {\r\n    bytes32 id = certId;\r\n    while (id != certs[id].parentId) {\r\n      id = certs[id].parentId;\r\n    }\r\n    return id;\r\n  }\r\n\r\n  function owner(bytes32 certId)\r\n  external view returns (address)\r\n  {\r\n    return certs[certId].owner;\r\n  }\r\n\r\n  function parentId(bytes32 certId)\r\n  external view returns (bytes32)\r\n  {\r\n    return certs[certId].parentId;\r\n  }\r\n\r\n  function pubKey(bytes32 certId)\r\n  external view returns (bytes memory)\r\n  {\r\n    return certs[certId].pubKey;\r\n  }\r\n\r\n  function serialNumber(bytes32 certId)\r\n  external view returns (uint)\r\n  {\r\n    return certs[certId].serialNumber;\r\n  }\r\n\r\n  function validNotAfter(bytes32 certId)\r\n  external view returns (uint)\r\n  {\r\n    return certs[certId].validNotAfter;\r\n  }\r\n\r\n  function cshx(bytes32 certId)\r\n  external view returns (bool)\r\n  {\r\n    return certs[certId].cshx;\r\n  }\r\n\r\n  function toCertIdsLength(bytes32 commonNameHash)\r\n  external view returns (uint)\r\n  {\r\n    return toCertIds[commonNameHash].length;\r\n  }\r\n\r\n  function toTimestamp(bytes memory x509Time)\r\n  private view returns (uint)\r\n  {\r\n    uint16 yrs;  uint8 mnths;\r\n    uint8  dys;  uint8 hrs;\r\n    uint8  mins; uint8 secs;\r\n    uint8  offset;\r\n\r\n    if (x509Time.length == 13) {\r\n      if (uint8(x509Time[0])-48 < 5) yrs += 2000;\r\n      else yrs += 1900;\r\n    }\r\n    else {\r\n      yrs += (uint8(x509Time[0])-48) * 1000 + (uint8(x509Time[1])-48) * 100;\r\n      offset = 2;\r\n    }\r\n    yrs +=  (uint8(x509Time[offset+0])-48)*10 + uint8(x509Time[offset+1])-48;\r\n    mnths = (uint8(x509Time[offset+2])-48)*10 + uint8(x509Time[offset+3])-48;\r\n    dys +=  (uint8(x509Time[offset+4])-48)*10 + uint8(x509Time[offset+5])-48;\r\n    hrs +=  (uint8(x509Time[offset+6])-48)*10 + uint8(x509Time[offset+7])-48;\r\n    mins += (uint8(x509Time[offset+8])-48)*10 + uint8(x509Time[offset+9])-48;\r\n    secs += (uint8(x509Time[offset+10])-48)*10 + uint8(x509Time[offset+11])-48;\r\n\r\n    return dateTime.toTimestamp(yrs, mnths, dys, hrs, mins, secs);\r\n  }\r\n\r\n  function setAlg(bytes32 oid, address alg)\r\n  external onlyOwner\r\n  {\r\n    algs[oid] = Algorithm(alg);\r\n    emit AlgSet(oid, alg);\r\n  }\r\n\r\n  function setCshxOid(bytes32 _cshxOid)\r\n  external onlyOwner\r\n  {\r\n    cshxOid = _cshxOid;\r\n  }\r\n}\r\n",
  "sourcePath": "x509-forest-of-trust/contracts/X509ForestOfTrust.sol",
  "compiler": {
    "name": "solc",
    "version": "0.5.2+commit.1df8f40c.Emscripten.clang"
  },
  "schemaVersion": "3.0.6",
  "updatedAt": "2019-04-21T23:43:46.533Z",
  "devdoc": {
    "methods": {
      "proveOwnership(bytes32,bytes,uint256,bytes32)": {
        "details": "An account calls this method to prove ownership of a certificate.\r     If successful, certs[certId].owner will be set to caller's address.\r",
        "params": {
          "blockNumber": "The value of signThis()[1] (must be > block.number - 256)\r",
          "certId": "The keccak256 hash of target certificate's public key\r",
          "sigAlg": "The OID of the algorithm used to sign `signature`\r",
          "signature": "signThis()[0] signed with certificate's private key\r"
        }
      },
      "signThis()": {
        "details": "The return values of this function are used to proveOwnership() of a\r     certificate that exists in the certs mapping.\r",
        "return": "Some unique bytes to be signed\rThe block number used to create the first return value\r"
      }
    }
  },
  "userdoc": {
    "methods": {}
  }
}