{
  "contractName": "X509ForestOfTrust",
  "abi": [
    {
      "constant": true,
      "inputs": [
        {
          "name": "",
          "type": "bytes32"
        },
        {
          "name": "",
          "type": "uint256"
        }
      ],
      "name": "toCertIds",
      "outputs": [
        {
          "name": "",
          "type": "bytes32"
        }
      ],
      "payable": false,
      "stateMutability": "view",
      "type": "function"
    },
    {
      "constant": true,
      "inputs": [
        {
          "name": "",
          "type": "bytes32"
        }
      ],
      "name": "toCertId",
      "outputs": [
        {
          "name": "",
          "type": "bytes32"
        }
      ],
      "payable": false,
      "stateMutability": "view",
      "type": "function"
    },
    {
      "constant": false,
      "inputs": [
        {
          "name": "newOwner",
          "type": "address"
        }
      ],
      "name": "transferOwnership",
      "outputs": [],
      "payable": false,
      "stateMutability": "nonpayable",
      "type": "function"
    },
    {
      "inputs": [
        {
          "name": "sha256WithRSAEncryption",
          "type": "address"
        },
        {
          "name": "_dateTime",
          "type": "address"
        }
      ],
      "payable": false,
      "stateMutability": "nonpayable",
      "type": "constructor"
    },
    {
      "anonymous": false,
      "inputs": [
        {
          "indexed": false,
          "name": "",
          "type": "bytes32"
        }
      ],
      "name": "CertAdded",
      "type": "event"
    },
    {
      "anonymous": false,
      "inputs": [
        {
          "indexed": false,
          "name": "",
          "type": "bytes32"
        },
        {
          "indexed": false,
          "name": "",
          "type": "address"
        }
      ],
      "name": "CertClaimed",
      "type": "event"
    },
    {
      "anonymous": false,
      "inputs": [
        {
          "indexed": false,
          "name": "",
          "type": "bytes32"
        },
        {
          "indexed": false,
          "name": "",
          "type": "address"
        }
      ],
      "name": "AlgSet",
      "type": "event"
    },
    {
      "anonymous": false,
      "inputs": [
        {
          "indexed": false,
          "name": "",
          "type": "address"
        },
        {
          "indexed": false,
          "name": "",
          "type": "address"
        }
      ],
      "name": "ownershipTransferred",
      "type": "event"
    },
    {
      "constant": false,
      "inputs": [
        {
          "name": "cert",
          "type": "bytes"
        },
        {
          "name": "parentPubKey",
          "type": "bytes"
        }
      ],
      "name": "addCert",
      "outputs": [],
      "payable": false,
      "stateMutability": "nonpayable",
      "type": "function"
    },
    {
      "constant": true,
      "inputs": [],
      "name": "signThis",
      "outputs": [
        {
          "name": "",
          "type": "bytes"
        },
        {
          "name": "",
          "type": "uint256"
        }
      ],
      "payable": false,
      "stateMutability": "view",
      "type": "function"
    },
    {
      "constant": false,
      "inputs": [
        {
          "name": "pubKey",
          "type": "bytes"
        },
        {
          "name": "signature",
          "type": "bytes"
        },
        {
          "name": "blockNumber",
          "type": "uint256"
        },
        {
          "name": "sigAlg",
          "type": "bytes32"
        }
      ],
      "name": "proveOwnership",
      "outputs": [],
      "payable": false,
      "stateMutability": "nonpayable",
      "type": "function"
    },
    {
      "constant": true,
      "inputs": [
        {
          "name": "certId",
          "type": "bytes32"
        }
      ],
      "name": "rootOf",
      "outputs": [
        {
          "name": "",
          "type": "bytes32"
        }
      ],
      "payable": false,
      "stateMutability": "view",
      "type": "function"
    },
    {
      "constant": true,
      "inputs": [
        {
          "name": "certId",
          "type": "bytes32"
        }
      ],
      "name": "owner",
      "outputs": [
        {
          "name": "",
          "type": "address"
        }
      ],
      "payable": false,
      "stateMutability": "view",
      "type": "function"
    },
    {
      "constant": true,
      "inputs": [
        {
          "name": "certId",
          "type": "bytes32"
        }
      ],
      "name": "parentId",
      "outputs": [
        {
          "name": "",
          "type": "bytes32"
        }
      ],
      "payable": false,
      "stateMutability": "view",
      "type": "function"
    },
    {
      "constant": true,
      "inputs": [
        {
          "name": "certId",
          "type": "bytes32"
        }
      ],
      "name": "timestamp",
      "outputs": [
        {
          "name": "",
          "type": "uint40"
        }
      ],
      "payable": false,
      "stateMutability": "view",
      "type": "function"
    },
    {
      "constant": true,
      "inputs": [
        {
          "name": "certId",
          "type": "bytes32"
        }
      ],
      "name": "serialNumber",
      "outputs": [
        {
          "name": "",
          "type": "uint160"
        }
      ],
      "payable": false,
      "stateMutability": "view",
      "type": "function"
    },
    {
      "constant": true,
      "inputs": [
        {
          "name": "certId",
          "type": "bytes32"
        }
      ],
      "name": "validNotBefore",
      "outputs": [
        {
          "name": "",
          "type": "uint40"
        }
      ],
      "payable": false,
      "stateMutability": "view",
      "type": "function"
    },
    {
      "constant": true,
      "inputs": [
        {
          "name": "certId",
          "type": "bytes32"
        }
      ],
      "name": "validNotAfter",
      "outputs": [
        {
          "name": "",
          "type": "uint40"
        }
      ],
      "payable": false,
      "stateMutability": "view",
      "type": "function"
    },
    {
      "constant": true,
      "inputs": [
        {
          "name": "certId",
          "type": "bytes32"
        }
      ],
      "name": "sxg",
      "outputs": [
        {
          "name": "",
          "type": "bool"
        }
      ],
      "payable": false,
      "stateMutability": "view",
      "type": "function"
    },
    {
      "constant": true,
      "inputs": [
        {
          "name": "certId",
          "type": "bytes32"
        }
      ],
      "name": "basicConstraints",
      "outputs": [
        {
          "name": "",
          "type": "bool"
        },
        {
          "name": "",
          "type": "uint8"
        }
      ],
      "payable": false,
      "stateMutability": "view",
      "type": "function"
    },
    {
      "constant": true,
      "inputs": [
        {
          "name": "certId",
          "type": "bytes32"
        }
      ],
      "name": "keyUsage",
      "outputs": [
        {
          "name": "",
          "type": "bool"
        },
        {
          "name": "",
          "type": "bool[9]"
        }
      ],
      "payable": false,
      "stateMutability": "view",
      "type": "function"
    },
    {
      "constant": true,
      "inputs": [
        {
          "name": "certId",
          "type": "bytes32"
        }
      ],
      "name": "keyUsageCritical",
      "outputs": [
        {
          "name": "",
          "type": "bool"
        }
      ],
      "payable": false,
      "stateMutability": "view",
      "type": "function"
    },
    {
      "constant": true,
      "inputs": [
        {
          "name": "certId",
          "type": "bytes32"
        }
      ],
      "name": "extKeyUsage",
      "outputs": [
        {
          "name": "",
          "type": "bool"
        },
        {
          "name": "",
          "type": "bytes32[]"
        }
      ],
      "payable": false,
      "stateMutability": "view",
      "type": "function"
    },
    {
      "constant": true,
      "inputs": [
        {
          "name": "certId",
          "type": "bytes32"
        }
      ],
      "name": "extKeyUsageCritical",
      "outputs": [
        {
          "name": "",
          "type": "bool"
        }
      ],
      "payable": false,
      "stateMutability": "view",
      "type": "function"
    },
    {
      "constant": true,
      "inputs": [
        {
          "name": "certId",
          "type": "bytes32"
        }
      ],
      "name": "unparsedCriticalExtensionPresent",
      "outputs": [
        {
          "name": "",
          "type": "bool"
        }
      ],
      "payable": false,
      "stateMutability": "view",
      "type": "function"
    },
    {
      "constant": true,
      "inputs": [
        {
          "name": "certId",
          "type": "bytes32"
        }
      ],
      "name": "extId",
      "outputs": [
        {
          "name": "",
          "type": "bytes32"
        }
      ],
      "payable": false,
      "stateMutability": "view",
      "type": "function"
    },
    {
      "constant": true,
      "inputs": [
        {
          "name": "_hash",
          "type": "bytes32"
        }
      ],
      "name": "toCertIdsLength",
      "outputs": [
        {
          "name": "",
          "type": "uint256"
        }
      ],
      "payable": false,
      "stateMutability": "view",
      "type": "function"
    },
    {
      "constant": false,
      "inputs": [
        {
          "name": "oid",
          "type": "bytes32"
        },
        {
          "name": "alg",
          "type": "address"
        }
      ],
      "name": "setAlg",
      "outputs": [],
      "payable": false,
      "stateMutability": "nonpayable",
      "type": "function"
    },
    {
      "constant": false,
      "inputs": [
        {
          "name": "sxgOid",
          "type": "bytes32"
        }
      ],
      "name": "setSxgOid",
      "outputs": [],
      "payable": false,
      "stateMutability": "nonpayable",
      "type": "function"
    }
  ],
  "bytecode": "0x60806040526000805460a060020a60f060020a0319167d2b06010401d679020116000000000000000000000000000000000000000017905534801561004357600080fd5b5060405160408061301d8339810180604052604081101561006357600080fd5b50805160209182015160008054600160a060020a0319908116331782557f2a864886f70d01010b000000000000000000000000000000000000000000000090915260029093527f94ce0386011b8baded3f9e1d439ff262855015cc43ed56e2b10d8d3cfc28cab48054600160a060020a03938416908516179055600580549290911691909216179055612f22806100fb6000396000f3fe608060405234801561001057600080fd5b5060043610610175576000357c010000000000000000000000000000000000000000000000000000000090048063885ffae1116100e0578063c385568211610099578063c38556821461057f578063d6be188c146105fb578063dd9d240314610618578063dde301a214610644578063f2fde38b1461070c578063f6cc68151461073257610175565b8063885ffae1146104b45780638d5711c9146104d1578063b161fa77146104ee578063b7a3870d1461050b578063b841f2b214610545578063bd29dec01461056257610175565b80634d003070116101325780634d00307014610276578063525d21db146102935780636d6f398e146103c25780636eaba09e146103df5780636fe2875c146104105780637c0656fd1461042d57610175565b80630196d78d1461017a57806302571be3146101af57806303ea6ef7146101e857806317932046146102055780631c9168f31461023c5780631fbfd9fe14610259575b600080fd5b61019d6004803603604081101561019057600080fd5b5080359060200135610791565b60408051918252519081900360200190f35b6101cc600480360360208110156101c557600080fd5b50356107c1565b60408051600160a060020a039092168252519081900360200190f35b61019d600480360360208110156101fe57600080fd5b50356107dc565b6102226004803603602081101561021b57600080fd5b50356107f2565b6040805164ffffffffff9092168252519081900360200190f35b61019d6004803603602081101561025257600080fd5b503561082b565b6101cc6004803603602081101561026f57600080fd5b503561083d565b6102226004803603602081101561028c57600080fd5b5035610864565b6103c0600480360360408110156102a957600080fd5b8101906020810181356401000000008111156102c457600080fd5b8201836020820111156102d657600080fd5b803590602001918460018302840111640100000000831117156102f857600080fd5b91908080601f016020809104026020016040519081016040528093929190818152602001838380828437600092019190915250929594936020810193503591505064010000000081111561034b57600080fd5b82018360208201111561035d57600080fd5b8035906020019184600183028401116401000000008311171561037f57600080fd5b91908080601f016020809104026020016040519081016040528093929190818152602001838380828437600092019190915250929550610880945050505050565b005b61019d600480360360208110156103d857600080fd5b50356119b0565b6103fc600480360360208110156103f557600080fd5b50356119eb565b604080519115158252519081900360200190f35b6103c06004803603602081101561042657600080fd5b5035611a03565b610435611a7c565b6040518080602001838152602001828103825284818151815260200191508051906020019080838360005b83811015610478578181015183820152602001610460565b50505050905090810190601f1680156104a55780820380516001836020036101000a031916815260200191505b50935050505060405180910390f35b6103fc600480360360208110156104ca57600080fd5b5035611aba565b6103fc600480360360208110156104e757600080fd5b5035611ad2565b61019d6004803603602081101561050457600080fd5b5035611aea565b6105286004803603602081101561052157600080fd5b5035611aff565b60408051921515835260ff90911660208301528051918290030190f35b6102226004803603602081101561055b57600080fd5b5035611b2f565b61019d6004803603602081101561057857600080fd5b5035611b4b565b61059c6004803603602081101561059557600080fd5b5035611b5d565b604051808315151515815260200180602001828103825283818151815260200191508051906020019060200280838360005b838110156105e65781810151838201526020016105ce565b50505050905001935050505060405180910390f35b6103fc6004803603602081101561061157600080fd5b5035611c0b565b6103c06004803603604081101561062e57600080fd5b5080359060200135600160a060020a0316611c22565b6103c06004803603608081101561065a57600080fd5b81019060208101813564010000000081111561067557600080fd5b82018360208201111561068757600080fd5b803590602001918460018302840111640100000000831117156106a957600080fd5b9193909290916020810190356401000000008111156106c757600080fd5b8201836020820111156106d957600080fd5b803590602001918460018302840111640100000000831117156106fb57600080fd5b919350915080359060200135611cae565b6103c06004803603602081101561072257600080fd5b5035600160a060020a0316611f88565b61074f6004803603602081101561074857600080fd5b5035612016565b6040518215158152602081018261012080838360005b8381101561077d578181015183820152602001610765565b505050509050019250505060405180910390f35b6003602052816000526040600020818154811015156107ac57fe5b90600052602060002001600091509150505481565b600090815260016020526040902054600160a060020a031690565b6000908152600160208190526040909120015490565b600090815260016020526040902060020154790100000000000000000000000000000000000000000000000000900464ffffffffff1690565b60046020526000908152604090205481565b600090815260016020526040902060020154650100000000009004600160a060020a031690565b60009081526001602052604090206002015464ffffffffff1690565b610888612d5e565b81516020808401919091209082015264ffffffffff421660408201526000808080806108b3886120e5565b93506108c5888563ffffffff6120f216565b93506108d7888563ffffffff6120f216565b9250876108e3846121aa565b815181106108ed57fe5b90602001015160f860020a900460f860020a02600160f860020a03191660a060f860020a02141561092b57610928888463ffffffff6121b916565b92505b61093b888463ffffffff6121d016565b600160a060020a03166060870152610959888463ffffffff6121b916565b925061096b888463ffffffff6120f216565b925061097d888563ffffffff6121b916565b915061098f888363ffffffff6121b916565b9150600260006109a58a8663ffffffff61234816565b8152602081019190915260400160002054600160a060020a031663de8f50a1886109d58b8863ffffffff61237b16565b6109e58c8763ffffffff6123ae16565b6040518463ffffffff167c010000000000000000000000000000000000000000000000000000000002815260040180806020018060200180602001848103845287818151815260200191508051906020019080838360005b83811015610a55578181015183820152602001610a3d565b50505050905090810190601f168015610a825780820380516001836020036101000a031916815260200191505b50848103835286518152865160209182019188019080838360005b83811015610ab5578181015183820152602001610a9d565b50505050905090810190601f168015610ae25780820380516001836020036101000a031916815260200191505b50848103825285518152855160209182019187019080838360005b83811015610b15578181015183820152602001610afd565b50505050905090810190601f168015610b425780820380516001836020036101000a031916815260200191505b50965050505050505060206040518083038186803b158015610b6357600080fd5b505afa158015610b77573d6000803e3d6000fd5b505050506040513d6020811015610b8d57600080fd5b50511515610be5576040805160e560020a62461bcd02815260206004820152601660248201527f5369676e617475726520646f65736e74206d6174636800000000000000000000604482015290519081900360640190fd5b610bf5888563ffffffff6120f216565b9350610c07888563ffffffff6121b916565b9350610c19888563ffffffff6121b916565b9350610c2b888563ffffffff6121b916565b9350610c3d888563ffffffff6121b916565b9350610c4f888563ffffffff6120f216565b9250610c69610c64898563ffffffff6123ae16565b6123c5565b64ffffffffff1660808701819052421015610cce576040805160e560020a62461bcd02815260206004820152601c60248201527f4e6f77206973206265666f72652076616c69644e6f744265666f726500000000604482015290519081900360640190fd5b610cde888463ffffffff6121b916565b9250610cf3610c64898563ffffffff6123ae16565b64ffffffffff1660a08701819052421115610d58576040805160e560020a62461bcd02815260206004820152601a60248201527f4e6f772069732061667465722076616c69644e6f744166746572000000000000604482015290519081900360640190fd5b610d68888563ffffffff6121b916565b9350610d7a888563ffffffff6121b916565b9350610d8c888563ffffffff6127e416565b60008181526001602052604090206003015490955064ffffffffff1615610db257600080fd5b6040805186815290517fa8bcd2c977618c00f7fed703adeb0977d9b57eb1f309214e668e87ca390c51379181900360200190a1846004600060028b6040518082805190602001908083835b60208310610e1c5780518252601f199092019160209182019101610dfd565b51815160209384036101000a60001901801990921691161790526040519190930194509192505080830381855afa158015610e5b573d6000803e3d6000fd5b5050506040513d6020811015610e7057600080fd5b50518152602081019190915260400160002055610e93888563ffffffff6121b916565b935087610e9f856121aa565b81518110610ea957fe5b90602001015160f860020a900460f860020a02600160f860020a03191660a160f860020a021415610ee757610ee4888563ffffffff6121b916565b93505b87610ef1856121aa565b81518110610efb57fe5b90602001015160f860020a900460f860020a02600160f860020a03191660a260f860020a021415610f3957610f36888563ffffffff6121b916565b93505b87610f43856121aa565b81518110610f4d57fe5b90602001015160f860020a900460f860020a02600160f860020a03191660a360f860020a0214156115cf57610f88888563ffffffff6120f216565b9350610f9a888563ffffffff6120f216565b92506000805b610faa8587612817565b156115cc57610fbf8a8663ffffffff6120f216565b9350610fd18a8563ffffffff61234816565b9150610fe38a8563ffffffff6121b916565b93506000905089610ff3856121aa565b81518110610ffd57fe5b01602001517fff0000000000000000000000000000000000000000000000000000000000000060f860020a918290048202161415611097578961103f85612885565b8151811061104957fe5b60209101015160f860020a90819004027fff000000000000000000000000000000000000000000000000000000000000001615611084575060015b6110948a8563ffffffff6121b916565b93505b600160b060020a031982167f551d11000000000000000000000000000000000000000000000000000000000014156111d8576110d98a8563ffffffff6128a216565b93506110eb8a8563ffffffff6120f216565b92505b6110f88385612817565b156111d35789611107846121aa565b8151811061111157fe5b90602001015160f860020a900460f860020a02600160f860020a031916608260f860020a02141561118257600360006111586111538d8763ffffffff6123ae16565b612934565b815260208082019290925260400160009081208054600181018255908252919020018790556111bc565b600360006111968c8663ffffffff61294116565b815260208082019290925260400160009081208054600181018255908252919020018790555b6111cc8a8463ffffffff6121b916565b92506110ee565b6115b5565b600160b060020a031982167f551d13000000000000000000000000000000000000000000000000000000000014156112df5780156111d3576112208a8563ffffffff6128a216565b93506112328a8563ffffffff6120f216565b925061123e8385612817565b156111d3578961124d84612885565b8151811061125757fe5b60209101015160f860020a90819004027fff0000000000000000000000000000000000000000000000000000000000000016156111d357600160c08901526112a58a8463ffffffff6121b916565b92506112b18385612817565b156112d3576112c68a8463ffffffff6121d016565b60ff1660e08901526111d3565b60ff60e08901526115b5565b600160b060020a031982167f551d0f00000000000000000000000000000000000000000000000000000000001415611391576101008801805160016020909101525181151590526113368a8563ffffffff6128a216565b9350600061134a8b8663ffffffff61234816565b6101008a810151608061ffff60f860020a600286901a810281900460ff90811660019790971a820291909104169093029390930182169290920416604090910152506115b5565b600160b060020a031982167f551d25000000000000000000000000000000000000000000000000000000000014156114c7576101208801805160016020909101525181151590526113e88a8563ffffffff6128a216565b93506113fa8a8563ffffffff6120f216565b925060005b6114098486612817565b15611428576001016114218b8563ffffffff6121b916565b93506113ff565b606081604051908082528060200260200182016040528015611454578160200160208202803883390190505b5090506114678c8763ffffffff6120f216565b945060005b828110156114b6576114848d8763ffffffff61234816565b828281518110151561149257fe5b602090810290910101526114ac8d8763ffffffff6121b916565b955060010161146c565b506101208a015160400152506115b5565b60005474010000000000000000000000000000000000000000900476010000000000000000000000000000000000000000000002600160b060020a0319908116908316141561151d5760016101408901526115b5565b600160b060020a031982167f551d1e000000000000000000000000000000000000000000000000000000000014156115895760405160e560020a62461bcd028152600401808060200182810382526028815260200180612ecf6028913960400191505060405180910390fd5b8080156115995750610160880151155b156115b5576115ae8a8763ffffffff6127e416565b6101608901525b6115c58a8663ffffffff6121b916565b9450610fa0565b50505b856001600087815260200190815260200160002060008201518160000160006101000a815481600160a060020a030219169083600160a060020a031602179055506020820151816001015560408201518160020160006101000a81548164ffffffffff021916908364ffffffffff16021790555060608201518160020160056101000a815481600160a060020a030219169083600160a060020a0316021790555060808201518160020160196101000a81548164ffffffffff021916908364ffffffffff16021790555060a08201518160030160006101000a81548164ffffffffff021916908364ffffffffff16021790555060c08201518160030160056101000a81548160ff02191690831515021790555060e08201518160030160066101000a81548160ff021916908360ff1602179055506101008201518160040160008201518160000160006101000a81548160ff02191690831515021790555060208201518160000160016101000a81548160ff02191690831515021790555060408201518160000160026101000a81548161ffff021916908361ffff16021790555050506101208201518160050160008201518160000160006101000a81548160ff02191690831515021790555060208201518160000160016101000a81548160ff02191690831515021790555060408201518160010190805190602001906117d8929190612dcd565b50505061014082015160078201805460ff19169115159190911790556101609091015160089091015560208681015160009081526001909152604090206003015460ff6501000000000090910416151561187c576040805160e560020a62461bcd02815260206004820152601360248201527f496e76616c696420706172656e74206365727400000000000000000000000000604482015290519081900360640190fd5b8560c001518015611891575085602001518514155b1561194c576020808701516000908152600190915260409020600301546601000000000000900460ff90811614806118f6575060e086015160208088015160009081526001909152604090206003015460ff9182166601000000000000909104909116115b151561194c576040805160e560020a62461bcd02815260206004820152601360248201527f496e76616c696420706172656e74206365727400000000000000000000000000604482015290519081900360640190fd5b8560c0015115156119a65761010086015160400151600890811614156119a65760405160e560020a62461bcd02815260040180806020018281038252603a815260200180612e95603a913960400191505060405180910390fd5b5050505050505050565b6000815b6000818152600160208190526040909120015481146119e557600090815260016020819052604090912001546119b4565b92915050565b60009081526001602052604090206007015460ff1690565b600054600160a060020a03163314611a1a57600080fd5b6000805476010000000000000000000000000000000000000000000090920474010000000000000000000000000000000000000000027fffff00000000000000000000ffffffffffffffffffffffffffffffffffffffff909216919091179055565b604080516c01000000000000000000000000330260208201526000194301804060348084019190915283518084039091018152605490920190925291565b60009081526001602052604090206005015460ff1690565b60009081526001602052604090206004015460ff1690565b60009081526001602052604090206008015490565b60008181526001602052604090206003015460ff6501000000000082048116916601000000000000900416915091565b60009081526001602052604090206003015464ffffffffff1690565b60009081526003602052604090205490565b60006060611b69612e18565b600084815260016020908152604091829020825160608101845260058201805460ff80821615158452610100909104161515828501526006909201805485518186028101860187528181529295939493860193830182828015611beb57602002820191906000526020600020905b815481526020019060010190808311611bd7575b505050919092525050506020810151604090910151909350915050915091565b600090815260016020526040902060080154151590565b600054600160a060020a03163314611c3957600080fd5b600082815260026020908152604091829020805473ffffffffffffffffffffffffffffffffffffffff1916600160a060020a03851690811790915582518581529182015281517f65146a769582c865299fe09a84142c84d0f1d4df1dbaaaf2301857e665beb2d7929181900390910190a15050565b600086866040518083838082843760408051919093018190038120336c01000000000000000000000000810260208401528a406034808501919091528551808503909101815260548401808752839052607484019190915293519097509295507fdd2d0f262aeae4e34b40ba920c1afb98b7d79a46ddf32965c4d22f8fc82a0274945060949083900301925050a16101004385900310611d98576040805160e560020a62461bcd02815260206004820152601160248201527f5369676e617475726520746f6f206f6c64000000000000000000000000000000604482015290519081900360640190fd5b600083815260026020526040908190205490517fde8f50a1000000000000000000000000000000000000000000000000000000008152606060048201908152606482018a9052600160a060020a039092169163de8f50a1918b918b9186918c918c91908190602481019060448101906084018989808284376000838201819052601f909101601f19169092018681038552895181528951602091820193918b019250908190849084905b83811015611e5a578181015183820152602001611e42565b50505050905090810190601f168015611e875780820380516001836020036101000a031916815260200191505b508481038252858152602001868680828437600081840152601f19601f8201169050808301925050509850505050505050505060206040518083038186803b158015611ed257600080fd5b505afa158015611ee6573d6000803e3d6000fd5b505050506040513d6020811015611efc57600080fd5b50511515611f54576040805160e560020a62461bcd02815260206004820152601660248201527f5369676e617475726520646f65736e74206d6174636800000000000000000000604482015290519081900360640190fd5b506000908152600160205260409020805473ffffffffffffffffffffffffffffffffffffffff191633179055505050505050565b600054600160a060020a03163314611f9f57600080fd5b60005460408051600160a060020a039283168152918316602083015280517f7699c77f2404f9b6bbd003861bb4af8ae70b205e19e73d7ec7fe4590db59a6b79281900390910190a16000805473ffffffffffffffffffffffffffffffffffffffff1916600160a060020a0392909216919091179055565b6000612020612e37565b612028612e57565b50600083815260016020908152604091829020825160608101845260049091015460ff8082161515835261010080830490911615159383019390935262010000900461ffff169281019290925261207d612e37565b8260200151156120d45760005b60098110156120d2578261ffff168385604001511661ffff161482826009811015156120b257fe5b9115156020929092020152600261ffff909316929092049160010161208a565b505b602090920151935090915050915091565b60006119e5826000612958565b6000826120fe836121aa565b8151811061210857fe5b01602001517f200000000000000000000000000000000000000000000000000000000000000060f860020a91829004909102811614612191576040805160e560020a62461bcd02815260206004820152601660248201527f4e6f74206120636f6e7374727563746564207479706500000000000000000000604482015290519081900360640190fd5b6121a38361219e84612885565b612958565b9392505050565b69ffffffffffffffffffff1690565b60006121a3836121c884612afd565b600101612958565b6000826121dc836121aa565b815181106121e657fe5b90602001015160f860020a900460f860020a02600160f860020a031916600260f860020a02141515612262576040805160e560020a62461bcd02815260206004820152601060248201527f4e6f74207479706520494e544547455200000000000000000000000000000000604482015290519081900360640190fd5b8261226c83612885565b8151811061227657fe5b60209101015160f860020a90819004027f800000000000000000000000000000000000000000000000000000000000000016156122fd576040805160e560020a62461bcd02815260206004820152600c60248201527f4e6f7420706f7369746976650000000000000000000000000000000000000000604482015290519081900360640190fd5b600061230883612885565b61231184612afd565b6001010390508060200360080261233861232a85612885565b86908463ffffffff612b2416565b60029190910a9004949350505050565b60006121a361235683612885565b61235f84612885565b61236885612afd565b869291900360010163ffffffff612b2416565b60606121a3612389836121aa565b612392846121aa565b61239b85612afd565b869291900360010163ffffffff612b5e16565b60606121a36123bc83612885565b61239284612885565b6000806000806000806000808851600d141561242b57600560308a60008151811015156123ee57fe5b90602001015160f860020a900460f860020a0260f860020a90040360ff16101561241e576107d087019650612426565b61076c870196505b61249a565b603089600181518110151561243c57fe5b90602001015160f860020a900460f860020a0260f860020a90040360640260ff1660308a600081518110151561246e57fe5b90602001015160f860020a900460f860020a0260f860020a90040360ff166103e8020187019650600290505b6030898260010160ff168151811015156124b057fe5b90602001015160f860020a900460f860020a0260f860020a900460308b8460000160ff168151811015156124e057fe5b90602001015160f860020a900460f860020a0260f860020a900403600a02010360ff16870196506030898260030160ff1681518110151561251d57fe5b90602001015160f860020a900460f860020a0260f860020a900460308b8460020160ff1681518110151561254d57fe5b90602001015160f860020a900460f860020a0260f860020a900403600a02010395506030898260050160ff1681518110151561258557fe5b90602001015160f860020a900460f860020a0260f860020a900460308b8460040160ff168151811015156125b557fe5b90602001015160f860020a900460f860020a0260f860020a900403600a020103850194506030898260070160ff168151811015156125ef57fe5b90602001015160f860020a900460f860020a0260f860020a900460308b8460060160ff1681518110151561261f57fe5b90602001015160f860020a900460f860020a0260f860020a900403600a020103840193506030898260090160ff1681518110151561265957fe5b90602001015160f860020a900460f860020a0260f860020a900460308b8460080160ff1681518110151561268957fe5b90602001015160f860020a900460f860020a0260f860020a900403600a0201038301925060308982600b0160ff168151811015156126c357fe5b90602001015160f860020a900460f860020a0260f860020a900460308b84600a0160ff168151811015156126f357fe5b60209101810151600554604080517f9054bdec00000000000000000000000000000000000000000000000000000000815261ffff8f16600482015260ff8e811660248301528d811660448301528c811660648301528b8116608483015260f860020a9485900485029490940495909503600a0295909501959095039690960195861660a48301529151600160a060020a0390931692639054bdec9260c480840193919291829003018186803b1580156127ab57600080fd5b505afa1580156127bf573d6000803e3d6000fd5b505050506040513d60208110156127d557600080fd5b50519998505050505050505050565b60006121a36127f2836121aa565b6127fb846121aa565b61280485612afd565b869291900360010163ffffffff612bc116565b6000612822826121aa565b61282b84612885565b11158015612849575061283d83612afd565b61284683612afd565b11155b806121a35750612858836121aa565b61286183612885565b111580156121a3575061287382612afd565b61287c84612afd565b11159392505050565b6a0100000000000000000000900469ffffffffffffffffffff1690565b6000826128ae836121aa565b815181106128b857fe5b90602001015160f860020a900460f860020a02600160f860020a031916600460f860020a02141515612191576040805160e560020a62461bcd02815260206004820152601560248201527f4e6f742074797065204f4354455420535452494e470000000000000000000000604482015290519081900360640190fd5b60006119e5826000612bde565b60006121a361294f83612885565b6127fb84612885565b600080600080858560010181518110151561296f57fe5b60209101015160f860020a90819004027f80000000000000000000000000000000000000000000000000000000000000001615156129f65785856001018151811015156129b857fe5b90602001015160f860020a900460f860020a0260f860020a900460ff1692508460020191506001838369ffffffffffffffffffff1601039050612ad0565b60008686600101815181101515612a0957fe5b90602001015160f860020a900460f860020a02607f60f860020a021660f860020a900490508060ff1660011415612a5757612a4d876002880163ffffffff612c5016565b60ff169350612ab1565b8060ff1660021415612a8157612a76876002880163ffffffff612c7916565b61ffff169350612ab1565b8060200360080260ff16612aa6876002018360ff168a612b249092919063ffffffff16565b60029190910a900493505b60ff16850160020191505060001969ffffffffffffffffffff82168301015b612af3858369ffffffffffffffffffff168369ffffffffffffffffffff16612c9a565b9695505050505050565b74010000000000000000000000000000000000000000900469ffffffffffffffffffff1690565b60006020821115612b3457600080fd5b83518383011115612b4457600080fd5b506020919092018101519190036101000a60001901191690565b82516060908383011115612b7157600080fd5b6060826040519080825280601f01601f191660200182016040528015612b9e576020820181803883390190505b50905060208082019086860101612bb6828287612cc9565b509095945050505050565b82516000908383011115612bd457600080fd5b5091016020012090565b6000818351111515612bf2575060006119e5565b6000612bfe8484612d07565b9050612c0f84828501600101612bde565b612c1a858584612bc1565b60405160200180838152602001828152602001925050506040516020818303038152906040528051906020012091505092915050565b60008282815181101515612c6057fe5b016020015160f860020a90819004810204905092915050565b8151600090600283011115612c8d57600080fd5b50016002015161ffff1690565b74010000000000000000000000000000000000000000026a010000000000000000000091909102919091171790565b5b60208110612ce9578151835260209283019290910190601f1901612cca565b905182516020929092036101000a6000190180199091169116179052565b6000805b835181840114158015612d51575083818401815181101515612d2957fe5b90602001015160f860020a900460f860020a02600160f860020a031916602e60f860020a0214155b156121a357600101612d0b565b6040805161020081018252600080825260208201819052918101829052606081018290526080810182905260a0810182905260c0810182905260e08101919091526101008101612dac612e57565b8152602001612db9612e18565b815260006020820181905260409091015290565b828054828255906000526020600020908101928215612e08579160200282015b82811115612e08578251825591602001919060010190612ded565b50612e14929150612e77565b5090565b6040805160608181018352600080835260208301529181019190915290565b610120604051908101604052806009906020820280388339509192915050565b604080516060810182526000808252602082018190529181019190915290565b612e9191905b80821115612e145760008155600101612e7d565b9056fe634120626f6f6c65616e206973206e6f7420617373657274656420616e64206b6579436572745369676e206269742069732061737365727465644e616d6520636f6e73747261696e747320657874656e73696f6e206e6f7420737570706f72746564a165627a7a7230582033f85f509a818d48d4f0ae752806fed46bc25d1115fb57f927bb6830ad8b5e920029",
  "source": "pragma solidity  ^0.5.2;\r\n\r\nimport \"./Ownable.sol\";\r\nimport \"asn1-decode/contracts/Asn1Decode.sol\";\r\nimport \"@ensdomains/dnssec-oracle/contracts/algorithms/Algorithm.sol\";\r\nimport \"ens-namehash/contracts/ENSNamehash.sol\";\r\nimport \"ethereum-datetime/contracts/DateTime.sol\";\r\n\r\n/*\r\n * @dev Stores validated X.509 certificate chains in parent pointer trees.\r\n * @dev The root of each tree is a CA root certificate\r\n */\r\ncontract X509ForestOfTrust is Ownable {\r\n  using Asn1Decode for bytes;\r\n  using ENSNamehash for bytes;\r\n\r\n  bytes10 constant private OID_SUBJECT_ALT_NAME   = 0x551d1100000000000000;\r\n  bytes10 constant private OID_BASIC_CONSTRAINTS  = 0x551d1300000000000000;\r\n  bytes10 constant private OID_NAME_CONSTRAINTS   = 0x551d1e00000000000000;\r\n  bytes10 constant private OID_KEY_USAGE          = 0x551d0f00000000000000;\r\n  bytes10 constant private OID_EXTENDED_KEY_USAGE = 0x551d2500000000000000;\r\n  bytes10 private OID_CAN_SIGN_HTTP_EXCHANGES     = 0x2b06010401d679020116; // Not constant because spec may change\r\n\r\n  constructor(address sha256WithRSAEncryption, address _dateTime) public {\r\n    bytes32 algOid = 0x2a864886f70d01010b0000000000000000000000000000000000000000000000;\r\n    algs[algOid] = Algorithm(sha256WithRSAEncryption);\r\n    dateTime = DateTime(_dateTime);\r\n  }\r\n\r\n  struct KeyUsage {\r\n    bool critical;\r\n    bool present;\r\n    uint16 bits;              // Value of KeyUsage bits. (E.g. 5 is 000000101)\r\n  }\r\n  struct ExtKeyUsage {\r\n    bool critical;\r\n    bool present;\r\n    bytes32[] oids;\r\n  }\r\n  struct Certificate {\r\n    address owner;\r\n    bytes32 parentId;\r\n    uint40 timestamp;\r\n    uint160 serialNumber;\r\n    uint40 validNotBefore;\r\n    uint40 validNotAfter;\r\n    bool cA;                  // Whether the certified public key may be used to verify certificate signatures.\r\n    uint8 pathLenConstraint;  // Maximum number of non-self-issued intermediate certs that may follow this\r\n                              // cert in a valid certification path.\r\n    KeyUsage keyUsage;\r\n    ExtKeyUsage extKeyUsage;\r\n    bool sxg;                 // canSignHttpExchanges extension is present.\r\n    bytes32 extId;            // keccak256 of extensions field for further validation.\r\n                              // Equal to 0x0 unless a critical extension was found but not parsed.\r\n                              // This should always be checked on leaf certificates\r\n  }\r\n\r\n  mapping (bytes32 => Certificate) private certs;     // certId => cert  (certId is keccak256(pubKey))\r\n  mapping (bytes32 => Algorithm)   private algs;      // algorithm oid bytes => signature verification contract\r\n  mapping (bytes32 => bytes32[])   public  toCertIds; // ensNamehash(subjectAltName) => certId\r\n  mapping (bytes32 => bytes32)     public  toCertId;  // sha256 fingerprint => certId\r\n  DateTime dateTime;                                  // For dateTime conversion\r\n\r\n  event CertAdded(bytes32);\r\n  event CertClaimed(bytes32, address);\r\n  event AlgSet(bytes32, address);\r\n\r\n  /**\r\n   * @dev Add a X.509 certificate to an existing tree/chain\r\n   * @param cert A DER-encoded X.509 certificate\r\n   * @param parentPubKey The parent certificate's DER-encoded public key\r\n   */\r\n  function addCert(bytes memory cert, bytes memory parentPubKey)\r\n  public\r\n  {\r\n    Certificate memory certificate;\r\n    bytes32 certId;\r\n    uint node1;\r\n    uint node2;\r\n    uint node3;\r\n    uint node4;\r\n\r\n    certificate.parentId = keccak256(parentPubKey);\r\n    certificate.timestamp = uint40(block.timestamp);\r\n\r\n    node1 = cert.root();\r\n    node1 = cert.firstChildOf(node1);\r\n    node2 = cert.firstChildOf(node1);\r\n    if (cert[NodePtr.ixs(node2)] == 0xa0) {\r\n      node2 = cert.nextSiblingOf(node2);\r\n    }\r\n    // Extract serial number\r\n    certificate.serialNumber = uint160(cert.uintAt(node2));\r\n\r\n    node2 = cert.nextSiblingOf(node2);\r\n    node2 = cert.firstChildOf(node2);\r\n    node3 = cert.nextSiblingOf(node1);\r\n    node3 = cert.nextSiblingOf(node3);\r\n    // Verify signature\r\n    require(algs[cert.bytes32At(node2)].verify(parentPubKey, cert.allBytesAt(node1), cert.bytesAt(node3)), \"Signature doesnt match\");\r\n\r\n    node1 = cert.firstChildOf(node1);\r\n    node1 = cert.nextSiblingOf(node1);\r\n    node1 = cert.nextSiblingOf(node1);\r\n    node1 = cert.nextSiblingOf(node1);\r\n    node1 = cert.nextSiblingOf(node1);\r\n\r\n    node2 = cert.firstChildOf(node1);\r\n    // Check validNotBefore\r\n    certificate.validNotBefore = uint40(toTimestamp(cert.bytesAt(node2)));\r\n    require(certificate.validNotBefore <= now, \"Now is before validNotBefore\");\r\n    node2 = cert.nextSiblingOf(node2);\r\n    // Check validNotAfter\r\n    certificate.validNotAfter = uint40(toTimestamp(cert.bytesAt(node2)));\r\n    require(now <= certificate.validNotAfter, \"Now is after validNotAfter\");\r\n\r\n    node1 = cert.nextSiblingOf(node1);\r\n    node1 = cert.nextSiblingOf(node1);\r\n    // Get public key and calculate certId from it\r\n    certId = cert.keccakOfAllBytesAt(node1);\r\n    // Cert must not already exist\r\n    // Prevents duplicate references and owner from being overridden\r\n    require(certs[certId].validNotAfter == 0);\r\n    // Fire event\r\n    emit CertAdded(certId);\r\n\r\n    // Add reference from sha256 fingerprint\r\n    toCertId[sha256(cert)] = certId;\r\n\r\n    node1 = cert.nextSiblingOf(node1);\r\n\r\n    // Skip over v2 fields\r\n    if (cert[NodePtr.ixs(node1)] == 0xa1)\r\n      node1 = cert.nextSiblingOf(node1);\r\n    if (cert[NodePtr.ixs(node1)] == 0xa2)\r\n      node1 = cert.nextSiblingOf(node1);\r\n\r\n    // Parse extensions\r\n    if (cert[NodePtr.ixs(node1)] == 0xa3) {\r\n      node1 = cert.firstChildOf(node1);\r\n      node2 = cert.firstChildOf(node1);\r\n      bytes10 oid;\r\n      bool isCritical;\r\n      while (Asn1Decode.isChildOf(node2, node1)) {\r\n        node3 = cert.firstChildOf(node2);\r\n        oid = bytes10(cert.bytes32At(node3)); // Extension oid\r\n        node3 = cert.nextSiblingOf(node3);\r\n        // Check if extension is critical\r\n        isCritical = false;\r\n        if (cert[NodePtr.ixs(node3)] == 0x01) { // If type is bool\r\n          if (cert[NodePtr.ixf(node3)] != 0x00) // If not false\r\n            isCritical = true;\r\n          node3 = cert.nextSiblingOf(node3);\r\n        }\r\n        if (oid == OID_SUBJECT_ALT_NAME) {\r\n          // Add references from names\r\n          node3 = cert.rootOfOctetStringAt(node3);\r\n          node4 = cert.firstChildOf(node3);\r\n          while (Asn1Decode.isChildOf(node4, node3)) {\r\n            if(cert[NodePtr.ixs(node4)] == 0x82)\r\n              toCertIds[cert.bytesAt(node4).namehash()].push(certId);\r\n            else\r\n              toCertIds[cert.keccakOfBytesAt(node4)].push(certId);\r\n            node4 = cert.nextSiblingOf(node4);\r\n          }\r\n        }\r\n        else if (oid == OID_BASIC_CONSTRAINTS) {\r\n          if (isCritical) {\r\n            // Check if cert can sign other certs\r\n            node3 = cert.rootOfOctetStringAt(node3);\r\n            node4 = cert.firstChildOf(node3);\r\n            // If sequence (node3) is not empty\r\n            if (Asn1Decode.isChildOf(node4, node3)) {\r\n              // If value == true\r\n              if (cert[NodePtr.ixf(node4)] != 0x00) {\r\n                certificate.cA = true;\r\n                node4 = cert.nextSiblingOf(node4);\r\n                if (Asn1Decode.isChildOf(node4, node3)) {\r\n                  certificate.pathLenConstraint = uint8(cert.uintAt(node4));\r\n                }\r\n                else {\r\n                  certificate.pathLenConstraint = uint8(-1);\r\n                }\r\n              }\r\n            }\r\n          }\r\n        }\r\n        else if (oid == OID_KEY_USAGE) {\r\n          certificate.keyUsage.present = true;\r\n          certificate.keyUsage.critical = isCritical;\r\n          node3 = cert.rootOfOctetStringAt(node3);\r\n          bytes3 v = bytes3(cert.bytes32At(node3)); // The encoded bitstring value\r\n          certificate.keyUsage.bits = ((uint16(uint8(v[1])) << 8) + uint16(uint8(v[2]))) >> 7;\r\n        }\r\n        else if (oid == OID_EXTENDED_KEY_USAGE) {\r\n          certificate.extKeyUsage.present = true;\r\n          certificate.extKeyUsage.critical = isCritical;\r\n          node3 = cert.rootOfOctetStringAt(node3);\r\n          node4 = cert.firstChildOf(node3);\r\n          uint len;\r\n          while (Asn1Decode.isChildOf(node4, node3)) {\r\n            len++;\r\n            node4 = cert.nextSiblingOf(node4);\r\n          }\r\n          bytes32[] memory oids = new bytes32[](len);\r\n          node4 = cert.firstChildOf(node3);\r\n          for (uint i; i<len; i++) {\r\n            oids[i] = cert.bytes32At(node4);\r\n            node4 = cert.nextSiblingOf(node4);\r\n          }\r\n          certificate.extKeyUsage.oids = oids;\r\n        }\r\n        else if (oid == OID_CAN_SIGN_HTTP_EXCHANGES) {\r\n          certificate.sxg = true;\r\n        }\r\n        else if (oid == OID_NAME_CONSTRAINTS) {\r\n          // Name constraints not allowed.\r\n          require(false, \"Name constraints extension not supported\");\r\n        }\r\n        else if (isCritical && certificate.extId == bytes32(0)) {\r\n          // Note: unrecognized critical extensions are allowed.\r\n          // Further validation of certificate is needed if extId != bytes32(0).\r\n          // Save hash of extensions\r\n          certificate.extId = cert.keccakOfAllBytesAt(node1);\r\n        }\r\n        node2 = cert.nextSiblingOf(node2);\r\n      }\r\n    }\r\n\r\n    certs[certId] = certificate;\r\n\r\n    require(certs[certificate.parentId].cA, \"Invalid parent cert\");\r\n\r\n    // If intermediate cert, verify authority's pathLenConstraint\r\n    if (certificate.cA && certId != certificate.parentId)\r\n      require(certs[certificate.parentId].pathLenConstraint == uint8(-1) || certs[certificate.parentId].pathLenConstraint > certificate.pathLenConstraint, \"Invalid parent cert\");\r\n    // RFC 5280: If the cA boolean is not asserted, then the keyCertSign\r\n    // bit in the key usage extension MUST NOT be asserted.\r\n    if (!certificate.cA)\r\n      require(certificate.keyUsage.bits & 8 != 8, \"cA boolean is not asserted and keyCertSign bit is asserted\");\r\n  }\r\n\r\n  /**\r\n   * @dev The return values of this function are used to proveOwnership() of a\r\n   *      certificate that exists in the certs mapping.\r\n   * @return Some unique bytes to be signed\r\n   * @return The block number used to create the first return value\r\n   */\r\n  function signThis()\r\n  external view returns (bytes memory, uint)\r\n  {\r\n    return ( abi.encodePacked(msg.sender, blockhash(block.number - 1)), block.number -1 );\r\n  }\r\n\r\n  /**\r\n   * @dev An account calls this method to prove ownership of a certificate.\r\n   *      If successful, certs[certId].owner will be set to caller's address.\r\n   * @param pubKey The target certificate's public key\r\n   * @param signature signThis()[0] signed with certificate's private key\r\n   * @param blockNumber The value of signThis()[1] (must be > block.number - 256)\r\n   * @param sigAlg The OID of the algorithm used to sign `signature`\r\n   */\r\n  function proveOwnership(bytes calldata pubKey, bytes calldata signature, uint blockNumber, bytes32 sigAlg)\r\n  external\r\n  {\r\n    bytes32 certId = keccak256(pubKey);\r\n    bytes memory message = abi.encodePacked(msg.sender, blockhash(blockNumber));\r\n\r\n    emit CertClaimed(certId, msg.sender);\r\n\r\n    // Only accept proof if it's less than 256 blocks old\r\n    // This is the most time I can give since blockhash() can only return the 256 most recent\r\n    require(block.number - blockNumber < 256, \"Signature too old\");\r\n    // Verify signature, which proves ownership\r\n    require(algs[sigAlg].verify(pubKey, message, signature), \"Signature doesnt match\");\r\n\r\n    certs[certId].owner = msg.sender;\r\n  }\r\n\r\n  function rootOf(bytes32 certId) external view returns (bytes32) {\r\n    bytes32 id = certId;\r\n    while (id != certs[id].parentId) {\r\n      id = certs[id].parentId;\r\n    }\r\n    return id;\r\n  }\r\n\r\n  function owner(bytes32 certId) external view returns (address) {\r\n    return certs[certId].owner;\r\n  }\r\n\r\n  function parentId(bytes32 certId) external view returns (bytes32) {\r\n    return certs[certId].parentId;\r\n  }\r\n\r\n  function timestamp(bytes32 certId) external view returns (uint40) {\r\n    return certs[certId].timestamp;\r\n  }\r\n\r\n  function serialNumber(bytes32 certId) external view returns (uint160) {\r\n    return certs[certId].serialNumber;\r\n  }\r\n\r\n  function validNotBefore(bytes32 certId) external view returns (uint40) {\r\n    return certs[certId].validNotBefore;\r\n  }\r\n\r\n  function validNotAfter(bytes32 certId) external view returns (uint40) {\r\n    return certs[certId].validNotAfter;\r\n  }\r\n\r\n  function sxg(bytes32 certId) external view returns (bool) {\r\n    return certs[certId].sxg;\r\n  }\r\n\r\n  function basicConstraints(bytes32 certId) external view returns (bool, uint8) {\r\n    return (certs[certId].cA, certs[certId].pathLenConstraint);\r\n  }\r\n\r\n  function keyUsage(bytes32 certId) external view returns (bool, bool[9] memory) {\r\n    KeyUsage memory _keyUsage = certs[certId].keyUsage;\r\n    uint16 mask = 256;\r\n    bool[9] memory flags;\r\n    if (_keyUsage.present) {\r\n      for (uint i; i<9; i++) {\r\n        flags[i] = (_keyUsage.bits & mask == mask);\r\n        mask = mask >> 1;\r\n      }\r\n    }\r\n    return (_keyUsage.present, flags);\r\n  }\r\n\r\n  function keyUsageCritical(bytes32 certId) external view returns (bool) {\r\n    return certs[certId].keyUsage.critical;\r\n  }\r\n\r\n  function extKeyUsage(bytes32 certId) external view returns (bool, bytes32[] memory) {\r\n    ExtKeyUsage memory _extKeyUsage = certs[certId].extKeyUsage;\r\n    return (_extKeyUsage.present, _extKeyUsage.oids);\r\n  }\r\n\r\n  function extKeyUsageCritical(bytes32 certId) external view returns (bool) {\r\n    return certs[certId].extKeyUsage.critical;\r\n  }\r\n\r\n  function unparsedCriticalExtensionPresent(bytes32 certId) external view returns (bool) {\r\n    return (certs[certId].extId != bytes32(0));\r\n  }\r\n\r\n  function extId(bytes32 certId) external view returns (bytes32) {\r\n    return certs[certId].extId;\r\n  }\r\n\r\n  function toCertIdsLength(bytes32 _hash) external view returns (uint) {\r\n    return toCertIds[_hash].length;\r\n  }\r\n\r\n  function toTimestamp(bytes memory x509Time) private view returns (uint) {\r\n    uint16 yrs;  uint8 mnths;\r\n    uint8  dys;  uint8 hrs;\r\n    uint8  mins; uint8 secs;\r\n    uint8  offset;\r\n\r\n    if (x509Time.length == 13) {\r\n      if (uint8(x509Time[0])-48 < 5) yrs += 2000;\r\n      else yrs += 1900;\r\n    }\r\n    else {\r\n      yrs += (uint8(x509Time[0])-48) * 1000 + (uint8(x509Time[1])-48) * 100;\r\n      offset = 2;\r\n    }\r\n    yrs +=  (uint8(x509Time[offset+0])-48)*10 + uint8(x509Time[offset+1])-48;\r\n    mnths = (uint8(x509Time[offset+2])-48)*10 + uint8(x509Time[offset+3])-48;\r\n    dys +=  (uint8(x509Time[offset+4])-48)*10 + uint8(x509Time[offset+5])-48;\r\n    hrs +=  (uint8(x509Time[offset+6])-48)*10 + uint8(x509Time[offset+7])-48;\r\n    mins += (uint8(x509Time[offset+8])-48)*10 + uint8(x509Time[offset+9])-48;\r\n    secs += (uint8(x509Time[offset+10])-48)*10 + uint8(x509Time[offset+11])-48;\r\n\r\n    return dateTime.toTimestamp(yrs, mnths, dys, hrs, mins, secs);\r\n  }\r\n\r\n  function setAlg(bytes32 oid, address alg) external onlyOwner {\r\n    algs[oid] = Algorithm(alg);\r\n    emit AlgSet(oid, alg);\r\n  }\r\n\r\n  function setSxgOid(bytes32 sxgOid) external onlyOwner {\r\n    OID_CAN_SIGN_HTTP_EXCHANGES = bytes10(sxgOid);\r\n  }\r\n}\r\n",
  "sourcePath": "x509-forest-of-trust/contracts/X509ForestOfTrust.sol",
  "compiler": {
    "name": "solc",
    "version": "0.5.2+commit.1df8f40c.Emscripten.clang"
  },
  "schemaVersion": "3.3.2",
  "updatedAt": "2020-11-25T03:47:44.807Z",
  "networkType": "ethereum",
  "devdoc": {
    "methods": {
      "addCert(bytes,bytes)": {
        "details": "Add a X.509 certificate to an existing tree/chain\r",
        "params": {
          "cert": "A DER-encoded X.509 certificate\r",
          "parentPubKey": "The parent certificate's DER-encoded public key\r"
        }
      },
      "proveOwnership(bytes,bytes,uint256,bytes32)": {
        "details": "An account calls this method to prove ownership of a certificate.\r     If successful, certs[certId].owner will be set to caller's address.\r",
        "params": {
          "blockNumber": "The value of signThis()[1] (must be > block.number - 256)\r",
          "pubKey": "The target certificate's public key\r",
          "sigAlg": "The OID of the algorithm used to sign `signature`\r",
          "signature": "signThis()[0] signed with certificate's private key\r"
        }
      },
      "signThis()": {
        "details": "The return values of this function are used to proveOwnership() of a\r     certificate that exists in the certs mapping.\r",
        "return": "Some unique bytes to be signed\rThe block number used to create the first return value\r"
      }
    }
  },
  "userdoc": {
    "methods": {}
  }
}