{
  "contractName": "X509ForestOfTrust",
  "abi": [
    {
      "constant": true,
      "inputs": [
        {
          "name": "",
          "type": "bytes32"
        },
        {
          "name": "",
          "type": "uint256"
        }
      ],
      "name": "toCertIds",
      "outputs": [
        {
          "name": "",
          "type": "bytes32"
        }
      ],
      "payable": false,
      "stateMutability": "view",
      "type": "function"
    },
    {
      "constant": true,
      "inputs": [
        {
          "name": "",
          "type": "bytes32"
        }
      ],
      "name": "toCertId",
      "outputs": [
        {
          "name": "",
          "type": "bytes32"
        }
      ],
      "payable": false,
      "stateMutability": "view",
      "type": "function"
    },
    {
      "constant": true,
      "inputs": [
        {
          "name": "",
          "type": "bytes32"
        }
      ],
      "name": "certs",
      "outputs": [
        {
          "name": "owner",
          "type": "address"
        },
        {
          "name": "parentId",
          "type": "bytes32"
        },
        {
          "name": "timestamp",
          "type": "uint40"
        },
        {
          "name": "serialNumber",
          "type": "uint160"
        },
        {
          "name": "validNotBefore",
          "type": "uint40"
        },
        {
          "name": "validNotAfter",
          "type": "uint40"
        },
        {
          "name": "cA",
          "type": "bool"
        },
        {
          "name": "pathLenConstraint",
          "type": "uint8"
        },
        {
          "name": "keyUsagePresent",
          "type": "bool"
        },
        {
          "name": "keyUsage",
          "type": "uint16"
        },
        {
          "name": "extKeyUsagePresent",
          "type": "bool"
        },
        {
          "name": "sxg",
          "type": "bool"
        },
        {
          "name": "uncheckedCriticalExtension",
          "type": "bool"
        },
        {
          "name": "extId",
          "type": "bytes32"
        }
      ],
      "payable": false,
      "stateMutability": "view",
      "type": "function"
    },
    {
      "constant": false,
      "inputs": [
        {
          "name": "newOwner",
          "type": "address"
        }
      ],
      "name": "transferOwnership",
      "outputs": [],
      "payable": false,
      "stateMutability": "nonpayable",
      "type": "function"
    },
    {
      "inputs": [
        {
          "name": "sha256WithRSAEncryption",
          "type": "address"
        },
        {
          "name": "_dateTime",
          "type": "address"
        }
      ],
      "payable": false,
      "stateMutability": "nonpayable",
      "type": "constructor"
    },
    {
      "anonymous": false,
      "inputs": [
        {
          "indexed": false,
          "name": "",
          "type": "bytes32"
        }
      ],
      "name": "CertAdded",
      "type": "event"
    },
    {
      "anonymous": false,
      "inputs": [
        {
          "indexed": false,
          "name": "",
          "type": "bytes32"
        }
      ],
      "name": "CertClaimed",
      "type": "event"
    },
    {
      "anonymous": false,
      "inputs": [
        {
          "indexed": false,
          "name": "",
          "type": "bytes32"
        },
        {
          "indexed": false,
          "name": "",
          "type": "address"
        }
      ],
      "name": "AlgSet",
      "type": "event"
    },
    {
      "anonymous": false,
      "inputs": [
        {
          "indexed": false,
          "name": "",
          "type": "address"
        },
        {
          "indexed": false,
          "name": "",
          "type": "address"
        }
      ],
      "name": "ownershipTransferred",
      "type": "event"
    },
    {
      "constant": false,
      "inputs": [
        {
          "name": "cert",
          "type": "bytes"
        },
        {
          "name": "parentPubKey",
          "type": "bytes"
        }
      ],
      "name": "addCert",
      "outputs": [],
      "payable": false,
      "stateMutability": "nonpayable",
      "type": "function"
    },
    {
      "constant": true,
      "inputs": [],
      "name": "signThis",
      "outputs": [
        {
          "name": "",
          "type": "bytes"
        },
        {
          "name": "",
          "type": "uint256"
        }
      ],
      "payable": false,
      "stateMutability": "view",
      "type": "function"
    },
    {
      "constant": false,
      "inputs": [
        {
          "name": "pubKey",
          "type": "bytes"
        },
        {
          "name": "signature",
          "type": "bytes"
        },
        {
          "name": "blockNumber",
          "type": "uint256"
        },
        {
          "name": "sigAlg",
          "type": "bytes32"
        }
      ],
      "name": "proveOwnership",
      "outputs": [
        {
          "name": "",
          "type": "bool"
        }
      ],
      "payable": false,
      "stateMutability": "nonpayable",
      "type": "function"
    },
    {
      "constant": true,
      "inputs": [
        {
          "name": "certId",
          "type": "bytes32"
        }
      ],
      "name": "rootOf",
      "outputs": [
        {
          "name": "",
          "type": "bytes32"
        }
      ],
      "payable": false,
      "stateMutability": "view",
      "type": "function"
    },
    {
      "constant": true,
      "inputs": [
        {
          "name": "certId",
          "type": "bytes32"
        }
      ],
      "name": "owner",
      "outputs": [
        {
          "name": "",
          "type": "address"
        }
      ],
      "payable": false,
      "stateMutability": "view",
      "type": "function"
    },
    {
      "constant": true,
      "inputs": [
        {
          "name": "certId",
          "type": "bytes32"
        }
      ],
      "name": "parentId",
      "outputs": [
        {
          "name": "",
          "type": "bytes32"
        }
      ],
      "payable": false,
      "stateMutability": "view",
      "type": "function"
    },
    {
      "constant": true,
      "inputs": [
        {
          "name": "certId",
          "type": "bytes32"
        }
      ],
      "name": "serialNumber",
      "outputs": [
        {
          "name": "",
          "type": "uint160"
        }
      ],
      "payable": false,
      "stateMutability": "view",
      "type": "function"
    },
    {
      "constant": true,
      "inputs": [
        {
          "name": "certId",
          "type": "bytes32"
        }
      ],
      "name": "timestamp",
      "outputs": [
        {
          "name": "",
          "type": "uint40"
        }
      ],
      "payable": false,
      "stateMutability": "view",
      "type": "function"
    },
    {
      "constant": true,
      "inputs": [
        {
          "name": "certId",
          "type": "bytes32"
        }
      ],
      "name": "validNotBefore",
      "outputs": [
        {
          "name": "",
          "type": "uint40"
        }
      ],
      "payable": false,
      "stateMutability": "view",
      "type": "function"
    },
    {
      "constant": true,
      "inputs": [
        {
          "name": "certId",
          "type": "bytes32"
        }
      ],
      "name": "validNotAfter",
      "outputs": [
        {
          "name": "",
          "type": "uint40"
        }
      ],
      "payable": false,
      "stateMutability": "view",
      "type": "function"
    },
    {
      "constant": true,
      "inputs": [
        {
          "name": "certId",
          "type": "bytes32"
        }
      ],
      "name": "sxg",
      "outputs": [
        {
          "name": "",
          "type": "bool"
        }
      ],
      "payable": false,
      "stateMutability": "view",
      "type": "function"
    },
    {
      "constant": true,
      "inputs": [
        {
          "name": "certId",
          "type": "bytes32"
        }
      ],
      "name": "pathLenConstraint",
      "outputs": [
        {
          "name": "",
          "type": "uint8"
        }
      ],
      "payable": false,
      "stateMutability": "view",
      "type": "function"
    },
    {
      "constant": true,
      "inputs": [
        {
          "name": "certId",
          "type": "bytes32"
        }
      ],
      "name": "cA",
      "outputs": [
        {
          "name": "",
          "type": "bool"
        }
      ],
      "payable": false,
      "stateMutability": "view",
      "type": "function"
    },
    {
      "constant": true,
      "inputs": [
        {
          "name": "certId",
          "type": "bytes32"
        }
      ],
      "name": "keyUsage",
      "outputs": [
        {
          "name": "",
          "type": "bool"
        },
        {
          "name": "",
          "type": "bool[9]"
        }
      ],
      "payable": false,
      "stateMutability": "view",
      "type": "function"
    },
    {
      "constant": true,
      "inputs": [
        {
          "name": "certId",
          "type": "bytes32"
        }
      ],
      "name": "extKeyUsage",
      "outputs": [
        {
          "name": "",
          "type": "bool"
        },
        {
          "name": "",
          "type": "bytes32[]"
        }
      ],
      "payable": false,
      "stateMutability": "view",
      "type": "function"
    },
    {
      "constant": true,
      "inputs": [
        {
          "name": "certId",
          "type": "bytes32"
        }
      ],
      "name": "uncheckedCriticalExtension",
      "outputs": [
        {
          "name": "",
          "type": "bool"
        }
      ],
      "payable": false,
      "stateMutability": "view",
      "type": "function"
    },
    {
      "constant": true,
      "inputs": [
        {
          "name": "certId",
          "type": "bytes32"
        }
      ],
      "name": "extId",
      "outputs": [
        {
          "name": "",
          "type": "bytes32"
        }
      ],
      "payable": false,
      "stateMutability": "view",
      "type": "function"
    },
    {
      "constant": true,
      "inputs": [
        {
          "name": "_hash",
          "type": "bytes32"
        }
      ],
      "name": "toCertIdsLength",
      "outputs": [
        {
          "name": "",
          "type": "uint256"
        }
      ],
      "payable": false,
      "stateMutability": "view",
      "type": "function"
    },
    {
      "constant": false,
      "inputs": [
        {
          "name": "oid",
          "type": "bytes32"
        },
        {
          "name": "alg",
          "type": "address"
        }
      ],
      "name": "setAlg",
      "outputs": [],
      "payable": false,
      "stateMutability": "nonpayable",
      "type": "function"
    },
    {
      "constant": false,
      "inputs": [
        {
          "name": "sxgOid",
          "type": "bytes32"
        }
      ],
      "name": "setSxgOid",
      "outputs": [],
      "payable": false,
      "stateMutability": "nonpayable",
      "type": "function"
    }
  ],
  "bytecode": "0x60806040526000805460a060020a60f060020a0319167d2b06010401d679020116000000000000000000000000000000000000000017905534801561004357600080fd5b5060405160408061309c8339810180604052604081101561006357600080fd5b50805160209182015160008054600160a060020a0319908116331782557f2a864886f70d01010b000000000000000000000000000000000000000000000090915260029093527f94ce0386011b8baded3f9e1d439ff262855015cc43ed56e2b10d8d3cfc28cab48054600160a060020a03938416908516179055600580549290911691909216179055612fa1806100fb6000396000f3fe608060405234801561001057600080fd5b5060043610610175576000357c0100000000000000000000000000000000000000000000000000000000900480636fe2875c116100e0578063c385568211610099578063c385568214610643578063dd9d2403146106bf578063dde301a2146106eb578063e143dd33146107b3578063f2fde38b146107e6578063f6cc68151461080c57610175565b80636fe2875c1461052b57806378b8fa0e146105485780637c0656fd14610565578063b161fa77146105ec578063b841f2b214610609578063bd29dec01461062657610175565b80634063d812116101325780634063d812146102765780634d00307014610374578063525d21db1461039157806353e0983c146104c05780636d6f398e146104f15780636eaba09e1461050e57610175565b80630196d78d1461017a57806302571be3146101af57806303ea6ef7146101e857806317932046146102055780631c9168f31461023c5780631fbfd9fe14610259575b600080fd5b61019d6004803603604081101561019057600080fd5b508035906020013561086b565b60408051918252519081900360200190f35b6101cc600480360360208110156101c557600080fd5b503561089b565b60408051600160a060020a039092168252519081900360200190f35b61019d600480360360208110156101fe57600080fd5b50356108b6565b6102226004803603602081101561021b57600080fd5b50356108cc565b6040805164ffffffffff9092168252519081900360200190f35b61019d6004803603602081101561025257600080fd5b5035610905565b6101cc6004803603602081101561026f57600080fd5b5035610917565b6102936004803603602081101561028c57600080fd5b503561093e565b604051808f600160a060020a0316600160a060020a031681526020018e81526020018d64ffffffffff1664ffffffffff1681526020018c600160a060020a0316600160a060020a031681526020018b64ffffffffff1664ffffffffff1681526020018a64ffffffffff1664ffffffffff168152602001891515151581526020018860ff1660ff168152602001871515151581526020018661ffff1661ffff1681526020018515151515815260200184151515158152602001831515151581526020018281526020019e50505050505050505050505050505060405180910390f35b6102226004803603602081101561038a57600080fd5b5035610a0a565b6104be600480360360408110156103a757600080fd5b8101906020810181356401000000008111156103c257600080fd5b8201836020820111156103d457600080fd5b803590602001918460018302840111640100000000831117156103f657600080fd5b91908080601f016020809104026020016040519081016040528093929190818152602001838380828437600092019190915250929594936020810193503591505064010000000081111561044957600080fd5b82018360208201111561045b57600080fd5b8035906020019184600183028401116401000000008311171561047d57600080fd5b91908080601f016020809104026020016040519081016040528093929190818152602001838380828437600092019190915250929550610a26945050505050565b005b6104dd600480360360208110156104d657600080fd5b5035611bb4565b604080519115158252519081900360200190f35b61019d6004803603602081101561050757600080fd5b5035611bd1565b6104dd6004803603602081101561052457600080fd5b5035611c0c565b6104be6004803603602081101561054157600080fd5b5035611c24565b6104dd6004803603602081101561055e57600080fd5b5035611c9d565b61056d611cbe565b6040518080602001838152602001828103825284818151815260200191508051906020019080838360005b838110156105b0578181015183820152602001610598565b50505050905090810190601f1680156105dd5780820380516001836020036101000a031916815260200191505b50935050505060405180910390f35b61019d6004803603602081101561060257600080fd5b5035611cfc565b6102226004803603602081101561061f57600080fd5b5035611d11565b61019d6004803603602081101561063c57600080fd5b5035611d2d565b6106606004803603602081101561065957600080fd5b5035611d3f565b604051808315151515815260200180602001828103825283818151815260200191508051906020019060200280838360005b838110156106aa578181015183820152602001610692565b50505050905001935050505060405180910390f35b6104be600480360360408110156106d557600080fd5b5080359060200135600160a060020a0316611dc5565b6104dd6004803603608081101561070157600080fd5b81019060208101813564010000000081111561071c57600080fd5b82018360208201111561072e57600080fd5b8035906020019184600183028401116401000000008311171561075057600080fd5b91939092909160208101903564010000000081111561076e57600080fd5b82018360208201111561078057600080fd5b803590602001918460018302840111640100000000831117156107a257600080fd5b919350915080359060200135611e51565b6107d0600480360360208110156107c957600080fd5b5035612125565b6040805160ff9092168252519081900360200190f35b6104be600480360360208110156107fc57600080fd5b5035600160a060020a0316612147565b6108296004803603602081101561082257600080fd5b50356121d5565b6040518215158152602081018261012080838360005b8381101561085757818101518382015260200161083f565b505050509050019250505060405180910390f35b60036020528160005260406000208181548110151561088657fe5b90600052602060002001600091509150505481565b600090815260016020526040902054600160a060020a031690565b6000908152600160208190526040909120015490565b600090815260016020526040902060020154790100000000000000000000000000000000000000000000000000900464ffffffffff1690565b60046020526000908152604090205481565b600090815260016020526040902060020154650100000000009004600160a060020a031690565b6001602081905260009182526040909120805491810154600282015460038301546005840154600690940154600160a060020a0395861695939464ffffffffff80851695650100000000008087049091169579010000000000000000000000000000000000000000000000000090048216949182169390820460ff9081169366010000000000008404821693670100000000000000810483169368010000000000000000820461ffff16936a01000000000000000000009092048216928281169261010090910416908e565b60009081526001602052604090206002015464ffffffffff1690565b610a2e612e10565b81516020808401919091209082015264ffffffffff42166040820152600080808080610a5988612276565b9350610a6b888563ffffffff61228316565b9350610a7d888563ffffffff61228316565b925087610a898461233b565b81518110610a9357fe5b90602001015160f860020a900460f860020a02600160f860020a03191660a060f860020a021415610ad157610ace888463ffffffff61234a16565b92505b610ae1888463ffffffff61236116565b600160a060020a03166060870152610aff888463ffffffff61234a16565b9250610b11888463ffffffff61228316565b9250610b23888563ffffffff61234a16565b9150610b35888363ffffffff61234a16565b915060026000610b4b8a8663ffffffff6124d916565b8152602081019190915260400160002054600160a060020a031663de8f50a188610b7b8b8863ffffffff61250c16565b610b8b8c8763ffffffff61253f16565b6040518463ffffffff167c010000000000000000000000000000000000000000000000000000000002815260040180806020018060200180602001848103845287818151815260200191508051906020019080838360005b83811015610bfb578181015183820152602001610be3565b50505050905090810190601f168015610c285780820380516001836020036101000a031916815260200191505b50848103835286518152865160209182019188019080838360005b83811015610c5b578181015183820152602001610c43565b50505050905090810190601f168015610c885780820380516001836020036101000a031916815260200191505b50848103825285518152855160209182019187019080838360005b83811015610cbb578181015183820152602001610ca3565b50505050905090810190601f168015610ce85780820380516001836020036101000a031916815260200191505b50965050505050505060206040518083038186803b158015610d0957600080fd5b505afa158015610d1d573d6000803e3d6000fd5b505050506040513d6020811015610d3357600080fd5b50511515610d8b576040805160e560020a62461bcd02815260206004820152601660248201527f5369676e617475726520646f65736e74206d6174636800000000000000000000604482015290519081900360640190fd5b610d9b888563ffffffff61228316565b9350610dad888563ffffffff61234a16565b9350610dbf888563ffffffff61234a16565b9350610dd1888563ffffffff61234a16565b9350610de3888563ffffffff61234a16565b9350610df5888563ffffffff61228316565b9250610e0f610e0a898563ffffffff61253f16565b612556565b64ffffffffff1660808701819052421015610e74576040805160e560020a62461bcd02815260206004820152601c60248201527f4e6f77206973206265666f72652076616c69644e6f744265666f726500000000604482015290519081900360640190fd5b610e84888463ffffffff61234a16565b9250610e99610e0a898563ffffffff61253f16565b64ffffffffff1660a08701819052421115610efe576040805160e560020a62461bcd02815260206004820152601a60248201527f4e6f772069732061667465722076616c69644e6f744166746572000000000000604482015290519081900360640190fd5b610f0e888563ffffffff61234a16565b9350610f20888563ffffffff61234a16565b9350610f32888563ffffffff61297516565b6040805182815290519196507fa8bcd2c977618c00f7fed703adeb0977d9b57eb1f309214e668e87ca390c5137919081900360200190a1846004600060028b6040518082805190602001908083835b60208310610fa05780518252601f199092019160209182019101610f81565b51815160209384036101000a60001901801990921691161790526040519190930194509192505080830381855afa158015610fdf573d6000803e3d6000fd5b5050506040513d6020811015610ff457600080fd5b50518152602081019190915260400160002055611017888563ffffffff61234a16565b9350876110238561233b565b8151811061102d57fe5b90602001015160f860020a900460f860020a02600160f860020a03191660a160f860020a02141561106b57611068888563ffffffff61234a16565b93505b876110758561233b565b8151811061107f57fe5b90602001015160f860020a900460f860020a02600160f860020a03191660a260f860020a0214156110bd576110ba888563ffffffff61234a16565b93505b876110c78561233b565b815181106110d157fe5b90602001015160f860020a900460f860020a02600160f860020a03191660a360f860020a0214156118125761110c888563ffffffff61297516565b6101c0870152611122888563ffffffff61228316565b9350611134888563ffffffff61228316565b92506000805b61114485876129a8565b1561180f576111598a8663ffffffff61228316565b935061116b8a8563ffffffff6124d916565b915061117d8a8563ffffffff61234a16565b9350896111898561233b565b8151811061119357fe5b01602001517fff0000000000000000000000000000000000000000000000000000000000000060f860020a91829004820216141561122d57896111d585612a16565b815181106111df57fe5b60209101015160f860020a90819004027fff00000000000000000000000000000000000000000000000000000000000000161561121a575060015b61122a8a8563ffffffff61234a16565b93505b600160b060020a031982167f551d110000000000000000000000000000000000000000000000000000000000141561145c5761126f8a8563ffffffff612a3316565b93506112818a8563ffffffff61228316565b92505b61128e83856129a8565b15611457578961129d8461233b565b815181106112a757fe5b90602001015160f860020a900460f860020a02600160f860020a031916608260f860020a02141561140657600360006112e68c8663ffffffff61253f16565b6040517f0e0fb92400000000000000000000000000000000000000000000000000000000815260206004820181815283516024840152835173__ENSNamehash___________________________94630e0fb92494909383926044909201919085019080838360005b8381101561136657818101518382015260200161134e565b50505050905090810190601f1680156113935780820380516001836020036101000a031916815260200191505b509250505060206040518083038186803b1580156113b057600080fd5b505af41580156113c4573d6000803e3d6000fd5b505050506040513d60208110156113da57600080fd5b505181526020818101929092526040016000908120805460018101825590825291902001879055611440565b6003600061141a8c8663ffffffff612ac516565b815260208082019290925260400160009081208054600181018255908252919020018790555b6114508a8463ffffffff61234a16565b9250611284565b6117f8565b600160b060020a031982167f551d1300000000000000000000000000000000000000000000000000000000001480156114925750805b15611566576114a78a8563ffffffff612a3316565b93506114b98a8563ffffffff61228316565b92506114c583856129a8565b1561145757896114d484612a16565b815181106114de57fe5b60209101015160f860020a90819004027fff00000000000000000000000000000000000000000000000000000000000000161561145757600160c089015261152c8a8463ffffffff61234a16565b925061153883856129a8565b1561155a5761154d8a8463ffffffff61236116565b60ff1660e0890152611457565b60ff60e08901526117f8565b600160b060020a031982167f551d0f000000000000000000000000000000000000000000000000000000000014156116025760016101008901526115b08a8563ffffffff612a3316565b935060006115c48b8663ffffffff6124d916565b608061ffff60f860020a600284901a810281900460ff90811660019590951a820291909104166101000292909201821604166101208a0152506117f8565b600160b060020a031982167f551d250000000000000000000000000000000000000000000000000000000000141561172757600161014089015261164c8a8563ffffffff612a3316565b935061165e8a8563ffffffff61228316565b925060005b61166d84866129a8565b1561168c576001016116858b8563ffffffff61234a16565b9350611663565b6060816040519080825280602002602001820160405280156116b8578160200160208202803883390190505b5090506116cb8c8763ffffffff61228316565b945060005b8281101561171a576116e88d8763ffffffff6124d916565b82828151811015156116f657fe5b602090810290910101526117108d8763ffffffff61234a16565b95506001016116d0565b506101608a0152506117f8565b60005474010000000000000000000000000000000000000000900476010000000000000000000000000000000000000000000002600160b060020a0319908116908316141561177d5760016101808901526117f8565b600160b060020a031982167f551d1e000000000000000000000000000000000000000000000000000000000014156117e95760405160e560020a62461bcd028152600401808060200182810382526028815260200180612f4e6028913960400191505060405180910390fd5b80156117f85760016101a08901525b6118088a8663ffffffff61234a16565b945061113a565b50505b856001600087815260200190815260200160002060008201518160000160006101000a815481600160a060020a030219169083600160a060020a031602179055506020820151816001015560408201518160020160006101000a81548164ffffffffff021916908364ffffffffff16021790555060608201518160020160056101000a815481600160a060020a030219169083600160a060020a0316021790555060808201518160020160196101000a81548164ffffffffff021916908364ffffffffff16021790555060a08201518160030160006101000a81548164ffffffffff021916908364ffffffffff16021790555060c08201518160030160056101000a81548160ff02191690831515021790555060e08201518160030160066101000a81548160ff021916908360ff1602179055506101008201518160030160076101000a81548160ff0219169083151502179055506101208201518160030160086101000a81548161ffff021916908361ffff16021790555061014082015181600301600a6101000a81548160ff0219169083151502179055506101608201518160040190805190602001906119c9929190612e8b565b506101808201516005820180546101a085015115156101000261ff001993151560ff1990921691909117929092169190911790556101c09091015160069091015560208087015160009081526001909152604090206003015465010000000000900460ff161515611a84576040805160e560020a62461bcd02815260206004820152601360248201527f496e76616c696420706172656e74206365727400000000000000000000000000604482015290519081900360640190fd5b8560c001518015611a99575085602001518514155b15611b54576020808701516000908152600190915260409020600301546601000000000000900460ff9081161480611afe575060e086015160208088015160009081526001909152604090206003015460ff9182166601000000000000909104909116115b1515611b54576040805160e560020a62461bcd02815260206004820152601360248201527f496e76616c696420706172656e74206365727400000000000000000000000000604482015290519081900360640190fd5b8560c001511515611baa5761012086015160089081161415611baa5760405160e560020a62461bcd02815260040180806020018281038252603a815260200180612f14603a913960400191505060405180910390fd5b5050505050505050565b600090815260016020526040902060050154610100900460ff1690565b6000815b600081815260016020819052604090912001548114611c065760009081526001602081905260409091200154611bd5565b92915050565b60009081526001602052604090206005015460ff1690565b600054600160a060020a03163314611c3b57600080fd5b6000805476010000000000000000000000000000000000000000000090920474010000000000000000000000000000000000000000027fffff00000000000000000000ffffffffffffffffffffffffffffffffffffffff909216919091179055565b60009081526001602052604090206003015465010000000000900460ff1690565b604080516c01000000000000000000000000330260208201526000194301804060348084019190915283518084039091018152605490920190925291565b60009081526001602052604090206006015490565b60009081526001602052604090206003015464ffffffffff1690565b60009081526003602052604090205490565b60008181526001602090815260408083206003810154600490910180548351818602810186019094528084526060946a010000000000000000000090930460ff16939192839190830182828015611db557602002820191906000526020600020905b815481526020019060010190808311611da1575b5050505050905091509150915091565b600054600160a060020a03163314611ddc57600080fd5b600082815260026020908152604091829020805473ffffffffffffffffffffffffffffffffffffffff1916600160a060020a03851690811790915582518581529182015281517f65146a769582c865299fe09a84142c84d0f1d4df1dbaaaf2301857e665beb2d7929181900390910190a15050565b600080878760405180838380828437604080519390910183900383206c01000000000000000000000000330260208501528a40603480860191909152825180860390910181526054850180845282905291519097509095507f5c088381a25fb06fe5d3936d0346b98d68146eea6dd3801386069db26fbac84f945091829003607401925050a16101004386900310611f33576040805160e560020a62461bcd02815260206004820152601160248201527f5369676e617475726520746f6f206f6c64000000000000000000000000000000604482015290519081900360640190fd5b600084815260026020526040908190205490517fde8f50a1000000000000000000000000000000000000000000000000000000008152606060048201908152606482018b9052600160a060020a039092169163de8f50a1918c918c9186918d918d91908190602481019060448101906084018989808284376000838201819052601f909101601f19169092018681038552895181528951602091820193918b019250908190849084905b83811015611ff5578181015183820152602001611fdd565b50505050905090810190601f1680156120225780820380516001836020036101000a031916815260200191505b508481038252858152602001868680828437600081840152601f19601f8201169050808301925050509850505050505050505060206040518083038186803b15801561206d57600080fd5b505afa158015612081573d6000803e3d6000fd5b505050506040513d602081101561209757600080fd5b505115156120ef576040805160e560020a62461bcd02815260206004820152601660248201527f5369676e617475726520646f65736e74206d6174636800000000000000000000604482015290519081900360640190fd5b506000908152600160205260409020805473ffffffffffffffffffffffffffffffffffffffff1916331790559695505050505050565b6000908152600160205260409020600301546601000000000000900460ff1690565b600054600160a060020a0316331461215e57600080fd5b60005460408051600160a060020a039283168152918316602083015280517f7699c77f2404f9b6bbd003861bb4af8ae70b205e19e73d7ec7fe4590db59a6b79281900390910190a16000805473ffffffffffffffffffffffffffffffffffffffff1916600160a060020a0392909216919091179055565b60006121df612ed6565b6101006121ea612ed6565b60008581526001602052604090206003015468010000000000000000810461ffff1690670100000000000000900460ff16801561226a5760005b6009811015612268578461ffff1685841661ffff1614848260098110151561224857fe5b9115156020929092020152600261ffff9095169490940493600101612224565b505b94509092505050915091565b6000611c06826000612adc565b60008261228f8361233b565b8151811061229957fe5b01602001517f200000000000000000000000000000000000000000000000000000000000000060f860020a91829004909102811614612322576040805160e560020a62461bcd02815260206004820152601660248201527f4e6f74206120636f6e7374727563746564207479706500000000000000000000604482015290519081900360640190fd5b6123348361232f84612a16565b612adc565b9392505050565b69ffffffffffffffffffff1690565b60006123348361235984612c81565b600101612adc565b60008261236d8361233b565b8151811061237757fe5b90602001015160f860020a900460f860020a02600160f860020a031916600260f860020a021415156123f3576040805160e560020a62461bcd02815260206004820152601060248201527f4e6f74207479706520494e544547455200000000000000000000000000000000604482015290519081900360640190fd5b826123fd83612a16565b8151811061240757fe5b60209101015160f860020a90819004027f8000000000000000000000000000000000000000000000000000000000000000161561248e576040805160e560020a62461bcd02815260206004820152600c60248201527f4e6f7420706f7369746976650000000000000000000000000000000000000000604482015290519081900360640190fd5b600061249983612a16565b6124a284612c81565b600101039050806020036008026124c96124bb85612a16565b86908463ffffffff612ca816565b60029190910a9004949350505050565b60006123346124e783612a16565b6124f084612a16565b6124f985612c81565b869291900360010163ffffffff612ca816565b606061233461251a8361233b565b6125238461233b565b61252c85612c81565b869291900360010163ffffffff612ce216565b606061233461254d83612a16565b61252384612a16565b6000806000806000806000808851600d14156125bc57600560308a600081518110151561257f57fe5b90602001015160f860020a900460f860020a0260f860020a90040360ff1610156125af576107d0870196506125b7565b61076c870196505b61262b565b60308960018151811015156125cd57fe5b90602001015160f860020a900460f860020a0260f860020a90040360640260ff1660308a60008151811015156125ff57fe5b90602001015160f860020a900460f860020a0260f860020a90040360ff166103e8020187019650600290505b6030898260010160ff1681518110151561264157fe5b90602001015160f860020a900460f860020a0260f860020a900460308b8460000160ff1681518110151561267157fe5b90602001015160f860020a900460f860020a0260f860020a900403600a02010360ff16870196506030898260030160ff168151811015156126ae57fe5b90602001015160f860020a900460f860020a0260f860020a900460308b8460020160ff168151811015156126de57fe5b90602001015160f860020a900460f860020a0260f860020a900403600a02010395506030898260050160ff1681518110151561271657fe5b90602001015160f860020a900460f860020a0260f860020a900460308b8460040160ff1681518110151561274657fe5b90602001015160f860020a900460f860020a0260f860020a900403600a020103850194506030898260070160ff1681518110151561278057fe5b90602001015160f860020a900460f860020a0260f860020a900460308b8460060160ff168151811015156127b057fe5b90602001015160f860020a900460f860020a0260f860020a900403600a020103840193506030898260090160ff168151811015156127ea57fe5b90602001015160f860020a900460f860020a0260f860020a900460308b8460080160ff1681518110151561281a57fe5b90602001015160f860020a900460f860020a0260f860020a900403600a0201038301925060308982600b0160ff1681518110151561285457fe5b90602001015160f860020a900460f860020a0260f860020a900460308b84600a0160ff1681518110151561288457fe5b60209101810151600554604080517f9054bdec00000000000000000000000000000000000000000000000000000000815261ffff8f16600482015260ff8e811660248301528d811660448301528c811660648301528b8116608483015260f860020a9485900485029490940495909503600a0295909501959095039690960195861660a48301529151600160a060020a0390931692639054bdec9260c480840193919291829003018186803b15801561293c57600080fd5b505afa158015612950573d6000803e3d6000fd5b505050506040513d602081101561296657600080fd5b50519998505050505050505050565b60006123346129838361233b565b61298c8461233b565b61299585612c81565b869291900360010163ffffffff612d4516565b60006129b38261233b565b6129bc84612a16565b111580156129da57506129ce83612c81565b6129d783612c81565b11155b8061233457506129e98361233b565b6129f283612a16565b111580156123345750612a0482612c81565b612a0d84612c81565b11159392505050565b6a0100000000000000000000900469ffffffffffffffffffff1690565b600082612a3f8361233b565b81518110612a4957fe5b90602001015160f860020a900460f860020a02600160f860020a031916600460f860020a02141515612322576040805160e560020a62461bcd02815260206004820152601560248201527f4e6f742074797065204f4354455420535452494e470000000000000000000000604482015290519081900360640190fd5b6000612334612ad383612a16565b61298c84612a16565b6000806000808585600101815181101515612af357fe5b60209101015160f860020a90819004027f8000000000000000000000000000000000000000000000000000000000000000161515612b7a578585600101815181101515612b3c57fe5b90602001015160f860020a900460f860020a0260f860020a900460ff1692508460020191506001838369ffffffffffffffffffff1601039050612c54565b60008686600101815181101515612b8d57fe5b90602001015160f860020a900460f860020a02607f60f860020a021660f860020a900490508060ff1660011415612bdb57612bd1876002880163ffffffff612d6216565b60ff169350612c35565b8060ff1660021415612c0557612bfa876002880163ffffffff612d8216565b61ffff169350612c35565b8060200360080260ff16612c2a876002018360ff168a612ca89092919063ffffffff16565b60029190910a900493505b60ff16850160020191505060001969ffffffffffffffffffff82168301015b612c77858369ffffffffffffffffffff168369ffffffffffffffffffff16612da3565b9695505050505050565b74010000000000000000000000000000000000000000900469ffffffffffffffffffff1690565b60006020821115612cb857600080fd5b83518383011115612cc857600080fd5b506020919092018101519190036101000a60001901191690565b82516060908383011115612cf557600080fd5b6060826040519080825280601f01601f191660200182016040528015612d22576020820181803883390190505b50905060208082019086860101612d3a828287612dd2565b509095945050505050565b82516000908383011115612d5857600080fd5b5091016020012090565b8151600090600183011115612d7657600080fd5b50016001015160ff1690565b8151600090600283011115612d9657600080fd5b50016002015161ffff1690565b74010000000000000000000000000000000000000000026a010000000000000000000091909102919091171790565b5b60208110612df2578151835260209283019290910190601f1901612dd3565b905182516020929092036101000a6000190180199091169116179052565b604080516101e08101825260008082526020820181905291810182905260608082018390526080820183905260a0820183905260c0820183905260e0820183905261010082018390526101208201839052610140820183905261016082015261018081018290526101a081018290526101c081019190915290565b828054828255906000526020600020908101928215612ec6579160200282015b82811115612ec6578251825591602001919060010190612eab565b50612ed2929150612ef6565b5090565b610120604051908101604052806009906020820280388339509192915050565b612f1091905b80821115612ed25760008155600101612efc565b9056fe634120626f6f6c65616e206973206e6f7420617373657274656420616e64206b6579436572745369676e206269742069732061737365727465644e616d6520636f6e73747261696e747320657874656e73696f6e206e6f7420737570706f72746564a165627a7a72305820ecb89d63cbe090e28db08b99c7272655d851d80a6b1c814c06886f7c54ce95920029",
  "source": "pragma solidity  ^0.5.2;\r\n\r\nimport \"./Ownable.sol\";\r\nimport \"asn1-decode/contracts/Asn1Decode.sol\";\r\n//import \"solidity-bytes-utils/contracts/BytesUtils.sol\";\r\nimport \"sig-verify-algs/contracts/Algorithm.sol\";\r\nimport \"ens-namehash/contracts/ENSNamehash.sol\";\r\nimport \"ethereum-datetime/contracts/DateTime.sol\";\r\n\r\n/*\r\n * @dev Stores validated X.509 certificate chains in parent pointer trees.\r\n * @dev The root of each tree is a CA root certificate\r\n */\r\ncontract X509ForestOfTrust is Ownable {\r\n  using Asn1Decode for bytes;\r\n  using ENSNamehash for bytes;\r\n\r\n  bytes10 constant private OID_SUBJECT_ALT_NAME   = 0x551d1100000000000000;\r\n  bytes10 constant private OID_BASIC_CONSTRAINTS  = 0x551d1300000000000000;\r\n  bytes10 constant private OID_NAME_CONSTRAINTS   = 0x551d1e00000000000000;\r\n  bytes10 constant private OID_KEY_USAGE          = 0x551d0f00000000000000;\r\n  bytes10 constant private OID_EXTENDED_KEY_USAGE = 0x551d2500000000000000;\r\n  bytes10 private OID_CAN_SIGN_HTTP_EXCHANGES     = 0x2b06010401d679020116; // Not constant because spec may change\r\n\r\n  constructor(address sha256WithRSAEncryption, address _dateTime) public {\r\n    bytes32 algOid = 0x2a864886f70d01010b0000000000000000000000000000000000000000000000;\r\n    algs[algOid] = Algorithm(sha256WithRSAEncryption);\r\n    dateTime = DateTime(_dateTime);\r\n  }\r\n\r\n  struct Certificate {\r\n    address owner;\r\n    bytes32 parentId;\r\n    uint40 timestamp;\r\n    uint160 serialNumber;\r\n    uint40 validNotBefore;\r\n    uint40 validNotAfter;\r\n    bool cA;                        // Whether the certified public key may be used to verify certificate signatures.\r\n    uint8 pathLenConstraint;        // Maximum number of non-self-issued intermediate certs that may follow this\r\n                                    // cert in a valid certification path.\r\n    bool keyUsagePresent;\r\n    uint16 keyUsage;                // Value of KeyUsage bits. (E.g. 000000101 is 5)\r\n    bool extKeyUsagePresent;\r\n    bytes32[] extKeyUsage;\r\n    bool sxg;                       // canSignHttpExchanges extension is present.\r\n    bool uncheckedCriticalExtension;// If true, further validation is needed. Use extId to save gas.\r\n    bytes32 extId;                  // keccak256 of extensions field for further validation.\r\n  }\r\n\r\n  mapping (bytes32 => Certificate) public  certs;     // certId => cert  (certId is keccak256(pubKey))\r\n  mapping (bytes32 => Algorithm)   private algs;      // algorithm oid bytes => signature verification contract\r\n  mapping (bytes32 => bytes32[])   public  toCertIds; // ensNamehash(subjectAltName) => certId\r\n  mapping (bytes32 => bytes32)     public  toCertId;  // sha256 fingerprint => certId\r\n  DateTime dateTime;                                  // For dateTime conversion\r\n\r\n  event CertAdded(bytes32);\r\n  event CertClaimed(bytes32);\r\n  event AlgSet(bytes32, address);\r\n\r\n  /**\r\n   * @dev Add a X.509 certificate to an existing tree/chain\r\n   * @param cert A DER-encoded X.509 certificate\r\n   * @param parentPubKey The parent certificate's DER-encoded public key\r\n   */\r\n  function addCert(bytes memory cert, bytes memory parentPubKey)\r\n  public\r\n  {\r\n    Certificate memory certificate;\r\n    bytes32 certId;\r\n    uint node1;\r\n    uint node2;\r\n    uint node3;\r\n    uint node4;\r\n\r\n    certificate.parentId = keccak256(parentPubKey);\r\n    certificate.timestamp = uint40(block.timestamp);\r\n\r\n    node1 = cert.root();\r\n    node1 = cert.firstChildOf(node1);\r\n    node2 = cert.firstChildOf(node1);\r\n    if (cert[NodePtr.ixs(node2)] == 0xa0) {\r\n      node2 = cert.nextSiblingOf(node2);\r\n    }\r\n    // Extract serial number\r\n    certificate.serialNumber = uint160(cert.uintAt(node2));\r\n\r\n    node2 = cert.nextSiblingOf(node2);\r\n    node2 = cert.firstChildOf(node2);\r\n    node3 = cert.nextSiblingOf(node1);\r\n    node3 = cert.nextSiblingOf(node3);\r\n    // Verify signature\r\n    require(algs[cert.bytes32At(node2)].verify(parentPubKey, cert.allBytesAt(node1), cert.bytesAt(node3)), \"Signature doesnt match\");\r\n\r\n    node1 = cert.firstChildOf(node1);\r\n    node1 = cert.nextSiblingOf(node1);\r\n    node1 = cert.nextSiblingOf(node1);\r\n    node1 = cert.nextSiblingOf(node1);\r\n    node1 = cert.nextSiblingOf(node1);\r\n\r\n    node2 = cert.firstChildOf(node1);\r\n    // Check validNotBefore\r\n    certificate.validNotBefore = uint40(toTimestamp(cert.bytesAt(node2)));\r\n    require(certificate.validNotBefore <= now, \"Now is before validNotBefore\");\r\n    node2 = cert.nextSiblingOf(node2);\r\n    // Check validNotAfter\r\n    certificate.validNotAfter = uint40(toTimestamp(cert.bytesAt(node2)));\r\n    require(now <= certificate.validNotAfter, \"Now is after validNotAfter\");\r\n\r\n    node1 = cert.nextSiblingOf(node1);\r\n    node1 = cert.nextSiblingOf(node1);\r\n    // Get public key and calculate certId from it\r\n    certId = cert.keccakOfAllBytesAt(node1);\r\n    // Fire event\r\n    emit CertAdded(certId);\r\n\r\n    // Add reference from sha256 fingerprint\r\n    toCertId[sha256(cert)] = certId;\r\n\r\n    node1 = cert.nextSiblingOf(node1);\r\n\r\n    // Skip over v2 fields\r\n    if (cert[NodePtr.ixs(node1)] == 0xa1)\r\n      node1 = cert.nextSiblingOf(node1);\r\n    if (cert[NodePtr.ixs(node1)] == 0xa2)\r\n      node1 = cert.nextSiblingOf(node1);\r\n\r\n    // Parse extensions\r\n    if (cert[NodePtr.ixs(node1)] == 0xa3) {\r\n      // Save hash of extensions\r\n      certificate.extId = cert.keccakOfAllBytesAt(node1);\r\n      node1 = cert.firstChildOf(node1);\r\n      node2 = cert.firstChildOf(node1);\r\n      bytes10 oid;\r\n      bool isCritical;\r\n      while (Asn1Decode.isChildOf(node2, node1)) {\r\n        node3 = cert.firstChildOf(node2);\r\n        oid = bytes10(cert.bytes32At(node3)); // Extension oid\r\n        node3 = cert.nextSiblingOf(node3);\r\n        // Check if extension is critical\r\n        if (cert[NodePtr.ixs(node3)] == 0x01) { // If type is bool\r\n          if (cert[NodePtr.ixf(node3)] != 0x00) // If not false\r\n            isCritical = true;\r\n          node3 = cert.nextSiblingOf(node3);\r\n        }\r\n        if (oid == OID_SUBJECT_ALT_NAME) {\r\n          // Add references from names\r\n          node3 = cert.rootOfOctetStringAt(node3);\r\n          node4 = cert.firstChildOf(node3);\r\n          while (Asn1Decode.isChildOf(node4, node3)) {\r\n            if(cert[NodePtr.ixs(node4)] == 0x82)\r\n              toCertIds[cert.bytesAt(node4).namehash()].push(certId);\r\n            else\r\n              toCertIds[cert.keccakOfBytesAt(node4)].push(certId);\r\n            node4 = cert.nextSiblingOf(node4);\r\n          }\r\n        }\r\n        else if (oid == OID_BASIC_CONSTRAINTS && isCritical) {\r\n          // Check if cert can sign other certs\r\n          node3 = cert.rootOfOctetStringAt(node3);\r\n          node4 = cert.firstChildOf(node3);\r\n          // If sequence (node3) is not empty\r\n          if (Asn1Decode.isChildOf(node4, node3)) {\r\n            // If value == true\r\n            if (cert[NodePtr.ixf(node4)] != 0x00) {\r\n              certificate.cA = true;\r\n              node4 = cert.nextSiblingOf(node4);\r\n              if (Asn1Decode.isChildOf(node4, node3)) {\r\n                certificate.pathLenConstraint = uint8(cert.uintAt(node4));\r\n              }\r\n              else {\r\n                certificate.pathLenConstraint = uint8(-1);\r\n              }\r\n            }\r\n          }\r\n        }\r\n        else if (oid == OID_KEY_USAGE) {\r\n          certificate.keyUsagePresent = true;\r\n          node3 = cert.rootOfOctetStringAt(node3);\r\n          bytes3 v = bytes3(cert.bytes32At(node3)); // The encoded bitstring value\r\n          certificate.keyUsage = ((uint16(uint8(v[1])) << 8) + uint16(uint8(v[2]))) >> 7;\r\n        }\r\n        else if (oid == OID_EXTENDED_KEY_USAGE) {\r\n          certificate.extKeyUsagePresent = true;\r\n          node3 = cert.rootOfOctetStringAt(node3);\r\n          node4 = cert.firstChildOf(node3);\r\n          uint len;\r\n          while (Asn1Decode.isChildOf(node4, node3)) {\r\n            len++;\r\n            node4 = cert.nextSiblingOf(node4);\r\n          }\r\n          bytes32[] memory oids = new bytes32[](len);\r\n          node4 = cert.firstChildOf(node3);\r\n          for (uint i; i<len; i++) {\r\n            oids[i] = cert.bytes32At(node4);\r\n            node4 = cert.nextSiblingOf(node4);\r\n          }\r\n          certificate.extKeyUsage = oids;\r\n        }\r\n        else if (oid == OID_CAN_SIGN_HTTP_EXCHANGES) {\r\n          certificate.sxg = true;\r\n        }\r\n        else if (oid == OID_NAME_CONSTRAINTS) {\r\n          // Name constraints not allowed.\r\n          require(false, \"Name constraints extension not supported\");\r\n        }\r\n        else if (isCritical) {\r\n          // Note: unrecognized critical extensions are allowed.\r\n          // Further validation of certificate is needed.\r\n          certificate.uncheckedCriticalExtension = true;\r\n        }\r\n        node2 = cert.nextSiblingOf(node2);\r\n      }\r\n    }\r\n\r\n    certs[certId] = certificate;\r\n\r\n    require(certs[certificate.parentId].cA, \"Invalid parent cert\");\r\n\r\n    // If intermediate cert, verify authority's pathLenConstraint\r\n    if (certificate.cA && certId != certificate.parentId)\r\n      require(certs[certificate.parentId].pathLenConstraint == uint8(-1) || certs[certificate.parentId].pathLenConstraint > certificate.pathLenConstraint, \"Invalid parent cert\");\r\n    // RFC 5280: If the cA boolean is not asserted, then the keyCertSign\r\n    // bit in the key usage extension MUST NOT be asserted.\r\n    if (!certificate.cA)\r\n      require(certificate.keyUsage & 8 != 8, \"cA boolean is not asserted and keyCertSign bit is asserted\");\r\n  }\r\n\r\n  /**\r\n   * @dev The return values of this function are used to proveOwnership() of a\r\n   *      certificate that exists in the certs mapping.\r\n   * @return Some unique bytes to be signed\r\n   * @return The block number used to create the first return value\r\n   */\r\n  function signThis()\r\n  external view returns (bytes memory, uint)\r\n  {\r\n    return ( abi.encodePacked(msg.sender, blockhash(block.number - 1)), block.number -1 );\r\n  }\r\n\r\n  /**\r\n   * @dev An account calls this method to prove ownership of a certificate.\r\n   *      If successful, certs[certId].owner will be set to caller's address.\r\n   * @param pubKey The target certificate's public key\r\n   * @param signature signThis()[0] signed with certificate's private key\r\n   * @param blockNumber The value of signThis()[1] (must be > block.number - 256)\r\n   * @param sigAlg The OID of the algorithm used to sign `signature`\r\n   */\r\n  function proveOwnership(bytes calldata pubKey, bytes calldata signature, uint blockNumber, bytes32 sigAlg)\r\n  external returns (bool)\r\n  {\r\n    bytes32 certId = keccak256(pubKey);\r\n    bytes memory message = abi.encodePacked(msg.sender, blockhash(blockNumber));\r\n\r\n    emit CertClaimed(certId);\r\n\r\n    // Only accept proof if it's less than 256 blocks old\r\n    // This is the most time I can give since blockhash() can only return the 256 most recent\r\n    require(block.number - blockNumber < 256, \"Signature too old\");\r\n    // Verify signature, which proves ownership\r\n    require(algs[sigAlg].verify(pubKey, message, signature), \"Signature doesnt match\");\r\n\r\n    certs[certId].owner = msg.sender;\r\n  }\r\n\r\n  function rootOf(bytes32 certId)external view returns (bytes32) {\r\n    bytes32 id = certId;\r\n    while (id != certs[id].parentId) {\r\n      id = certs[id].parentId;\r\n    }\r\n    return id;\r\n  }\r\n\r\n  function owner(bytes32 certId) external view returns (address) {\r\n    return certs[certId].owner;\r\n  }\r\n\r\n  function parentId(bytes32 certId) external view returns (bytes32) {\r\n    return certs[certId].parentId;\r\n  }\r\n\r\n  function serialNumber(bytes32 certId) external view returns (uint160) {\r\n    return certs[certId].serialNumber;\r\n  }\r\n\r\n  function timestamp(bytes32 certId) external view returns (uint40) {\r\n    return certs[certId].timestamp;\r\n  }\r\n\r\n  function validNotBefore(bytes32 certId) external view returns (uint40) {\r\n    return certs[certId].validNotBefore;\r\n  }\r\n\r\n  function validNotAfter(bytes32 certId) external view returns (uint40) {\r\n    return certs[certId].validNotAfter;\r\n  }\r\n\r\n  function sxg(bytes32 certId) external view returns (bool) {\r\n    return certs[certId].sxg;\r\n  }\r\n\r\n  function pathLenConstraint(bytes32 certId) external view returns (uint8) {\r\n    return certs[certId].pathLenConstraint;\r\n  }\r\n\r\n  function cA(bytes32 certId) external view returns (bool) {\r\n    return certs[certId].cA;\r\n  }\r\n\r\n  function keyUsage(bytes32 certId) external view returns (bool, bool[9] memory) {\r\n    uint16 mask = 256;\r\n    bool[9] memory flags;\r\n    uint16 bits = certs[certId].keyUsage;\r\n    bool isPresent = certs[certId].keyUsagePresent;\r\n    if (isPresent) {\r\n      for (uint i; i<9; i++) {\r\n        flags[i] = (bits & mask == mask);\r\n        mask = mask >> 1;\r\n      }\r\n    }\r\n    return (isPresent, flags);\r\n  }\r\n\r\n  function extKeyUsage(bytes32 certId) external view returns (bool, bytes32[] memory) {\r\n    return (certs[certId].extKeyUsagePresent, certs[certId].extKeyUsage);\r\n  }\r\n\r\n  function uncheckedCriticalExtension(bytes32 certId) external view returns (bool) {\r\n    return certs[certId].uncheckedCriticalExtension;\r\n  }\r\n\r\n  function extId(bytes32 certId) external view returns (bytes32) {\r\n    return certs[certId].extId;\r\n  }\r\n\r\n  function toCertIdsLength(bytes32 _hash) external view returns (uint) {\r\n    return toCertIds[_hash].length;\r\n  }\r\n\r\n  function toTimestamp(bytes memory x509Time) private view returns (uint) {\r\n    uint16 yrs;  uint8 mnths;\r\n    uint8  dys;  uint8 hrs;\r\n    uint8  mins; uint8 secs;\r\n    uint8  offset;\r\n\r\n    if (x509Time.length == 13) {\r\n      if (uint8(x509Time[0])-48 < 5) yrs += 2000;\r\n      else yrs += 1900;\r\n    }\r\n    else {\r\n      yrs += (uint8(x509Time[0])-48) * 1000 + (uint8(x509Time[1])-48) * 100;\r\n      offset = 2;\r\n    }\r\n    yrs +=  (uint8(x509Time[offset+0])-48)*10 + uint8(x509Time[offset+1])-48;\r\n    mnths = (uint8(x509Time[offset+2])-48)*10 + uint8(x509Time[offset+3])-48;\r\n    dys +=  (uint8(x509Time[offset+4])-48)*10 + uint8(x509Time[offset+5])-48;\r\n    hrs +=  (uint8(x509Time[offset+6])-48)*10 + uint8(x509Time[offset+7])-48;\r\n    mins += (uint8(x509Time[offset+8])-48)*10 + uint8(x509Time[offset+9])-48;\r\n    secs += (uint8(x509Time[offset+10])-48)*10 + uint8(x509Time[offset+11])-48;\r\n\r\n    return dateTime.toTimestamp(yrs, mnths, dys, hrs, mins, secs);\r\n  }\r\n\r\n  function setAlg(bytes32 oid, address alg) external onlyOwner {\r\n    algs[oid] = Algorithm(alg);\r\n    emit AlgSet(oid, alg);\r\n  }\r\n\r\n  function setSxgOid(bytes32 sxgOid) external onlyOwner {\r\n    OID_CAN_SIGN_HTTP_EXCHANGES = bytes10(sxgOid);\r\n  }\r\n}\r\n",
  "sourcePath": "x509-forest-of-trust/contracts/X509ForestOfTrust.sol",
  "compiler": {
    "name": "solc",
    "version": "0.5.2+commit.1df8f40c.Emscripten.clang"
  },
  "schemaVersion": "3.0.9",
  "updatedAt": "2019-06-14T01:33:59.949Z",
  "devdoc": {
    "methods": {
      "addCert(bytes,bytes)": {
        "details": "Add a X.509 certificate to an existing tree/chain\r",
        "params": {
          "cert": "A DER-encoded X.509 certificate\r",
          "parentPubKey": "The parent certificate's DER-encoded public key\r"
        }
      },
      "proveOwnership(bytes,bytes,uint256,bytes32)": {
        "details": "An account calls this method to prove ownership of a certificate.\r     If successful, certs[certId].owner will be set to caller's address.\r",
        "params": {
          "blockNumber": "The value of signThis()[1] (must be > block.number - 256)\r",
          "pubKey": "The target certificate's public key\r",
          "sigAlg": "The OID of the algorithm used to sign `signature`\r",
          "signature": "signThis()[0] signed with certificate's private key\r"
        }
      },
      "signThis()": {
        "details": "The return values of this function are used to proveOwnership() of a\r     certificate that exists in the certs mapping.\r",
        "return": "Some unique bytes to be signed\rThe block number used to create the first return value\r"
      }
    }
  },
  "userdoc": {
    "methods": {}
  }
}